{
  "contractName": "flipCard",
  "abi": [
    {
      "inputs": [],
      "stateMutability": "nonpayable",
      "type": "constructor"
    },
    {
      "anonymous": false,
      "inputs": [
        {
          "indexed": true,
          "internalType": "address",
          "name": "owner",
          "type": "address"
        },
        {
          "indexed": true,
          "internalType": "address",
          "name": "approved",
          "type": "address"
        },
        {
          "indexed": true,
          "internalType": "uint256",
          "name": "tokenId",
          "type": "uint256"
        }
      ],
      "name": "Approval",
      "type": "event"
    },
    {
      "anonymous": false,
      "inputs": [
        {
          "indexed": true,
          "internalType": "address",
          "name": "owner",
          "type": "address"
        },
        {
          "indexed": true,
          "internalType": "address",
          "name": "operator",
          "type": "address"
        },
        {
          "indexed": false,
          "internalType": "bool",
          "name": "approved",
          "type": "bool"
        }
      ],
      "name": "ApprovalForAll",
      "type": "event"
    },
    {
      "anonymous": false,
      "inputs": [
        {
          "indexed": false,
          "internalType": "uint256",
          "name": "_tokenURI",
          "type": "uint256"
        },
        {
          "indexed": false,
          "internalType": "uint256",
          "name": "date",
          "type": "uint256"
        }
      ],
      "name": "NewRepair",
      "type": "event"
    },
    {
      "anonymous": false,
      "inputs": [
        {
          "indexed": true,
          "internalType": "bytes32",
          "name": "role",
          "type": "bytes32"
        },
        {
          "indexed": true,
          "internalType": "bytes32",
          "name": "previousAdminRole",
          "type": "bytes32"
        },
        {
          "indexed": true,
          "internalType": "bytes32",
          "name": "newAdminRole",
          "type": "bytes32"
        }
      ],
      "name": "RoleAdminChanged",
      "type": "event"
    },
    {
      "anonymous": false,
      "inputs": [
        {
          "indexed": true,
          "internalType": "bytes32",
          "name": "role",
          "type": "bytes32"
        },
        {
          "indexed": true,
          "internalType": "address",
          "name": "account",
          "type": "address"
        },
        {
          "indexed": true,
          "internalType": "address",
          "name": "sender",
          "type": "address"
        }
      ],
      "name": "RoleGranted",
      "type": "event"
    },
    {
      "anonymous": false,
      "inputs": [
        {
          "indexed": true,
          "internalType": "bytes32",
          "name": "role",
          "type": "bytes32"
        },
        {
          "indexed": true,
          "internalType": "address",
          "name": "account",
          "type": "address"
        },
        {
          "indexed": true,
          "internalType": "address",
          "name": "sender",
          "type": "address"
        }
      ],
      "name": "RoleRevoked",
      "type": "event"
    },
    {
      "anonymous": false,
      "inputs": [
        {
          "indexed": true,
          "internalType": "address",
          "name": "from",
          "type": "address"
        },
        {
          "indexed": true,
          "internalType": "address",
          "name": "to",
          "type": "address"
        },
        {
          "indexed": true,
          "internalType": "uint256",
          "name": "tokenId",
          "type": "uint256"
        }
      ],
      "name": "Transfer",
      "type": "event"
    },
    {
      "inputs": [],
      "name": "BOOK_KEEPER_ROLE",
      "outputs": [
        {
          "internalType": "bytes32",
          "name": "",
          "type": "bytes32"
        }
      ],
      "stateMutability": "view",
      "type": "function"
    },
    {
      "inputs": [],
      "name": "DEFAULT_ADMIN_ROLE",
      "outputs": [
        {
          "internalType": "bytes32",
          "name": "",
          "type": "bytes32"
        }
      ],
      "stateMutability": "view",
      "type": "function"
    },
    {
      "inputs": [],
      "name": "HANDLER_ROLE",
      "outputs": [
        {
          "internalType": "bytes32",
          "name": "",
          "type": "bytes32"
        }
      ],
      "stateMutability": "view",
      "type": "function"
    },
    {
      "inputs": [],
      "name": "MINTER_ROLE",
      "outputs": [
        {
          "internalType": "bytes32",
          "name": "",
          "type": "bytes32"
        }
      ],
      "stateMutability": "view",
      "type": "function"
    },
    {
      "inputs": [],
      "name": "NOT_STARTED",
      "outputs": [
        {
          "internalType": "bytes32",
          "name": "",
          "type": "bytes32"
        }
      ],
      "stateMutability": "view",
      "type": "function"
    },
    {
      "inputs": [],
      "name": "STARTED",
      "outputs": [
        {
          "internalType": "bytes32",
          "name": "",
          "type": "bytes32"
        }
      ],
      "stateMutability": "view",
      "type": "function"
    },
    {
      "inputs": [
        {
          "internalType": "address",
          "name": "to",
          "type": "address"
        },
        {
          "internalType": "uint256",
          "name": "tokenId",
          "type": "uint256"
        }
      ],
      "name": "approve",
      "outputs": [],
      "stateMutability": "nonpayable",
      "type": "function"
    },
    {
      "inputs": [
        {
          "internalType": "address",
          "name": "owner",
          "type": "address"
        }
      ],
      "name": "balanceOf",
      "outputs": [
        {
          "internalType": "uint256",
          "name": "",
          "type": "uint256"
        }
      ],
      "stateMutability": "view",
      "type": "function"
    },
    {
      "inputs": [],
      "name": "brandAddress",
      "outputs": [
        {
          "internalType": "address",
          "name": "",
          "type": "address"
        }
      ],
      "stateMutability": "view",
      "type": "function"
    },
    {
      "inputs": [
        {
          "internalType": "uint256",
          "name": "tokenId",
          "type": "uint256"
        }
      ],
      "name": "burn",
      "outputs": [],
      "stateMutability": "nonpayable",
      "type": "function"
    },
    {
      "inputs": [
        {
          "internalType": "uint256",
          "name": "",
          "type": "uint256"
        }
      ],
      "name": "company_warranty_status",
      "outputs": [
        {
          "internalType": "bytes32",
          "name": "",
          "type": "bytes32"
        }
      ],
      "stateMutability": "view",
      "type": "function"
    },
    {
      "inputs": [
        {
          "internalType": "uint256",
          "name": "tokenId",
          "type": "uint256"
        }
      ],
      "name": "getApproved",
      "outputs": [
        {
          "internalType": "address",
          "name": "",
          "type": "address"
        }
      ],
      "stateMutability": "view",
      "type": "function"
    },
    {
      "inputs": [
        {
          "internalType": "bytes32",
          "name": "role",
          "type": "bytes32"
        }
      ],
      "name": "getRoleAdmin",
      "outputs": [
        {
          "internalType": "bytes32",
          "name": "",
          "type": "bytes32"
        }
      ],
      "stateMutability": "view",
      "type": "function"
    },
    {
      "inputs": [
        {
          "internalType": "bytes32",
          "name": "role",
          "type": "bytes32"
        },
        {
          "internalType": "address",
          "name": "account",
          "type": "address"
        }
      ],
      "name": "grantRole",
      "outputs": [],
      "stateMutability": "nonpayable",
      "type": "function"
    },
    {
      "inputs": [
        {
          "internalType": "bytes32",
          "name": "role",
          "type": "bytes32"
        },
        {
          "internalType": "address",
          "name": "account",
          "type": "address"
        }
      ],
      "name": "hasRole",
      "outputs": [
        {
          "internalType": "bool",
          "name": "",
          "type": "bool"
        }
      ],
      "stateMutability": "view",
      "type": "function"
    },
    {
      "inputs": [
        {
          "internalType": "address",
          "name": "owner",
          "type": "address"
        },
        {
          "internalType": "address",
          "name": "operator",
          "type": "address"
        }
      ],
      "name": "isApprovedForAll",
      "outputs": [
        {
          "internalType": "bool",
          "name": "",
          "type": "bool"
        }
      ],
      "stateMutability": "view",
      "type": "function"
    },
    {
      "inputs": [],
      "name": "name",
      "outputs": [
        {
          "internalType": "string",
          "name": "",
          "type": "string"
        }
      ],
      "stateMutability": "view",
      "type": "function"
    },
    {
      "inputs": [
        {
          "internalType": "uint256",
          "name": "",
          "type": "uint256"
        },
        {
          "internalType": "uint256",
          "name": "",
          "type": "uint256"
        }
      ],
      "name": "nft_warranties",
      "outputs": [
        {
          "internalType": "uint256",
          "name": "",
          "type": "uint256"
        }
      ],
      "stateMutability": "view",
      "type": "function"
    },
    {
      "inputs": [
        {
          "internalType": "uint256",
          "name": "tokenId",
          "type": "uint256"
        }
      ],
      "name": "ownerOf",
      "outputs": [
        {
          "internalType": "address",
          "name": "",
          "type": "address"
        }
      ],
      "stateMutability": "view",
      "type": "function"
    },
    {
      "inputs": [
        {
          "internalType": "bytes32",
          "name": "role",
          "type": "bytes32"
        },
        {
          "internalType": "address",
          "name": "account",
          "type": "address"
        }
      ],
      "name": "renounceRole",
      "outputs": [],
      "stateMutability": "nonpayable",
      "type": "function"
    },
    {
      "inputs": [
        {
          "internalType": "bytes32",
          "name": "role",
          "type": "bytes32"
        },
        {
          "internalType": "address",
          "name": "account",
          "type": "address"
        }
      ],
      "name": "revokeRole",
      "outputs": [],
      "stateMutability": "nonpayable",
      "type": "function"
    },
    {
      "inputs": [
        {
          "internalType": "address",
          "name": "from",
          "type": "address"
        },
        {
          "internalType": "address",
          "name": "to",
          "type": "address"
        },
        {
          "internalType": "uint256",
          "name": "tokenId",
          "type": "uint256"
        }
      ],
      "name": "safeTransferFrom",
      "outputs": [],
      "stateMutability": "nonpayable",
      "type": "function"
    },
    {
      "inputs": [
        {
          "internalType": "address",
          "name": "from",
          "type": "address"
        },
        {
          "internalType": "address",
          "name": "to",
          "type": "address"
        },
        {
          "internalType": "uint256",
          "name": "tokenId",
          "type": "uint256"
        },
        {
          "internalType": "bytes",
          "name": "_data",
          "type": "bytes"
        }
      ],
      "name": "safeTransferFrom",
      "outputs": [],
      "stateMutability": "nonpayable",
      "type": "function"
    },
    {
      "inputs": [
        {
          "internalType": "address",
          "name": "operator",
          "type": "address"
        },
        {
          "internalType": "bool",
          "name": "approved",
          "type": "bool"
        }
      ],
      "name": "setApprovalForAll",
      "outputs": [],
      "stateMutability": "nonpayable",
      "type": "function"
    },
    {
      "inputs": [],
      "name": "symbol",
      "outputs": [
        {
          "internalType": "string",
          "name": "",
          "type": "string"
        }
      ],
      "stateMutability": "view",
      "type": "function"
    },
    {
      "inputs": [
        {
          "internalType": "address",
          "name": "from",
          "type": "address"
        },
        {
          "internalType": "address",
          "name": "to",
          "type": "address"
        },
        {
          "internalType": "uint256",
          "name": "tokenId",
          "type": "uint256"
        }
      ],
      "name": "transferFrom",
      "outputs": [],
      "stateMutability": "nonpayable",
      "type": "function"
    },
    {
      "inputs": [
        {
          "internalType": "uint256",
          "name": "",
          "type": "uint256"
        }
      ],
      "name": "user_warranty_status",
      "outputs": [
        {
          "internalType": "bytes32",
          "name": "",
          "type": "bytes32"
        }
      ],
      "stateMutability": "view",
      "type": "function"
    },
    {
      "inputs": [
        {
          "internalType": "uint256",
          "name": "_tokenURI",
          "type": "uint256"
        }
      ],
      "name": "updateUserWarranty",
      "outputs": [],
      "stateMutability": "nonpayable",
      "type": "function"
    },
    {
      "inputs": [
        {
          "internalType": "uint256",
          "name": "_tokenURI",
          "type": "uint256"
        }
      ],
      "name": "updateCompanyWarranty",
      "outputs": [],
      "stateMutability": "nonpayable",
      "type": "function"
    },
    {
      "inputs": [
        {
          "internalType": "address",
          "name": "_account",
          "type": "address"
        }
      ],
      "name": "isMinter",
      "outputs": [
        {
          "internalType": "bool",
          "name": "",
          "type": "bool"
        }
      ],
      "stateMutability": "view",
      "type": "function"
    },
    {
      "inputs": [
        {
          "internalType": "address",
          "name": "_account",
          "type": "address"
        }
      ],
      "name": "isAdmin",
      "outputs": [
        {
          "internalType": "bool",
          "name": "",
          "type": "bool"
        }
      ],
      "stateMutability": "view",
      "type": "function"
    },
    {
      "inputs": [
        {
          "internalType": "address",
          "name": "_account",
          "type": "address"
        }
      ],
      "name": "isUpdateMember",
      "outputs": [
        {
          "internalType": "bool",
          "name": "",
          "type": "bool"
        }
      ],
      "stateMutability": "view",
      "type": "function"
    },
    {
      "inputs": [
        {
          "internalType": "address",
          "name": "_member",
          "type": "address"
        },
        {
          "internalType": "bytes32",
          "name": "_role",
          "type": "bytes32"
        }
      ],
      "name": "addRole",
      "outputs": [],
      "stateMutability": "nonpayable",
      "type": "function"
    },
    {
      "inputs": [
        {
          "internalType": "address",
          "name": "to",
          "type": "address"
        },
        {
          "internalType": "string",
          "name": "uri",
          "type": "string"
        }
      ],
      "name": "safeMint",
      "outputs": [],
      "stateMutability": "nonpayable",
      "type": "function"
    },
    {
      "inputs": [
        {
          "internalType": "bytes32",
          "name": "x",
          "type": "bytes32"
        }
      ],
      "name": "bytes32ToString",
      "outputs": [
        {
          "internalType": "string",
          "name": "",
          "type": "string"
        }
      ],
      "stateMutability": "pure",
      "type": "function"
    },
    {
      "inputs": [
        {
          "internalType": "address",
          "name": "to",
          "type": "address"
        },
        {
          "internalType": "string[]",
          "name": "_newTokenURIs",
          "type": "string[]"
        }
      ],
      "name": "safeMintBatch",
      "outputs": [],
      "stateMutability": "nonpayable",
      "type": "function"
    },
    {
      "inputs": [
        {
          "internalType": "uint256",
          "name": "_tokenId",
          "type": "uint256"
        },
        {
          "internalType": "string",
          "name": "_tokenURI",
          "type": "string"
        }
      ],
      "name": "updateTokenUri",
      "outputs": [
        {
          "internalType": "bool",
          "name": "",
          "type": "bool"
        }
      ],
      "stateMutability": "nonpayable",
      "type": "function"
    },
    {
      "inputs": [],
      "name": "heartbeat",
      "outputs": [
        {
          "internalType": "uint256",
          "name": "",
          "type": "uint256"
        }
      ],
      "stateMutability": "pure",
      "type": "function"
    },
    {
      "inputs": [
        {
          "internalType": "uint256",
          "name": "tokenId",
          "type": "uint256"
        }
      ],
      "name": "tokenURI",
      "outputs": [
        {
          "internalType": "string",
          "name": "",
          "type": "string"
        }
      ],
      "stateMutability": "view",
      "type": "function"
    },
    {
      "inputs": [
        {
          "internalType": "address",
          "name": "",
          "type": "address"
        },
        {
          "internalType": "address",
          "name": "",
          "type": "address"
        },
        {
          "internalType": "uint256",
          "name": "",
          "type": "uint256"
        },
        {
          "internalType": "bytes",
          "name": "",
          "type": "bytes"
        }
      ],
      "name": "onERC721Received",
      "outputs": [
        {
          "internalType": "bytes4",
          "name": "",
          "type": "bytes4"
        }
      ],
      "stateMutability": "pure",
      "type": "function"
    },
    {
      "inputs": [
        {
          "internalType": "bytes4",
          "name": "interfaceId",
          "type": "bytes4"
        }
      ],
      "name": "supportsInterface",
      "outputs": [
        {
          "internalType": "bool",
          "name": "",
          "type": "bool"
        }
      ],
      "stateMutability": "view",
      "type": "function"
    }
  ],
  "bytecode": "0x60806040523480156200001157600080fd5b506040518060400160405280600981526020017f466c6970436172647300000000000000000000000000000000000000000000008152506040518060400160405280600581526020017f4643524453000000000000000000000000000000000000000000000000000000815250816000908051906020019062000096929190620003c8565b508060019080519060200190620000af929190620003c8565b505050620000c76000801b336200026360201b60201c565b620000f97f9f2df0fed2c77648de5860a4cc508cd0818c85b8b8a1ab4ceeef8d981c8956a6336200026360201b60201c565b6200012b7f8ee6ed50dc250dbccf4d86bd88d4956ab55c7de37d1fed5508924b70da11fe8b336200026360201b60201c565b6200015d7f1cf2b81dce95f0e7b91e95903f9b70bc58c33207c55b6b0bc3ba3d0522942e31336200026360201b60201c565b736fa75265a8a8cfeb7eb798248fab22dae8b9bccd600c60006101000a81548173ffffffffffffffffffffffffffffffffffffffff021916908373ffffffffffffffffffffffffffffffffffffffff160217905550620001c76000801b336200026360201b60201c565b620001f97f9f2df0fed2c77648de5860a4cc508cd0818c85b8b8a1ab4ceeef8d981c8956a6336200026360201b60201c565b6200022b7f8ee6ed50dc250dbccf4d86bd88d4956ab55c7de37d1fed5508924b70da11fe8b336200026360201b60201c565b6200025d7f1cf2b81dce95f0e7b91e95903f9b70bc58c33207c55b6b0bc3ba3d0522942e31336200026360201b60201c565b620004dd565b6200027582826200035560201b60201c565b620003515760016007600084815260200190815260200160002060000160008373ffffffffffffffffffffffffffffffffffffffff1673ffffffffffffffffffffffffffffffffffffffff16815260200190815260200160002060006101000a81548160ff021916908315150217905550620002f6620003c060201b60201c565b73ffffffffffffffffffffffffffffffffffffffff168173ffffffffffffffffffffffffffffffffffffffff16837f2f8788117e7eff1d82e926ec794901d17c78024a50270940304540a733656f0d60405160405180910390a45b5050565b60006007600084815260200190815260200160002060000160008373ffffffffffffffffffffffffffffffffffffffff1673ffffffffffffffffffffffffffffffffffffffff16815260200190815260200160002060009054906101000a900460ff16905092915050565b600033905090565b828054620003d690620004a7565b90600052602060002090601f016020900481019282620003fa576000855562000446565b82601f106200041557805160ff191683800117855562000446565b8280016001018555821562000446579182015b828111156200044557825182559160200191906001019062000428565b5b50905062000455919062000459565b5090565b5b80821115620004745760008160009055506001016200045a565b5090565b7f4e487b7100000000000000000000000000000000000000000000000000000000600052602260045260246000fd5b60006002820490506001821680620004c057607f821691505b60208210811415620004d757620004d662000478565b5b50919050565b614cf980620004ed6000396000f3fe608060405234801561001057600080fd5b50600436106102535760003560e01c80636d9c51c211610146578063a73f7f8a116100c3578063d204c45e11610087578063d204c45e1461076a578063d31af48414610786578063d5391393146107b6578063d547741f146107d4578063e985e9c5146107f0578063eeb40b4a1461082057610253565b8063a73f7f8a146106b6578063aa271e1a146106d2578063aa7241bd14610702578063b88d4fde1461071e578063c87b56dd1461073a57610253565b80639201de551161010a5780639201de551461061057806395d89b4114610640578063a217fddf1461065e578063a22cb4651461067c578063a3b8272b1461069857610253565b80636d9c51c21461054657806370a08231146105625780637afa9e9c146105925780637d9d3360146105b057806391d14854146105e057610253565b80632f2ff15d116101d457806350b5e0f21161019857806350b5e0f21461047a578063545df3e4146104aa578063600b292f146104c85780636352211e146104f85780636792166f1461052857610253565b80632f2ff15d146103ec57806336568abe146104085780633defb9621461042457806342842e0e1461044257806342966c681461045e57610253565b80631aa95d4b1161021b5780631aa95d4b146103225780631be35a591461035257806323b872dd14610370578063248a9ca31461038c57806324d7806c146103bc57610253565b806301ffc9a71461025857806306fdde0314610288578063081812fc146102a6578063095ea7b3146102d6578063150b7a02146102f2575b600080fd5b610272600480360381019061026d9190613015565b61083c565b60405161027f919061305d565b60405180910390f35b61029061084e565b60405161029d9190613111565b60405180910390f35b6102c060048036038101906102bb9190613169565b6108e0565b6040516102cd91906131d7565b60405180910390f35b6102f060048036038101906102eb919061321e565b610965565b005b61030c600480360381019061030791906132c3565b610a7d565b604051610319919061335a565b60405180910390f35b61033c60048036038101906103379190613169565b610aab565b604051610349919061338e565b60405180910390f35b61035a610ac3565b604051610367919061338e565b60405180910390f35b61038a600480360381019061038591906133a9565b610ae7565b005b6103a660048036038101906103a19190613428565b610b47565b6040516103b3919061338e565b60405180910390f35b6103d660048036038101906103d19190613455565b610b67565b6040516103e3919061305d565b60405180910390f35b61040660048036038101906104019190613482565b610b7d565b005b610422600480360381019061041d9190613482565b610b9e565b005b61042c610c21565b60405161043991906134d1565b60405180910390f35b61045c600480360381019061045791906133a9565b610c2a565b005b61047860048036038101906104739190613169565b610c4a565b005b610494600480360381019061048f9190613455565b610ca6565b6040516104a1919061305d565b60405180910390f35b6104b2610ced565b6040516104bf919061338e565b60405180910390f35b6104e260048036038101906104dd91906134ec565b610d11565b6040516104ef91906134d1565b60405180910390f35b610512600480360381019061050d9190613169565b610d42565b60405161051f91906131d7565b60405180910390f35b610530610df4565b60405161053d919061338e565b60405180910390f35b610560600480360381019061055b9190613582565b610e18565b005b61057c60048036038101906105779190613455565b610ef8565b60405161058991906134d1565b60405180910390f35b61059a610fb0565b6040516105a7919061338e565b60405180910390f35b6105ca60048036038101906105c59190613169565b610fd4565b6040516105d7919061338e565b60405180910390f35b6105fa60048036038101906105f59190613482565b610fec565b604051610607919061305d565b60405180910390f35b61062a60048036038101906106259190613428565b611057565b6040516106379190613111565b60405180910390f35b610648611256565b6040516106559190613111565b60405180910390f35b6106666112e8565b604051610673919061338e565b60405180910390f35b6106966004803603810190610691919061360e565b6112ef565b005b6106a0611305565b6040516106ad91906131d7565b60405180910390f35b6106d060048036038101906106cb919061364e565b61132b565b005b6106ec60048036038101906106e79190613455565b611437565b6040516106f9919061305d565b60405180910390f35b61071c60048036038101906107179190613169565b61147e565b005b610738600480360381019061073391906137be565b611538565b005b610754600480360381019061074f9190613169565b61159a565b6040516107619190613111565b60405180910390f35b610784600480360381019061077f91906138e2565b6115ac565b005b6107a0600480360381019061079b919061393e565b611625565b6040516107ad919061305d565b60405180910390f35b6107be611683565b6040516107cb919061338e565b60405180910390f35b6107ee60048036038101906107e99190613482565b6116a7565b005b61080a6004803603810190610805919061399a565b6116c8565b604051610817919061305d565b60405180910390f35b61083a60048036038101906108359190613169565b61175c565b005b600061084782611888565b9050919050565b60606000805461085d90613a09565b80601f016020809104026020016040519081016040528092919081815260200182805461088990613a09565b80156108d65780601f106108ab576101008083540402835291602001916108d6565b820191906000526020600020905b8154815290600101906020018083116108b957829003601f168201915b5050505050905090565b60006108eb82611902565b61092a576040517f08c379a000000000000000000000000000000000000000000000000000000000815260040161092190613aad565b60405180910390fd5b6004600083815260200190815260200160002060009054906101000a900473ffffffffffffffffffffffffffffffffffffffff169050919050565b600061097082610d42565b90508073ffffffffffffffffffffffffffffffffffffffff168373ffffffffffffffffffffffffffffffffffffffff1614156109e1576040517f08c379a00000000000000000000000000000000000000000000000000000000081526004016109d890613b3f565b60405180910390fd5b8073ffffffffffffffffffffffffffffffffffffffff16610a0061196e565b73ffffffffffffffffffffffffffffffffffffffff161480610a2f5750610a2e81610a2961196e565b6116c8565b5b610a6e576040517f08c379a0000000000000000000000000000000000000000000000000000000008152600401610a6590613bd1565b60405180910390fd5b610a788383611976565b505050565b60007f150b7a023d4804d13e8c85fb27262cb750cf6ba9f9dd3bb30d90f482ceeb4b1f905095945050505050565b600a6020528060005260406000206000915090505481565b7f7df7eaf03384253cfecdc2836ef367f151da4e29b2a5b140d3cce6d52778af5381565b610af8610af261196e565b82611a2f565b610b37576040517f08c379a0000000000000000000000000000000000000000000000000000000008152600401610b2e90613c63565b60405180910390fd5b610b42838383611b0d565b505050565b600060076000838152602001908152602001600020600101549050919050565b6000610b766000801b83610fec565b9050919050565b610b8682610b47565b610b8f81611d74565b610b998383611d88565b505050565b610ba661196e565b73ffffffffffffffffffffffffffffffffffffffff168173ffffffffffffffffffffffffffffffffffffffff1614610c13576040517f08c379a0000000000000000000000000000000000000000000000000000000008152600401610c0a90613cf5565b60405180910390fd5b610c1d8282611e69565b5050565b60006001905090565b610c4583838360405180602001604052806000815250611538565b505050565b610c5b610c5561196e565b82611a2f565b610c9a576040517f08c379a0000000000000000000000000000000000000000000000000000000008152600401610c9190613d87565b60405180910390fd5b610ca381611f4b565b50565b6000610cb56000801b83610fec565b80610ce65750610ce57f1cf2b81dce95f0e7b91e95903f9b70bc58c33207c55b6b0bc3ba3d0522942e3183610fec565b5b9050919050565b7fc6bb872d2a73bea74c4aa108404de619f778a5fa7018ee90d958bc3a11df3f2d81565b600b6020528160005260406000208181548110610d2d57600080fd5b90600052602060002001600091509150505481565b6000806002600084815260200190815260200160002060009054906101000a900473ffffffffffffffffffffffffffffffffffffffff169050600073ffffffffffffffffffffffffffffffffffffffff168173ffffffffffffffffffffffffffffffffffffffff161415610deb576040517f08c379a0000000000000000000000000000000000000000000000000000000008152600401610de290613e19565b60405180910390fd5b80915050919050565b7f1cf2b81dce95f0e7b91e95903f9b70bc58c33207c55b6b0bc3ba3d0522942e3181565b610e2133611437565b610e60576040517f08c379a0000000000000000000000000000000000000000000000000000000008152600401610e5790613e85565b60405180910390fd5b60005b82829050811015610ef257610edf84848484818110610e8557610e84613ea5565b5b9050602002810190610e979190613ee3565b8080601f016020809104026020016040519081016040528093929190818152602001838380828437600081840152601f19601f820116905080830192505050505050506115ac565b8080610eea90613f75565b915050610e63565b50505050565b60008073ffffffffffffffffffffffffffffffffffffffff168273ffffffffffffffffffffffffffffffffffffffff161415610f69576040517f08c379a0000000000000000000000000000000000000000000000000000000008152600401610f6090614030565b60405180910390fd5b600360008373ffffffffffffffffffffffffffffffffffffffff1673ffffffffffffffffffffffffffffffffffffffff168152602001908152602001600020549050919050565b7f8ee6ed50dc250dbccf4d86bd88d4956ab55c7de37d1fed5508924b70da11fe8b81565b60096020528060005260406000206000915090505481565b60006007600084815260200190815260200160002060000160008373ffffffffffffffffffffffffffffffffffffffff1673ffffffffffffffffffffffffffffffffffffffff16815260200190815260200160002060009054906101000a900460ff16905092915050565b60606000602067ffffffffffffffff81111561107657611075613693565b5b6040519080825280601f01601f1916602001820160405280156110a85781602001600182028036833780820191505090505b5090506000805b60208110156111795760008160086110c79190614050565b60026110d391906141dd565b8660001c6110e19190614050565b60001b9050600060f81b817effffffffffffffffffffffffffffffffffffffffffffffffffffffffffffff191614611165578084848151811061112757611126613ea5565b5b60200101907effffffffffffffffffffffffffffffffffffffffffffffffffffffffffffff1916908160001a905350828061116190613f75565b9350505b50808061117190613f75565b9150506110af565b60008267ffffffffffffffff81111561119557611194613693565b5b6040519080825280601f01601f1916602001820160405280156111c75781602001600182028036833780820191505090505b509050600091505b8282101561124a578382815181106111ea576111e9613ea5565b5b602001015160f81c60f81b81838151811061120857611207613ea5565b5b60200101907effffffffffffffffffffffffffffffffffffffffffffffffffffffffffffff1916908160001a905350818061124290613f75565b9250506111cf565b80945050505050919050565b60606001805461126590613a09565b80601f016020809104026020016040519081016040528092919081815260200182805461129190613a09565b80156112de5780601f106112b3576101008083540402835291602001916112de565b820191906000526020600020905b8154815290600101906020018083116112c157829003601f168201915b5050505050905090565b6000801b81565b6113016112fa61196e565b8383611f57565b5050565b600c60009054906101000a900473ffffffffffffffffffffffffffffffffffffffff1681565b61133433610b67565b611373576040517f08c379a000000000000000000000000000000000000000000000000000000000815260040161136a90614274565b60405180910390fd5b7f9f2df0fed2c77648de5860a4cc508cd0818c85b8b8a1ab4ceeef8d981c8956a68114806113c057507f8ee6ed50dc250dbccf4d86bd88d4956ab55c7de37d1fed5508924b70da11fe8b81145b806113ea57507f1cf2b81dce95f0e7b91e95903f9b70bc58c33207c55b6b0bc3ba3d0522942e3181145b611429576040517f08c379a0000000000000000000000000000000000000000000000000000000008152600401611420906142e0565b60405180910390fd5b6114338183610b7d565b5050565b60006114466000801b83610fec565b8061147757506114767f9f2df0fed2c77648de5860a4cc508cd0818c85b8b8a1ab4ceeef8d981c8956a683610fec565b5b9050919050565b3373ffffffffffffffffffffffffffffffffffffffff1661149e82610d42565b73ffffffffffffffffffffffffffffffffffffffff16146114be57600080fd5b7fc6bb872d2a73bea74c4aa108404de619f778a5fa7018ee90d958bc3a11df3f2d6009600083815260200190815260200160002054146114fd57600080fd5b7f7df7eaf03384253cfecdc2836ef367f151da4e29b2a5b140d3cce6d52778af53600960008381526020019081526020016000208190555050565b61154961154361196e565b83611a2f565b611588576040517f08c379a000000000000000000000000000000000000000000000000000000000815260040161157f90613c63565b60405180910390fd5b611594848484846120c4565b50505050565b60606115a582612120565b9050919050565b6115b533611437565b6115f4576040517f08c379a00000000000000000000000000000000000000000000000000000000081526004016115eb90613e85565b60405180910390fd5b60006116006008612272565b905061160c6008612280565b6116168382612296565b61162081836122b4565b505050565b600061163033610ca6565b61166f576040517f08c379a000000000000000000000000000000000000000000000000000000000815260040161166690614372565b60405180910390fd5b61167983836122b4565b6001905092915050565b7f9f2df0fed2c77648de5860a4cc508cd0818c85b8b8a1ab4ceeef8d981c8956a681565b6116b082610b47565b6116b981611d74565b6116c38383611e69565b505050565b6000600560008473ffffffffffffffffffffffffffffffffffffffff1673ffffffffffffffffffffffffffffffffffffffff16815260200190815260200160002060008373ffffffffffffffffffffffffffffffffffffffff1673ffffffffffffffffffffffffffffffffffffffff16815260200190815260200160002060009054906101000a900460ff16905092915050565b7fc6bb872d2a73bea74c4aa108404de619f778a5fa7018ee90d958bc3a11df3f2d600a6000838152602001908152602001600020541461179b57600080fd5b7f7df7eaf03384253cfecdc2836ef367f151da4e29b2a5b140d3cce6d52778af536009600083815260200190815260200160002054146117da57600080fd5b7f17765e9b5811c513a564223b02404957aacffa1ba1a98f3fa413443bfcbd6d52814260405161180b929190614392565b60405180910390a1600b60008281526020019081526020016000204290806001815401808255809150506001900390600052602060002001600090919091909150557fc6bb872d2a73bea74c4aa108404de619f778a5fa7018ee90d958bc3a11df3f2d600960008381526020019081526020016000208190555050565b60007f7965db0b000000000000000000000000000000000000000000000000000000007bffffffffffffffffffffffffffffffffffffffffffffffffffffffff1916827bffffffffffffffffffffffffffffffffffffffffffffffffffffffff191614806118fb57506118fa82612328565b5b9050919050565b60008073ffffffffffffffffffffffffffffffffffffffff166002600084815260200190815260200160002060009054906101000a900473ffffffffffffffffffffffffffffffffffffffff1673ffffffffffffffffffffffffffffffffffffffff1614159050919050565b600033905090565b816004600083815260200190815260200160002060006101000a81548173ffffffffffffffffffffffffffffffffffffffff021916908373ffffffffffffffffffffffffffffffffffffffff160217905550808273ffffffffffffffffffffffffffffffffffffffff166119e983610d42565b73ffffffffffffffffffffffffffffffffffffffff167f8c5be1e5ebec7d5bd14f71427d1e84f3dd0314c0f7b2291e5b200ac8c7c3b92560405160405180910390a45050565b6000611a3a82611902565b611a79576040517f08c379a0000000000000000000000000000000000000000000000000000000008152600401611a709061442d565b60405180910390fd5b6000611a8483610d42565b90508073ffffffffffffffffffffffffffffffffffffffff168473ffffffffffffffffffffffffffffffffffffffff161480611ac65750611ac581856116c8565b5b80611b0457508373ffffffffffffffffffffffffffffffffffffffff16611aec846108e0565b73ffffffffffffffffffffffffffffffffffffffff16145b91505092915050565b8273ffffffffffffffffffffffffffffffffffffffff16611b2d82610d42565b73ffffffffffffffffffffffffffffffffffffffff1614611b83576040517f08c379a0000000000000000000000000000000000000000000000000000000008152600401611b7a906144bf565b60405180910390fd5b600073ffffffffffffffffffffffffffffffffffffffff168273ffffffffffffffffffffffffffffffffffffffff161415611bf3576040517f08c379a0000000000000000000000000000000000000000000000000000000008152600401611bea90614551565b60405180910390fd5b611bfe83838361240a565b611c09600082611976565b6001600360008573ffffffffffffffffffffffffffffffffffffffff1673ffffffffffffffffffffffffffffffffffffffff1681526020019081526020016000206000828254611c599190614571565b925050819055506001600360008473ffffffffffffffffffffffffffffffffffffffff1673ffffffffffffffffffffffffffffffffffffffff1681526020019081526020016000206000828254611cb091906145a5565b92505081905550816002600083815260200190815260200160002060006101000a81548173ffffffffffffffffffffffffffffffffffffffff021916908373ffffffffffffffffffffffffffffffffffffffff160217905550808273ffffffffffffffffffffffffffffffffffffffff168473ffffffffffffffffffffffffffffffffffffffff167fddf252ad1be2c89b69c2b068fc378daa952ba7f163c4a11628f55a4df523b3ef60405160405180910390a4611d6f83838361240f565b505050565b611d8581611d8061196e565b612414565b50565b611d928282610fec565b611e655760016007600084815260200190815260200160002060000160008373ffffffffffffffffffffffffffffffffffffffff1673ffffffffffffffffffffffffffffffffffffffff16815260200190815260200160002060006101000a81548160ff021916908315150217905550611e0a61196e565b73ffffffffffffffffffffffffffffffffffffffff168173ffffffffffffffffffffffffffffffffffffffff16837f2f8788117e7eff1d82e926ec794901d17c78024a50270940304540a733656f0d60405160405180910390a45b5050565b611e738282610fec565b15611f475760006007600084815260200190815260200160002060000160008373ffffffffffffffffffffffffffffffffffffffff1673ffffffffffffffffffffffffffffffffffffffff16815260200190815260200160002060006101000a81548160ff021916908315150217905550611eec61196e565b73ffffffffffffffffffffffffffffffffffffffff168173ffffffffffffffffffffffffffffffffffffffff16837ff6391f5c32d9c69d2a47ea670b442974b53935d1edc7fd64eb21e047a839171b60405160405180910390a45b5050565b611f54816124b1565b50565b8173ffffffffffffffffffffffffffffffffffffffff168373ffffffffffffffffffffffffffffffffffffffff161415611fc6576040517f08c379a0000000000000000000000000000000000000000000000000000000008152600401611fbd90614647565b60405180910390fd5b80600560008573ffffffffffffffffffffffffffffffffffffffff1673ffffffffffffffffffffffffffffffffffffffff16815260200190815260200160002060008473ffffffffffffffffffffffffffffffffffffffff1673ffffffffffffffffffffffffffffffffffffffff16815260200190815260200160002060006101000a81548160ff0219169083151502179055508173ffffffffffffffffffffffffffffffffffffffff168373ffffffffffffffffffffffffffffffffffffffff167f17307eab39ab6107e8899845ad3d59bd9653f200f220920489ca2b5937696c31836040516120b7919061305d565b60405180910390a3505050565b6120cf848484611b0d565b6120db84848484612504565b61211a576040517f08c379a0000000000000000000000000000000000000000000000000000000008152600401612111906146d9565b60405180910390fd5b50505050565b606061212b82611902565b61216a576040517f08c379a00000000000000000000000000000000000000000000000000000000081526004016121619061476b565b60405180910390fd5b600060066000848152602001908152602001600020805461218a90613a09565b80601f01602080910402602001604051908101604052809291908181526020018280546121b690613a09565b80156122035780601f106121d857610100808354040283529160200191612203565b820191906000526020600020905b8154815290600101906020018083116121e657829003601f168201915b50505050509050600061221461268c565b905060008151141561222a57819250505061226d565b60008251111561225f5780826040516020016122479291906147c7565b6040516020818303038152906040529250505061226d565b612268846126a3565b925050505b919050565b600081600001549050919050565b6001816000016000828254019250508190555050565b6122b082826040518060200160405280600081525061274a565b5050565b6122bd82611902565b6122fc576040517f08c379a00000000000000000000000000000000000000000000000000000000081526004016122f39061485d565b60405180910390fd5b80600660008481526020019081526020016000209080519060200190612323929190612ec6565b505050565b60007f80ac58cd000000000000000000000000000000000000000000000000000000007bffffffffffffffffffffffffffffffffffffffffffffffffffffffff1916827bffffffffffffffffffffffffffffffffffffffffffffffffffffffff191614806123f357507f5b5e139f000000000000000000000000000000000000000000000000000000007bffffffffffffffffffffffffffffffffffffffffffffffffffffffff1916827bffffffffffffffffffffffffffffffffffffffffffffffffffffffff1916145b806124035750612402826127a5565b5b9050919050565b505050565b505050565b61241e8282610fec565b6124ad576124438173ffffffffffffffffffffffffffffffffffffffff16601461280f565b6124518360001c602061280f565b604051602001612462929190614915565b6040516020818303038152906040526040517f08c379a00000000000000000000000000000000000000000000000000000000081526004016124a49190613111565b60405180910390fd5b5050565b6124ba81612a4b565b60006006600083815260200190815260200160002080546124da90613a09565b905014612501576006600082815260200190815260200160002060006125009190612f4c565b5b50565b60006125258473ffffffffffffffffffffffffffffffffffffffff16612b68565b1561267f578373ffffffffffffffffffffffffffffffffffffffff1663150b7a0261254e61196e565b8786866040518563ffffffff1660e01b815260040161257094939291906149a4565b6020604051808303816000875af19250505080156125ac57506040513d601f19601f820116820180604052508101906125a99190614a05565b60015b61262f573d80600081146125dc576040519150601f19603f3d011682016040523d82523d6000602084013e6125e1565b606091505b50600081511415612627576040517f08c379a000000000000000000000000000000000000000000000000000000000815260040161261e906146d9565b60405180910390fd5b805181602001fd5b63150b7a0260e01b7bffffffffffffffffffffffffffffffffffffffffffffffffffffffff1916817bffffffffffffffffffffffffffffffffffffffffffffffffffffffff191614915050612684565b600190505b949350505050565b606060405180602001604052806000815250905090565b60606126ae82611902565b6126ed576040517f08c379a00000000000000000000000000000000000000000000000000000000081526004016126e490614aa4565b60405180910390fd5b60006126f761268c565b905060008151116127175760405180602001604052806000815250612742565b8061272184612b8b565b6040516020016127329291906147c7565b6040516020818303038152906040525b915050919050565b6127548383612cec565b6127616000848484612504565b6127a0576040517f08c379a0000000000000000000000000000000000000000000000000000000008152600401612797906146d9565b60405180910390fd5b505050565b60007f01ffc9a7000000000000000000000000000000000000000000000000000000007bffffffffffffffffffffffffffffffffffffffffffffffffffffffff1916827bffffffffffffffffffffffffffffffffffffffffffffffffffffffff1916149050919050565b6060600060028360026128229190614050565b61282c91906145a5565b67ffffffffffffffff81111561284557612844613693565b5b6040519080825280601f01601f1916602001820160405280156128775781602001600182028036833780820191505090505b5090507f3000000000000000000000000000000000000000000000000000000000000000816000815181106128af576128ae613ea5565b5b60200101907effffffffffffffffffffffffffffffffffffffffffffffffffffffffffffff1916908160001a9053507f78000000000000000000000000000000000000000000000000000000000000008160018151811061291357612912613ea5565b5b60200101907effffffffffffffffffffffffffffffffffffffffffffffffffffffffffffff1916908160001a905350600060018460026129539190614050565b61295d91906145a5565b90505b60018111156129fd577f3031323334353637383961626364656600000000000000000000000000000000600f86166010811061299f5761299e613ea5565b5b1a60f81b8282815181106129b6576129b5613ea5565b5b60200101907effffffffffffffffffffffffffffffffffffffffffffffffffffffffffffff1916908160001a905350600485901c9450806129f690614ac4565b9050612960565b5060008414612a41576040517f08c379a0000000000000000000000000000000000000000000000000000000008152600401612a3890614b3a565b60405180910390fd5b8091505092915050565b6000612a5682610d42565b9050612a648160008461240a565b612a6f600083611976565b6001600360008373ffffffffffffffffffffffffffffffffffffffff1673ffffffffffffffffffffffffffffffffffffffff1681526020019081526020016000206000828254612abf9190614571565b925050819055506002600083815260200190815260200160002060006101000a81549073ffffffffffffffffffffffffffffffffffffffff021916905581600073ffffffffffffffffffffffffffffffffffffffff168273ffffffffffffffffffffffffffffffffffffffff167fddf252ad1be2c89b69c2b068fc378daa952ba7f163c4a11628f55a4df523b3ef60405160405180910390a4612b648160008461240f565b5050565b6000808273ffffffffffffffffffffffffffffffffffffffff163b119050919050565b60606000821415612bd3576040518060400160405280600181526020017f30000000000000000000000000000000000000000000000000000000000000008152509050612ce7565b600082905060005b60008214612c05578080612bee90613f75565b915050600a82612bfe9190614b89565b9150612bdb565b60008167ffffffffffffffff811115612c2157612c20613693565b5b6040519080825280601f01601f191660200182016040528015612c535781602001600182028036833780820191505090505b5090505b60008514612ce057600182612c6c9190614571565b9150600a85612c7b9190614bba565b6030612c8791906145a5565b60f81b818381518110612c9d57612c9c613ea5565b5b60200101907effffffffffffffffffffffffffffffffffffffffffffffffffffffffffffff1916908160001a905350600a85612cd99190614b89565b9450612c57565b8093505050505b919050565b600073ffffffffffffffffffffffffffffffffffffffff168273ffffffffffffffffffffffffffffffffffffffff161415612d5c576040517f08c379a0000000000000000000000000000000000000000000000000000000008152600401612d5390614c37565b60405180910390fd5b612d6581611902565b15612da5576040517f08c379a0000000000000000000000000000000000000000000000000000000008152600401612d9c90614ca3565b60405180910390fd5b612db16000838361240a565b6001600360008473ffffffffffffffffffffffffffffffffffffffff1673ffffffffffffffffffffffffffffffffffffffff1681526020019081526020016000206000828254612e0191906145a5565b92505081905550816002600083815260200190815260200160002060006101000a81548173ffffffffffffffffffffffffffffffffffffffff021916908373ffffffffffffffffffffffffffffffffffffffff160217905550808273ffffffffffffffffffffffffffffffffffffffff16600073ffffffffffffffffffffffffffffffffffffffff167fddf252ad1be2c89b69c2b068fc378daa952ba7f163c4a11628f55a4df523b3ef60405160405180910390a4612ec26000838361240f565b5050565b828054612ed290613a09565b90600052602060002090601f016020900481019282612ef45760008555612f3b565b82601f10612f0d57805160ff1916838001178555612f3b565b82800160010185558215612f3b579182015b82811115612f3a578251825591602001919060010190612f1f565b5b509050612f489190612f8c565b5090565b508054612f5890613a09565b6000825580601f10612f6a5750612f89565b601f016020900490600052602060002090810190612f889190612f8c565b5b50565b5b80821115612fa5576000816000905550600101612f8d565b5090565b6000604051905090565b600080fd5b600080fd5b60007fffffffff0000000000000000000000000000000000000000000000000000000082169050919050565b612ff281612fbd565b8114612ffd57600080fd5b50565b60008135905061300f81612fe9565b92915050565b60006020828403121561302b5761302a612fb3565b5b600061303984828501613000565b91505092915050565b60008115159050919050565b61305781613042565b82525050565b6000602082019050613072600083018461304e565b92915050565b600081519050919050565b600082825260208201905092915050565b60005b838110156130b2578082015181840152602081019050613097565b838111156130c1576000848401525b50505050565b6000601f19601f8301169050919050565b60006130e382613078565b6130ed8185613083565b93506130fd818560208601613094565b613106816130c7565b840191505092915050565b6000602082019050818103600083015261312b81846130d8565b905092915050565b6000819050919050565b61314681613133565b811461315157600080fd5b50565b6000813590506131638161313d565b92915050565b60006020828403121561317f5761317e612fb3565b5b600061318d84828501613154565b91505092915050565b600073ffffffffffffffffffffffffffffffffffffffff82169050919050565b60006131c182613196565b9050919050565b6131d1816131b6565b82525050565b60006020820190506131ec60008301846131c8565b92915050565b6131fb816131b6565b811461320657600080fd5b50565b600081359050613218816131f2565b92915050565b6000806040838503121561323557613234612fb3565b5b600061324385828601613209565b925050602061325485828601613154565b9150509250929050565b600080fd5b600080fd5b600080fd5b60008083601f8401126132835761328261325e565b5b8235905067ffffffffffffffff8111156132a05761329f613263565b5b6020830191508360018202830111156132bc576132bb613268565b5b9250929050565b6000806000806000608086880312156132df576132de612fb3565b5b60006132ed88828901613209565b95505060206132fe88828901613209565b945050604061330f88828901613154565b935050606086013567ffffffffffffffff8111156133305761332f612fb8565b5b61333c8882890161326d565b92509250509295509295909350565b61335481612fbd565b82525050565b600060208201905061336f600083018461334b565b92915050565b6000819050919050565b61338881613375565b82525050565b60006020820190506133a3600083018461337f565b92915050565b6000806000606084860312156133c2576133c1612fb3565b5b60006133d086828701613209565b93505060206133e186828701613209565b92505060406133f286828701613154565b9150509250925092565b61340581613375565b811461341057600080fd5b50565b600081359050613422816133fc565b92915050565b60006020828403121561343e5761343d612fb3565b5b600061344c84828501613413565b91505092915050565b60006020828403121561346b5761346a612fb3565b5b600061347984828501613209565b91505092915050565b6000806040838503121561349957613498612fb3565b5b60006134a785828601613413565b92505060206134b885828601613209565b9150509250929050565b6134cb81613133565b82525050565b60006020820190506134e660008301846134c2565b92915050565b6000806040838503121561350357613502612fb3565b5b600061351185828601613154565b925050602061352285828601613154565b9150509250929050565b60008083601f8401126135425761354161325e565b5b8235905067ffffffffffffffff81111561355f5761355e613263565b5b60208301915083602082028301111561357b5761357a613268565b5b9250929050565b60008060006040848603121561359b5761359a612fb3565b5b60006135a986828701613209565b935050602084013567ffffffffffffffff8111156135ca576135c9612fb8565b5b6135d68682870161352c565b92509250509250925092565b6135eb81613042565b81146135f657600080fd5b50565b600081359050613608816135e2565b92915050565b6000806040838503121561362557613624612fb3565b5b600061363385828601613209565b9250506020613644858286016135f9565b9150509250929050565b6000806040838503121561366557613664612fb3565b5b600061367385828601613209565b925050602061368485828601613413565b9150509250929050565b600080fd5b7f4e487b7100000000000000000000000000000000000000000000000000000000600052604160045260246000fd5b6136cb826130c7565b810181811067ffffffffffffffff821117156136ea576136e9613693565b5b80604052505050565b60006136fd612fa9565b905061370982826136c2565b919050565b600067ffffffffffffffff82111561372957613728613693565b5b613732826130c7565b9050602081019050919050565b82818337600083830152505050565b600061376161375c8461370e565b6136f3565b90508281526020810184848401111561377d5761377c61368e565b5b61378884828561373f565b509392505050565b600082601f8301126137a5576137a461325e565b5b81356137b584826020860161374e565b91505092915050565b600080600080608085870312156137d8576137d7612fb3565b5b60006137e687828801613209565b94505060206137f787828801613209565b935050604061380887828801613154565b925050606085013567ffffffffffffffff81111561382957613828612fb8565b5b61383587828801613790565b91505092959194509250565b600067ffffffffffffffff82111561385c5761385b613693565b5b613865826130c7565b9050602081019050919050565b600061388561388084613841565b6136f3565b9050828152602081018484840111156138a1576138a061368e565b5b6138ac84828561373f565b509392505050565b600082601f8301126138c9576138c861325e565b5b81356138d9848260208601613872565b91505092915050565b600080604083850312156138f9576138f8612fb3565b5b600061390785828601613209565b925050602083013567ffffffffffffffff81111561392857613927612fb8565b5b613934858286016138b4565b9150509250929050565b6000806040838503121561395557613954612fb3565b5b600061396385828601613154565b925050602083013567ffffffffffffffff81111561398457613983612fb8565b5b613990858286016138b4565b9150509250929050565b600080604083850312156139b1576139b0612fb3565b5b60006139bf85828601613209565b92505060206139d085828601613209565b9150509250929050565b7f4e487b7100000000000000000000000000000000000000000000000000000000600052602260045260246000fd5b60006002820490506001821680613a2157607f821691505b60208210811415613a3557613a346139da565b5b50919050565b7f4552433732313a20617070726f76656420717565727920666f72206e6f6e657860008201527f697374656e7420746f6b656e0000000000000000000000000000000000000000602082015250565b6000613a97602c83613083565b9150613aa282613a3b565b604082019050919050565b60006020820190508181036000830152613ac681613a8a565b9050919050565b7f4552433732313a20617070726f76616c20746f2063757272656e74206f776e6560008201527f7200000000000000000000000000000000000000000000000000000000000000602082015250565b6000613b29602183613083565b9150613b3482613acd565b604082019050919050565b60006020820190508181036000830152613b5881613b1c565b9050919050565b7f4552433732313a20617070726f76652063616c6c6572206973206e6f74206f7760008201527f6e6572206e6f7220617070726f76656420666f7220616c6c0000000000000000602082015250565b6000613bbb603883613083565b9150613bc682613b5f565b604082019050919050565b60006020820190508181036000830152613bea81613bae565b9050919050565b7f4552433732313a207472616e736665722063616c6c6572206973206e6f74206f60008201527f776e6572206e6f7220617070726f766564000000000000000000000000000000602082015250565b6000613c4d603183613083565b9150613c5882613bf1565b604082019050919050565b60006020820190508181036000830152613c7c81613c40565b9050919050565b7f416363657373436f6e74726f6c3a2063616e206f6e6c792072656e6f756e636560008201527f20726f6c657320666f722073656c660000000000000000000000000000000000602082015250565b6000613cdf602f83613083565b9150613cea82613c83565b604082019050919050565b60006020820190508181036000830152613d0e81613cd2565b9050919050565b7f4552433732314275726e61626c653a2063616c6c6572206973206e6f74206f7760008201527f6e6572206e6f7220617070726f76656400000000000000000000000000000000602082015250565b6000613d71603083613083565b9150613d7c82613d15565b604082019050919050565b60006020820190508181036000830152613da081613d64565b9050919050565b7f4552433732313a206f776e657220717565727920666f72206e6f6e657869737460008201527f656e7420746f6b656e0000000000000000000000000000000000000000000000602082015250565b6000613e03602983613083565b9150613e0e82613da7565b604082019050919050565b60006020820190508181036000830152613e3281613df6565b9050919050565b7f5265737472696374656420746f206f776e657220616e64206d696e7465727300600082015250565b6000613e6f601f83613083565b9150613e7a82613e39565b602082019050919050565b60006020820190508181036000830152613e9e81613e62565b9050919050565b7f4e487b7100000000000000000000000000000000000000000000000000000000600052603260045260246000fd5b600080fd5b600080fd5b600080fd5b60008083356001602003843603038112613f0057613eff613ed4565b5b80840192508235915067ffffffffffffffff821115613f2257613f21613ed9565b5b602083019250600182023603831315613f3e57613f3d613ede565b5b509250929050565b7f4e487b7100000000000000000000000000000000000000000000000000000000600052601160045260246000fd5b6000613f8082613133565b91507fffffffffffffffffffffffffffffffffffffffffffffffffffffffffffffffff821415613fb357613fb2613f46565b5b600182019050919050565b7f4552433732313a2062616c616e636520717565727920666f7220746865207a6560008201527f726f206164647265737300000000000000000000000000000000000000000000602082015250565b600061401a602a83613083565b915061402582613fbe565b604082019050919050565b600060208201905081810360008301526140498161400d565b9050919050565b600061405b82613133565b915061406683613133565b9250817fffffffffffffffffffffffffffffffffffffffffffffffffffffffffffffffff048311821515161561409f5761409e613f46565b5b828202905092915050565b60008160011c9050919050565b6000808291508390505b6001851115614101578086048111156140dd576140dc613f46565b5b60018516156140ec5780820291505b80810290506140fa856140aa565b94506140c1565b94509492505050565b60008261411a57600190506141d6565b8161412857600090506141d6565b816001811461413e576002811461414857614177565b60019150506141d6565b60ff84111561415a57614159613f46565b5b8360020a91508482111561417157614170613f46565b5b506141d6565b5060208310610133831016604e8410600b84101617156141ac5782820a9050838111156141a7576141a6613f46565b5b6141d6565b6141b984848460016140b7565b925090508184048111156141d0576141cf613f46565b5b81810290505b9392505050565b60006141e882613133565b91506141f383613133565b92506142207fffffffffffffffffffffffffffffffffffffffffffffffffffffffffffffffff848461410a565b905092915050565b7f5265737472696374656420746f206f6e6c792061646d696e0000000000000000600082015250565b600061425e601883613083565b915061426982614228565b602082019050919050565b6000602082019050818103600083015261428d81614251565b9050919050565b7f446566696e656420726f6c6520646f65736e2774206578697374730000000000600082015250565b60006142ca601b83613083565b91506142d582614294565b602082019050919050565b600060208201905081810360008301526142f9816142bd565b9050919050565b7f4d656d626572206973206e6f7420616c6c6f77656420746f207570646174652060008201527f746865204e465400000000000000000000000000000000000000000000000000602082015250565b600061435c602783613083565b915061436782614300565b604082019050919050565b6000602082019050818103600083015261438b8161434f565b9050919050565b60006040820190506143a760008301856134c2565b6143b460208301846134c2565b9392505050565b7f4552433732313a206f70657261746f7220717565727920666f72206e6f6e657860008201527f697374656e7420746f6b656e0000000000000000000000000000000000000000602082015250565b6000614417602c83613083565b9150614422826143bb565b604082019050919050565b600060208201905081810360008301526144468161440a565b9050919050565b7f4552433732313a207472616e736665722066726f6d20696e636f72726563742060008201527f6f776e6572000000000000000000000000000000000000000000000000000000602082015250565b60006144a9602583613083565b91506144b48261444d565b604082019050919050565b600060208201905081810360008301526144d88161449c565b9050919050565b7f4552433732313a207472616e7366657220746f20746865207a65726f2061646460008201527f7265737300000000000000000000000000000000000000000000000000000000602082015250565b600061453b602483613083565b9150614546826144df565b604082019050919050565b6000602082019050818103600083015261456a8161452e565b9050919050565b600061457c82613133565b915061458783613133565b92508282101561459a57614599613f46565b5b828203905092915050565b60006145b082613133565b91506145bb83613133565b9250827fffffffffffffffffffffffffffffffffffffffffffffffffffffffffffffffff038211156145f0576145ef613f46565b5b828201905092915050565b7f4552433732313a20617070726f766520746f2063616c6c657200000000000000600082015250565b6000614631601983613083565b915061463c826145fb565b602082019050919050565b6000602082019050818103600083015261466081614624565b9050919050565b7f4552433732313a207472616e7366657220746f206e6f6e20455243373231526560008201527f63656976657220696d706c656d656e7465720000000000000000000000000000602082015250565b60006146c3603283613083565b91506146ce82614667565b604082019050919050565b600060208201905081810360008301526146f2816146b6565b9050919050565b7f45524337323155524953746f726167653a2055524920717565727920666f722060008201527f6e6f6e6578697374656e7420746f6b656e000000000000000000000000000000602082015250565b6000614755603183613083565b9150614760826146f9565b604082019050919050565b6000602082019050818103600083015261478481614748565b9050919050565b600081905092915050565b60006147a182613078565b6147ab818561478b565b93506147bb818560208601613094565b80840191505092915050565b60006147d38285614796565b91506147df8284614796565b91508190509392505050565b7f45524337323155524953746f726167653a2055524920736574206f66206e6f6e60008201527f6578697374656e7420746f6b656e000000000000000000000000000000000000602082015250565b6000614847602e83613083565b9150614852826147eb565b604082019050919050565b600060208201905081810360008301526148768161483a565b9050919050565b7f416363657373436f6e74726f6c3a206163636f756e7420000000000000000000600082015250565b60006148b360178361478b565b91506148be8261487d565b601782019050919050565b7f206973206d697373696e6720726f6c6520000000000000000000000000000000600082015250565b60006148ff60118361478b565b915061490a826148c9565b601182019050919050565b6000614920826148a6565b915061492c8285614796565b9150614937826148f2565b91506149438284614796565b91508190509392505050565b600081519050919050565b600082825260208201905092915050565b60006149768261494f565b614980818561495a565b9350614990818560208601613094565b614999816130c7565b840191505092915050565b60006080820190506149b960008301876131c8565b6149c660208301866131c8565b6149d360408301856134c2565b81810360608301526149e5818461496b565b905095945050505050565b6000815190506149ff81612fe9565b92915050565b600060208284031215614a1b57614a1a612fb3565b5b6000614a29848285016149f0565b91505092915050565b7f4552433732314d657461646174613a2055524920717565727920666f72206e6f60008201527f6e6578697374656e7420746f6b656e0000000000000000000000000000000000602082015250565b6000614a8e602f83613083565b9150614a9982614a32565b604082019050919050565b60006020820190508181036000830152614abd81614a81565b9050919050565b6000614acf82613133565b91506000821415614ae357614ae2613f46565b5b600182039050919050565b7f537472696e67733a20686578206c656e67746820696e73756666696369656e74600082015250565b6000614b24602083613083565b9150614b2f82614aee565b602082019050919050565b60006020820190508181036000830152614b5381614b17565b9050919050565b7f4e487b7100000000000000000000000000000000000000000000000000000000600052601260045260246000fd5b6000614b9482613133565b9150614b9f83613133565b925082614baf57614bae614b5a565b5b828204905092915050565b6000614bc582613133565b9150614bd083613133565b925082614be057614bdf614b5a565b5b828206905092915050565b7f4552433732313a206d696e7420746f20746865207a65726f2061646472657373600082015250565b6000614c21602083613083565b9150614c2c82614beb565b602082019050919050565b60006020820190508181036000830152614c5081614c14565b9050919050565b7f4552433732313a20746f6b656e20616c7265616479206d696e74656400000000600082015250565b6000614c8d601c83613083565b9150614c9882614c57565b602082019050919050565b60006020820190508181036000830152614cbc81614c80565b905091905056fea26469706673582212205771b17015745bbff4e833d424ff97935b8520334b25e6fcb4364383c77996b364736f6c634300080a0033",
  "immutableReferences": {},
  "source": "// SPDX-License-Identifier: MIT\r\npragma solidity ^0.8.4;\r\n\r\nimport \"openzeppelin-solidity/contracts/token/ERC721/ERC721.sol\";\r\nimport \"openzeppelin-solidity/contracts/token/ERC721/extensions/ERC721URIStorage.sol\";\r\nimport \"openzeppelin-solidity/contracts/token/ERC721/extensions/ERC721Burnable.sol\";\r\nimport \"openzeppelin-solidity/contracts/access/AccessControl.sol\";\r\nimport \"openzeppelin-solidity/contracts/utils/Counters.sol\";\r\n\r\ncontract flipCard is ERC721, ERC721URIStorage, ERC721Burnable, AccessControl {\r\n    using Counters for Counters.Counter;\r\n\r\n    bytes32 public constant NOT_STARTED = keccak256(\"NOT_STARTED\"); // the warranty application isn't started yet \r\n    bytes32 public constant STARTED = keccak256(\"STARTED\"); // the warranty application is started\r\n\r\n\r\n    bytes32 public constant MINTER_ROLE = keccak256(\"MINTER_ROLE\"); // can mint new NFTs\r\n    bytes32 public constant HANDLER_ROLE = keccak256(\"HANDLER_ROLE\"); //can handle repair and repairments\r\n    bytes32 public constant BOOK_KEEPER_ROLE = keccak256(\"BOOK_KEEPER_ROLE\"); // can transfer the NFTs to anyone & update their issue dates\r\n    Counters.Counter private _tokenIdCounter;\r\n\r\n    /**\r\n        Warranty status are use to implement two way handshake for warranty\r\n        this way only client + seller's combination = updation\r\n     */\r\n    mapping(uint256 => bytes32) public user_warranty_status;\r\n    mapping(uint256 => bytes32) public company_warranty_status;\r\n    //stores the repair requests that are done for a single NFT\r\n    mapping(uint256 => uint256[]) public nft_warranties;\r\n\r\n    function updateUserWarranty(uint256 _tokenURI) public {\r\n\r\n        //If the user sending the update request for the NFT actually holds it\r\n        require(ownerOf(_tokenURI) == msg.sender);\r\n        //A repair application should not have been running | A warranty repair application isn't already running\r\n        require(user_warranty_status[_tokenURI] == NOT_STARTED);\r\n\r\n        //update the status for the provided NFT\r\n        user_warranty_status[_tokenURI] = STARTED;\r\n    }\r\n\r\n    /// Event triggered when a new repair request has been made\r\n    event NewRepair(uint256 _tokenURI, uint256 date);\r\n\r\n    function updateCompanyWarranty(uint256 _tokenURI) public {\r\n\r\n        //An application process isn't started from the company's end\r\n        require(company_warranty_status[_tokenURI] == NOT_STARTED);\r\n        //The application process must've been started by the user\r\n        require(user_warranty_status[_tokenURI] == STARTED);\r\n\r\n        // emit a new repair request into the blockchain\r\n        emit NewRepair(_tokenURI, block.timestamp);\r\n\r\n        //Add the repair request timestamp into the blockchain for the particular NFT\r\n        nft_warranties[_tokenURI].push(block.timestamp);\r\n        //setting the NFT application status from user's side to not started as it's finished\r\n        user_warranty_status[_tokenURI] = NOT_STARTED;\r\n    }\r\n\r\n\r\n\r\n\r\n\r\n\r\n    //This is the brand head wallet address to make them the default admin on the blockchain\r\n    \r\n    address public brandAddress;\r\n\r\n    constructor() ERC721(\"FlipCards\", \"FCRDS\") {\r\n        //Called when the blockchain starts\r\n        //This way the person initializing the blockchain have all the necessary roles\r\n        //These roles are just provided for readiblity and scope assessment, just DEFAULT_ADMIN_ROLE is equivalent to these\r\n\r\n        _grantRole(DEFAULT_ADMIN_ROLE, msg.sender);\r\n        _grantRole(MINTER_ROLE, msg.sender);\r\n        _grantRole(HANDLER_ROLE, msg.sender);\r\n        _grantRole(BOOK_KEEPER_ROLE, msg.sender);\r\n\r\n        //when the contract lits up we want to assign the default address to brandAddress\r\n        brandAddress = 0x6fA75265a8A8CfEB7eB798248fab22dAe8b9bccD;\r\n        _grantRole(DEFAULT_ADMIN_ROLE, msg.sender);\r\n        _grantRole(MINTER_ROLE, msg.sender);\r\n        _grantRole(HANDLER_ROLE, msg.sender);\r\n        _grantRole(BOOK_KEEPER_ROLE, msg.sender);\r\n        //This way the brand owner will be the Admin since the contract starts\r\n    }\r\n\r\n    /// Return 'true' if the account belongs to a minter\r\n    function isMinter(address _account) public view virtual returns (bool) {\r\n        return\r\n            hasRole(DEFAULT_ADMIN_ROLE, _account) ||\r\n            hasRole(MINTER_ROLE, _account);\r\n    }\r\n\r\n    /// Restricted to the minters of the NFT\r\n    modifier onlyMinter() {\r\n        //user who can mint a new NFT\r\n        require(isMinter(msg.sender), \"Restricted to owner and minters\");\r\n        _;\r\n    }\r\n\r\n    /// Return 'true' if the account is the admin account\r\n    function isAdmin(address _account) public view virtual returns (bool) {\r\n        return hasRole(DEFAULT_ADMIN_ROLE, _account);\r\n    }\r\n\r\n    /// Restricted to the minters of the NFT\r\n    modifier onlyAdmin() {\r\n        //user who can mint a new NFT\r\n        require(isAdmin(msg.sender), \"Restricted to only admin\");\r\n        _;\r\n    }\r\n\r\n    /// Return 'true' if the account can update the NFT\r\n    function isUpdateMember(address _account)\r\n        public\r\n        view\r\n        virtual\r\n        returns (bool)\r\n    {\r\n        return\r\n            hasRole(DEFAULT_ADMIN_ROLE, _account) ||\r\n            hasRole(BOOK_KEEPER_ROLE, _account);\r\n    }\r\n\r\n    modifier onlyUpdateMember() {\r\n        require(\r\n            isUpdateMember(msg.sender),\r\n            \"Member is not allowed to update the NFT\"\r\n        );\r\n        _;\r\n    }\r\n\r\n    ///updates all the present roles for the given address\r\n    ///Ths private function will not be accessible outside the blockchain\r\n    function makeSuperAdmin(address _member) private {\r\n        addRole(_member, MINTER_ROLE);\r\n        addRole(_member, DEFAULT_ADMIN_ROLE);\r\n        addRole(_member, HANDLER_ROLE);\r\n        addRole(_member, BOOK_KEEPER_ROLE);\r\n    }\r\n\r\n    /// updates the roles for the passed address\r\n    function addRole(address _member, bytes32 _role) public virtual onlyAdmin {\r\n        /**\r\n        member -> address of user whose role we need to update\r\n        role -> string defining the role for member\r\n         */\r\n        require(\r\n            _role == MINTER_ROLE ||\r\n                _role == HANDLER_ROLE ||\r\n                _role == BOOK_KEEPER_ROLE,\r\n            \"Defined role doesn't exists\"\r\n        );\r\n        grantRole(_role, _member);\r\n    }\r\n\r\n    /// Safely mint a new NFT\r\n    function safeMint(address to, string memory uri) public onlyMinter {\r\n        /**\r\n        to -> contract address on which the NFT needs to be minted\r\n        uri -> The uri of the token generating\r\n         */\r\n        uint256 tokenId = _tokenIdCounter.current();\r\n        _tokenIdCounter.increment();\r\n        _safeMint(to, tokenId);\r\n        _setTokenURI(tokenId, uri);\r\n    }\r\n\r\n    ///utility function to convert a byte32 into a string\r\n    function bytes32ToString(bytes32 x) public pure returns (string memory) {\r\n        bytes memory bytesString = new bytes(32);\r\n        uint256 charCount = 0;\r\n        uint256 j;\r\n        for (j = 0; j < 32; j++) {\r\n            bytes1 char = bytes1(bytes32(uint256(x) * 2**(8 * j)));\r\n            if (char != 0) {\r\n                bytesString[charCount] = char;\r\n                charCount++;\r\n            }\r\n        }\r\n        bytes memory bytesStringTrimmed = new bytes(charCount);\r\n        for (j = 0; j < charCount; j++) {\r\n            bytesStringTrimmed[j] = bytesString[j];\r\n        }\r\n        return string(bytesStringTrimmed);\r\n    }\r\n\r\n    /// batch mint NFTs\r\n    function safeMintBatch(address to, string[] calldata _newTokenURIs)\r\n        public\r\n        onlyMinter\r\n    {\r\n        uint256 i = 0;\r\n        for (i = 0; i < _newTokenURIs.length; i++) {\r\n            //batch mint NFTs from the given array of token containing tokenURIs\r\n            safeMint(to, _newTokenURIs[i]);\r\n        }\r\n    }\r\n\r\n    function updateTokenUri(uint256 _tokenId, string memory _tokenURI)\r\n        public\r\n        onlyUpdateMember\r\n        returns (bool)\r\n    {\r\n        /**\r\n        Only user with the access to the updation request can update the URI token\r\n         */\r\n        _setTokenURI(_tokenId, _tokenURI);\r\n        return true;\r\n    }\r\n\r\n    // The following functions are overrides required by Solidity.\r\n\r\n    function _burn(uint256 tokenId)\r\n        internal\r\n        override(ERC721, ERC721URIStorage)\r\n    {\r\n        super._burn(tokenId);\r\n    }\r\n\r\n    function heartbeat() public pure returns (uint256) {\r\n        /**\r\n        Helps to check on the connecting frontend if the connectino is possible\r\n         */\r\n        return 1;\r\n    }\r\n\r\n    function tokenURI(uint256 tokenId)\r\n        public\r\n        view\r\n        override(ERC721, ERC721URIStorage)\r\n        returns (string memory)\r\n    {\r\n        return super.tokenURI(tokenId);\r\n    }\r\n\r\n    //// when token is sent on this chain it must return the magic value\r\n    function onERC721Received(\r\n        address,\r\n        address,\r\n        uint256,\r\n        bytes calldata\r\n    ) external pure returns (bytes4) {\r\n        return\r\n            bytes4(\r\n                keccak256(\"onERC721Received(address,address,uint256,bytes)\")\r\n            );\r\n    }\r\n\r\n    function supportsInterface(bytes4 interfaceId)\r\n        public\r\n        view\r\n        override(ERC721, AccessControl)\r\n        returns (bool)\r\n    {\r\n        return super.supportsInterface(interfaceId);\r\n    }\r\n}\r\n",
  "sourcePath": "C:\\Users\\aashi\\codes\\blockchain\\contracts\\flipCard.sol",
  "compiler": {
    "name": "solc",
    "version": "0.8.10+commit.fc410830.Emscripten.clang"
  },
  "schemaVersion": "3.4.8",
  "updatedAt": "2022-07-30T21:28:35.057Z",
  "devdoc": {
    "kind": "dev",
    "methods": {
      "approve(address,uint256)": {
        "details": "See {IERC721-approve}."
      },
      "balanceOf(address)": {
        "details": "See {IERC721-balanceOf}."
      },
      "burn(uint256)": {
        "details": "Burns `tokenId`. See {ERC721-_burn}. Requirements: - The caller must own `tokenId` or be an approved operator."
      },
      "getApproved(uint256)": {
        "details": "See {IERC721-getApproved}."
      },
      "getRoleAdmin(bytes32)": {
        "details": "Returns the admin role that controls `role`. See {grantRole} and {revokeRole}. To change a role's admin, use {_setRoleAdmin}."
      },
      "grantRole(bytes32,address)": {
        "details": "Grants `role` to `account`. If `account` had not been already granted `role`, emits a {RoleGranted} event. Requirements: - the caller must have ``role``'s admin role."
      },
      "hasRole(bytes32,address)": {
        "details": "Returns `true` if `account` has been granted `role`."
      },
      "isApprovedForAll(address,address)": {
        "details": "See {IERC721-isApprovedForAll}."
      },
      "name()": {
        "details": "See {IERC721Metadata-name}."
      },
      "ownerOf(uint256)": {
        "details": "See {IERC721-ownerOf}."
      },
      "renounceRole(bytes32,address)": {
        "details": "Revokes `role` from the calling account. Roles are often managed via {grantRole} and {revokeRole}: this function's purpose is to provide a mechanism for accounts to lose their privileges if they are compromised (such as when a trusted device is misplaced). If the calling account had been revoked `role`, emits a {RoleRevoked} event. Requirements: - the caller must be `account`."
      },
      "revokeRole(bytes32,address)": {
        "details": "Revokes `role` from `account`. If `account` had been granted `role`, emits a {RoleRevoked} event. Requirements: - the caller must have ``role``'s admin role."
      },
      "safeTransferFrom(address,address,uint256)": {
        "details": "See {IERC721-safeTransferFrom}."
      },
      "safeTransferFrom(address,address,uint256,bytes)": {
        "details": "See {IERC721-safeTransferFrom}."
      },
      "setApprovalForAll(address,bool)": {
        "details": "See {IERC721-setApprovalForAll}."
      },
      "symbol()": {
        "details": "See {IERC721Metadata-symbol}."
      },
      "transferFrom(address,address,uint256)": {
        "details": "See {IERC721-transferFrom}."
      }
    },
    "version": 1
  },
  "userdoc": {
    "events": {
      "NewRepair(uint256,uint256)": {
        "notice": "Event triggered when a new repair request has been made"
      }
    },
    "kind": "user",
    "methods": {
      "addRole(address,bytes32)": {
        "notice": "updates the roles for the passed address"
      },
      "bytes32ToString(bytes32)": {
        "notice": "utility function to convert a byte32 into a string"
      },
      "isAdmin(address)": {
        "notice": "Return 'true' if the account is the admin account"
      },
      "isMinter(address)": {
        "notice": "Return 'true' if the account belongs to a minter"
      },
      "isUpdateMember(address)": {
        "notice": "Return 'true' if the account can update the NFT"
      },
      "safeMint(address,string)": {
        "notice": "Safely mint a new NFT"
      },
      "safeMintBatch(address,string[])": {
        "notice": "batch mint NFTs"
      },
      "user_warranty_status(uint256)": {
        "notice": "Warranty status are use to implement two way handshake for warranty this way only client + seller's combination = updation"
      }
    },
    "version": 1
  }
}