{
  "contractName": "flipCard",
  "abi": [
    {
      "inputs": [],
      "stateMutability": "nonpayable",
      "type": "constructor"
    },
    {
      "anonymous": false,
      "inputs": [
        {
          "indexed": true,
          "internalType": "address",
          "name": "owner",
          "type": "address"
        },
        {
          "indexed": true,
          "internalType": "address",
          "name": "approved",
          "type": "address"
        },
        {
          "indexed": true,
          "internalType": "uint256",
          "name": "tokenId",
          "type": "uint256"
        }
      ],
      "name": "Approval",
      "type": "event"
    },
    {
      "anonymous": false,
      "inputs": [
        {
          "indexed": true,
          "internalType": "address",
          "name": "owner",
          "type": "address"
        },
        {
          "indexed": true,
          "internalType": "address",
          "name": "operator",
          "type": "address"
        },
        {
          "indexed": false,
          "internalType": "bool",
          "name": "approved",
          "type": "bool"
        }
      ],
      "name": "ApprovalForAll",
      "type": "event"
    },
    {
      "anonymous": false,
      "inputs": [
        {
          "indexed": false,
          "internalType": "uint256",
          "name": "_tokenURI",
          "type": "uint256"
        },
        {
          "indexed": false,
          "internalType": "uint256",
          "name": "date",
          "type": "uint256"
        }
      ],
      "name": "NewRepair",
      "type": "event"
    },
    {
      "anonymous": false,
      "inputs": [
        {
          "indexed": true,
          "internalType": "bytes32",
          "name": "role",
          "type": "bytes32"
        },
        {
          "indexed": true,
          "internalType": "bytes32",
          "name": "previousAdminRole",
          "type": "bytes32"
        },
        {
          "indexed": true,
          "internalType": "bytes32",
          "name": "newAdminRole",
          "type": "bytes32"
        }
      ],
      "name": "RoleAdminChanged",
      "type": "event"
    },
    {
      "anonymous": false,
      "inputs": [
        {
          "indexed": true,
          "internalType": "bytes32",
          "name": "role",
          "type": "bytes32"
        },
        {
          "indexed": true,
          "internalType": "address",
          "name": "account",
          "type": "address"
        },
        {
          "indexed": true,
          "internalType": "address",
          "name": "sender",
          "type": "address"
        }
      ],
      "name": "RoleGranted",
      "type": "event"
    },
    {
      "anonymous": false,
      "inputs": [
        {
          "indexed": true,
          "internalType": "bytes32",
          "name": "role",
          "type": "bytes32"
        },
        {
          "indexed": true,
          "internalType": "address",
          "name": "account",
          "type": "address"
        },
        {
          "indexed": true,
          "internalType": "address",
          "name": "sender",
          "type": "address"
        }
      ],
      "name": "RoleRevoked",
      "type": "event"
    },
    {
      "anonymous": false,
      "inputs": [
        {
          "indexed": true,
          "internalType": "address",
          "name": "from",
          "type": "address"
        },
        {
          "indexed": true,
          "internalType": "address",
          "name": "to",
          "type": "address"
        },
        {
          "indexed": true,
          "internalType": "uint256",
          "name": "tokenId",
          "type": "uint256"
        }
      ],
      "name": "Transfer",
      "type": "event"
    },
    {
      "inputs": [],
      "name": "BOOK_KEEPER_ROLE",
      "outputs": [
        {
          "internalType": "bytes32",
          "name": "",
          "type": "bytes32"
        }
      ],
      "stateMutability": "view",
      "type": "function"
    },
    {
      "inputs": [],
      "name": "DEFAULT_ADMIN_ROLE",
      "outputs": [
        {
          "internalType": "bytes32",
          "name": "",
          "type": "bytes32"
        }
      ],
      "stateMutability": "view",
      "type": "function"
    },
    {
      "inputs": [],
      "name": "HANDLER_ROLE",
      "outputs": [
        {
          "internalType": "bytes32",
          "name": "",
          "type": "bytes32"
        }
      ],
      "stateMutability": "view",
      "type": "function"
    },
    {
      "inputs": [],
      "name": "MINTER_ROLE",
      "outputs": [
        {
          "internalType": "bytes32",
          "name": "",
          "type": "bytes32"
        }
      ],
      "stateMutability": "view",
      "type": "function"
    },
    {
      "inputs": [],
      "name": "NOT_STARTED",
      "outputs": [
        {
          "internalType": "bytes32",
          "name": "",
          "type": "bytes32"
        }
      ],
      "stateMutability": "view",
      "type": "function"
    },
    {
      "inputs": [],
      "name": "STARTED",
      "outputs": [
        {
          "internalType": "bytes32",
          "name": "",
          "type": "bytes32"
        }
      ],
      "stateMutability": "view",
      "type": "function"
    },
    {
      "inputs": [
        {
          "internalType": "address",
          "name": "to",
          "type": "address"
        },
        {
          "internalType": "uint256",
          "name": "tokenId",
          "type": "uint256"
        }
      ],
      "name": "approve",
      "outputs": [],
      "stateMutability": "nonpayable",
      "type": "function"
    },
    {
      "inputs": [
        {
          "internalType": "address",
          "name": "owner",
          "type": "address"
        }
      ],
      "name": "balanceOf",
      "outputs": [
        {
          "internalType": "uint256",
          "name": "",
          "type": "uint256"
        }
      ],
      "stateMutability": "view",
      "type": "function"
    },
    {
      "inputs": [],
      "name": "brandAddress",
      "outputs": [
        {
          "internalType": "address",
          "name": "",
          "type": "address"
        }
      ],
      "stateMutability": "view",
      "type": "function"
    },
    {
      "inputs": [
        {
          "internalType": "uint256",
          "name": "tokenId",
          "type": "uint256"
        }
      ],
      "name": "burn",
      "outputs": [],
      "stateMutability": "nonpayable",
      "type": "function"
    },
    {
      "inputs": [
        {
          "internalType": "uint256",
          "name": "tokenId",
          "type": "uint256"
        }
      ],
      "name": "getApproved",
      "outputs": [
        {
          "internalType": "address",
          "name": "",
          "type": "address"
        }
      ],
      "stateMutability": "view",
      "type": "function"
    },
    {
      "inputs": [
        {
          "internalType": "bytes32",
          "name": "role",
          "type": "bytes32"
        }
      ],
      "name": "getRoleAdmin",
      "outputs": [
        {
          "internalType": "bytes32",
          "name": "",
          "type": "bytes32"
        }
      ],
      "stateMutability": "view",
      "type": "function"
    },
    {
      "inputs": [
        {
          "internalType": "bytes32",
          "name": "role",
          "type": "bytes32"
        },
        {
          "internalType": "address",
          "name": "account",
          "type": "address"
        }
      ],
      "name": "grantRole",
      "outputs": [],
      "stateMutability": "nonpayable",
      "type": "function"
    },
    {
      "inputs": [
        {
          "internalType": "bytes32",
          "name": "role",
          "type": "bytes32"
        },
        {
          "internalType": "address",
          "name": "account",
          "type": "address"
        }
      ],
      "name": "hasRole",
      "outputs": [
        {
          "internalType": "bool",
          "name": "",
          "type": "bool"
        }
      ],
      "stateMutability": "view",
      "type": "function"
    },
    {
      "inputs": [
        {
          "internalType": "address",
          "name": "owner",
          "type": "address"
        },
        {
          "internalType": "address",
          "name": "operator",
          "type": "address"
        }
      ],
      "name": "isApprovedForAll",
      "outputs": [
        {
          "internalType": "bool",
          "name": "",
          "type": "bool"
        }
      ],
      "stateMutability": "view",
      "type": "function"
    },
    {
      "inputs": [],
      "name": "name",
      "outputs": [
        {
          "internalType": "string",
          "name": "",
          "type": "string"
        }
      ],
      "stateMutability": "view",
      "type": "function"
    },
    {
      "inputs": [
        {
          "internalType": "uint256",
          "name": "tokenId",
          "type": "uint256"
        }
      ],
      "name": "ownerOf",
      "outputs": [
        {
          "internalType": "address",
          "name": "",
          "type": "address"
        }
      ],
      "stateMutability": "view",
      "type": "function"
    },
    {
      "inputs": [
        {
          "internalType": "bytes32",
          "name": "role",
          "type": "bytes32"
        },
        {
          "internalType": "address",
          "name": "account",
          "type": "address"
        }
      ],
      "name": "renounceRole",
      "outputs": [],
      "stateMutability": "nonpayable",
      "type": "function"
    },
    {
      "inputs": [
        {
          "internalType": "bytes32",
          "name": "role",
          "type": "bytes32"
        },
        {
          "internalType": "address",
          "name": "account",
          "type": "address"
        }
      ],
      "name": "revokeRole",
      "outputs": [],
      "stateMutability": "nonpayable",
      "type": "function"
    },
    {
      "inputs": [
        {
          "internalType": "address",
          "name": "from",
          "type": "address"
        },
        {
          "internalType": "address",
          "name": "to",
          "type": "address"
        },
        {
          "internalType": "uint256",
          "name": "tokenId",
          "type": "uint256"
        }
      ],
      "name": "safeTransferFrom",
      "outputs": [],
      "stateMutability": "nonpayable",
      "type": "function"
    },
    {
      "inputs": [
        {
          "internalType": "address",
          "name": "from",
          "type": "address"
        },
        {
          "internalType": "address",
          "name": "to",
          "type": "address"
        },
        {
          "internalType": "uint256",
          "name": "tokenId",
          "type": "uint256"
        },
        {
          "internalType": "bytes",
          "name": "_data",
          "type": "bytes"
        }
      ],
      "name": "safeTransferFrom",
      "outputs": [],
      "stateMutability": "nonpayable",
      "type": "function"
    },
    {
      "inputs": [
        {
          "internalType": "address",
          "name": "operator",
          "type": "address"
        },
        {
          "internalType": "bool",
          "name": "approved",
          "type": "bool"
        }
      ],
      "name": "setApprovalForAll",
      "outputs": [],
      "stateMutability": "nonpayable",
      "type": "function"
    },
    {
      "inputs": [],
      "name": "symbol",
      "outputs": [
        {
          "internalType": "string",
          "name": "",
          "type": "string"
        }
      ],
      "stateMutability": "view",
      "type": "function"
    },
    {
      "inputs": [
        {
          "internalType": "address",
          "name": "from",
          "type": "address"
        },
        {
          "internalType": "address",
          "name": "to",
          "type": "address"
        },
        {
          "internalType": "uint256",
          "name": "tokenId",
          "type": "uint256"
        }
      ],
      "name": "transferFrom",
      "outputs": [],
      "stateMutability": "nonpayable",
      "type": "function"
    },
    {
      "inputs": [
        {
          "internalType": "uint256",
          "name": "_tokenID",
          "type": "uint256"
        }
      ],
      "name": "getUserWarrantyStatus",
      "outputs": [
        {
          "internalType": "bytes32",
          "name": "",
          "type": "bytes32"
        }
      ],
      "stateMutability": "view",
      "type": "function"
    },
    {
      "inputs": [
        {
          "internalType": "uint256",
          "name": "_tokenURI",
          "type": "uint256"
        }
      ],
      "name": "getRepairs",
      "outputs": [
        {
          "internalType": "uint256[]",
          "name": "",
          "type": "uint256[]"
        }
      ],
      "stateMutability": "view",
      "type": "function"
    },
    {
      "inputs": [
        {
          "internalType": "uint256",
          "name": "_tokenURI",
          "type": "uint256"
        }
      ],
      "name": "updateUserWarranty",
      "outputs": [],
      "stateMutability": "nonpayable",
      "type": "function"
    },
    {
      "inputs": [
        {
          "internalType": "uint256",
          "name": "_tokenURI",
          "type": "uint256"
        }
      ],
      "name": "updateCompanyWarranty",
      "outputs": [],
      "stateMutability": "nonpayable",
      "type": "function"
    },
    {
      "inputs": [
        {
          "internalType": "address",
          "name": "_account",
          "type": "address"
        }
      ],
      "name": "isMinter",
      "outputs": [
        {
          "internalType": "bool",
          "name": "",
          "type": "bool"
        }
      ],
      "stateMutability": "view",
      "type": "function"
    },
    {
      "inputs": [
        {
          "internalType": "address",
          "name": "_account",
          "type": "address"
        }
      ],
      "name": "isAdmin",
      "outputs": [
        {
          "internalType": "bool",
          "name": "",
          "type": "bool"
        }
      ],
      "stateMutability": "view",
      "type": "function"
    },
    {
      "inputs": [
        {
          "internalType": "address",
          "name": "_account",
          "type": "address"
        }
      ],
      "name": "isUpdateMember",
      "outputs": [
        {
          "internalType": "bool",
          "name": "",
          "type": "bool"
        }
      ],
      "stateMutability": "view",
      "type": "function"
    },
    {
      "inputs": [
        {
          "internalType": "address",
          "name": "_member",
          "type": "address"
        },
        {
          "internalType": "string",
          "name": "role",
          "type": "string"
        }
      ],
      "name": "addRole",
      "outputs": [],
      "stateMutability": "nonpayable",
      "type": "function"
    },
    {
      "inputs": [],
      "name": "tokenSupply",
      "outputs": [
        {
          "internalType": "uint256",
          "name": "",
          "type": "uint256"
        }
      ],
      "stateMutability": "view",
      "type": "function"
    },
    {
      "inputs": [
        {
          "internalType": "address",
          "name": "to",
          "type": "address"
        },
        {
          "internalType": "string",
          "name": "uri",
          "type": "string"
        },
        {
          "internalType": "string",
          "name": "_serialNumber",
          "type": "string"
        }
      ],
      "name": "safeMint",
      "outputs": [],
      "stateMutability": "nonpayable",
      "type": "function"
    },
    {
      "inputs": [
        {
          "internalType": "bytes32",
          "name": "x",
          "type": "bytes32"
        }
      ],
      "name": "bytes32ToString",
      "outputs": [
        {
          "internalType": "string",
          "name": "",
          "type": "string"
        }
      ],
      "stateMutability": "pure",
      "type": "function"
    },
    {
      "inputs": [
        {
          "internalType": "address",
          "name": "to",
          "type": "address"
        },
        {
          "internalType": "string[]",
          "name": "_newTokenURIs",
          "type": "string[]"
        },
        {
          "internalType": "string[]",
          "name": "_serialNumbers",
          "type": "string[]"
        }
      ],
      "name": "safeMintBatch",
      "outputs": [],
      "stateMutability": "nonpayable",
      "type": "function"
    },
    {
      "inputs": [
        {
          "internalType": "string",
          "name": "_serialNumber",
          "type": "string"
        }
      ],
      "name": "getURIToken",
      "outputs": [
        {
          "internalType": "uint256",
          "name": "",
          "type": "uint256"
        }
      ],
      "stateMutability": "view",
      "type": "function"
    },
    {
      "inputs": [
        {
          "internalType": "uint256",
          "name": "_tokenId",
          "type": "uint256"
        },
        {
          "internalType": "string",
          "name": "_tokenURI",
          "type": "string"
        }
      ],
      "name": "updateTokenUri",
      "outputs": [
        {
          "internalType": "bool",
          "name": "",
          "type": "bool"
        }
      ],
      "stateMutability": "nonpayable",
      "type": "function"
    },
    {
      "inputs": [],
      "name": "heartbeat",
      "outputs": [
        {
          "internalType": "uint256",
          "name": "",
          "type": "uint256"
        }
      ],
      "stateMutability": "pure",
      "type": "function"
    },
    {
      "inputs": [
        {
          "internalType": "uint256",
          "name": "tokenId",
          "type": "uint256"
        }
      ],
      "name": "tokenURI",
      "outputs": [
        {
          "internalType": "string",
          "name": "",
          "type": "string"
        }
      ],
      "stateMutability": "view",
      "type": "function"
    },
    {
      "inputs": [
        {
          "internalType": "address",
          "name": "",
          "type": "address"
        },
        {
          "internalType": "address",
          "name": "",
          "type": "address"
        },
        {
          "internalType": "uint256",
          "name": "",
          "type": "uint256"
        },
        {
          "internalType": "bytes",
          "name": "",
          "type": "bytes"
        }
      ],
      "name": "onERC721Received",
      "outputs": [
        {
          "internalType": "bytes4",
          "name": "",
          "type": "bytes4"
        }
      ],
      "stateMutability": "pure",
      "type": "function"
    },
    {
      "inputs": [
        {
          "internalType": "bytes4",
          "name": "interfaceId",
          "type": "bytes4"
        }
      ],
      "name": "supportsInterface",
      "outputs": [
        {
          "internalType": "bool",
          "name": "",
          "type": "bool"
        }
      ],
      "stateMutability": "view",
      "type": "function"
    }
  ],
  "bytecode": "0x60806040523480156200001157600080fd5b506040518060400160405280600981526020017f466c6970436172647300000000000000000000000000000000000000000000008152506040518060400160405280600581526020017f4643524453000000000000000000000000000000000000000000000000000000815250816000908051906020019062000096929190620003d3565b508060019080519060200190620000af929190620003d3565b505050620000c76000801b336200026e60201b60201c565b620000f97f9f2df0fed2c77648de5860a4cc508cd0818c85b8b8a1ab4ceeef8d981c8956a6336200026e60201b60201c565b6200012b7f8ee6ed50dc250dbccf4d86bd88d4956ab55c7de37d1fed5508924b70da11fe8b336200026e60201b60201c565b6200015d7f1cf2b81dce95f0e7b91e95903f9b70bc58c33207c55b6b0bc3ba3d0522942e31336200026e60201b60201c565b736fa75265a8a8cfeb7eb798248fab22dae8b9bccd600f60006101000a81548173ffffffffffffffffffffffffffffffffffffffff021916908373ffffffffffffffffffffffffffffffffffffffff160217905550620001c76000801b336200026e60201b60201c565b620001f97f9f2df0fed2c77648de5860a4cc508cd0818c85b8b8a1ab4ceeef8d981c8956a6336200026e60201b60201c565b6200022b7f8ee6ed50dc250dbccf4d86bd88d4956ab55c7de37d1fed5508924b70da11fe8b336200026e60201b60201c565b6200025d7f1cf2b81dce95f0e7b91e95903f9b70bc58c33207c55b6b0bc3ba3d0522942e31336200026e60201b60201c565b6301e13380600e81905550620004e8565b6200028082826200036060201b60201c565b6200035c5760016007600084815260200190815260200160002060000160008373ffffffffffffffffffffffffffffffffffffffff1673ffffffffffffffffffffffffffffffffffffffff16815260200190815260200160002060006101000a81548160ff02191690831515021790555062000301620003cb60201b60201c565b73ffffffffffffffffffffffffffffffffffffffff168173ffffffffffffffffffffffffffffffffffffffff16837f2f8788117e7eff1d82e926ec794901d17c78024a50270940304540a733656f0d60405160405180910390a45b5050565b60006007600084815260200190815260200160002060000160008373ffffffffffffffffffffffffffffffffffffffff1673ffffffffffffffffffffffffffffffffffffffff16815260200190815260200160002060009054906101000a900460ff16905092915050565b600033905090565b828054620003e190620004b2565b90600052602060002090601f01602090048101928262000405576000855562000451565b82601f106200042057805160ff191683800117855562000451565b8280016001018555821562000451579182015b828111156200045057825182559160200191906001019062000433565b5b50905062000460919062000464565b5090565b5b808211156200047f57600081600090555060010162000465565b5090565b7f4e487b7100000000000000000000000000000000000000000000000000000000600052602260045260246000fd5b60006002820490506001821680620004cb57607f821691505b60208210811415620004e257620004e162000483565b5b50919050565b6150f180620004f86000396000f3fe608060405234801561001057600080fd5b506004361061025e5760003560e01c80637afa9e9c11610146578063aa7241bd116100c3578063d539139311610087578063d539139314610793578063d547741f146107b1578063e985e9c5146107cd578063eca81d42146107fd578063eeb40b4a14610819578063fda25518146108355761025e565b8063aa7241bd146106cb578063b495f3cd146106e7578063b88d4fde14610717578063c87b56dd14610733578063d31af484146107635761025e565b806395d89b411161010a57806395d89b4114610625578063a217fddf14610643578063a22cb46514610661578063a3b8272b1461067d578063aa271e1a1461069b5761025e565b80637afa9e9c1461056f5780637d72aa651461058d57806380698cbd146105a957806391d14854146105c55780639201de55146105f55761025e565b80632f2ff15d116101df57806350b5e0f2116101a357806350b5e0f214610485578063545df3e4146104b55780636352211e146104d35780636792166f1461050357806370a08231146105215780637824407f146105515761025e565b80632f2ff15d146103f757806336568abe146104135780633defb9621461042f57806342842e0e1461044d57806342966c68146104695761025e565b8063150b7a0211610226578063150b7a021461032d5780631be35a591461035d57806323b872dd1461037b578063248a9ca31461039757806324d7806c146103c75761025e565b806301ffc9a71461026357806306fdde0314610293578063081812fc146102b1578063082b4075146102e1578063095ea7b314610311575b600080fd5b61027d6004803603810190610278919061328d565b610865565b60405161028a91906132d5565b60405180910390f35b61029b610877565b6040516102a89190613389565b60405180910390f35b6102cb60048036038101906102c691906133e1565b610909565b6040516102d8919061344f565b60405180910390f35b6102fb60048036038101906102f691906133e1565b61098e565b6040516103089190613528565b60405180910390f35b61032b60048036038101906103269190613576565b6109f9565b005b6103476004803603810190610342919061361b565b610b11565b60405161035491906136b2565b60405180910390f35b610365610b3f565b60405161037291906136e6565b60405180910390f35b61039560048036038101906103909190613701565b610b63565b005b6103b160048036038101906103ac9190613780565b610bc3565b6040516103be91906136e6565b60405180910390f35b6103e160048036038101906103dc91906137ad565b610be3565b6040516103ee91906132d5565b60405180910390f35b610411600480360381019061040c91906137da565b610bf9565b005b61042d600480360381019061042891906137da565b610c1a565b005b610437610c9d565b6040516104449190613829565b60405180910390f35b61046760048036038101906104629190613701565b610ca6565b005b610483600480360381019061047e91906133e1565b610cc6565b005b61049f600480360381019061049a91906137ad565b610d22565b6040516104ac91906132d5565b60405180910390f35b6104bd610d69565b6040516104ca91906136e6565b60405180910390f35b6104ed60048036038101906104e891906133e1565b610d8d565b6040516104fa919061344f565b60405180910390f35b61050b610e3f565b60405161051891906136e6565b60405180910390f35b61053b600480360381019061053691906137ad565b610e63565b6040516105489190613829565b60405180910390f35b610559610f1b565b6040516105669190613829565b60405180910390f35b610577610f2c565b60405161058491906136e6565b60405180910390f35b6105a760048036038101906105a29190613974565b610f50565b005b6105c360048036038101906105be9190613a26565b611095565b005b6105df60048036038101906105da91906137da565b6111df565b6040516105ec91906132d5565b60405180910390f35b61060f600480360381019061060a9190613780565b61124a565b60405161061c9190613389565b60405180910390f35b61062d611449565b60405161063a9190613389565b60405180910390f35b61064b6114db565b60405161065891906136e6565b60405180910390f35b61067b60048036038101906106769190613ae7565b6114e2565b005b6106856114f8565b604051610692919061344f565b60405180910390f35b6106b560048036038101906106b091906137ad565b61151e565b6040516106c291906132d5565b60405180910390f35b6106e560048036038101906106e091906133e1565b611565565b005b61070160048036038101906106fc91906133e1565b61164b565b60405161070e91906136e6565b60405180910390f35b610731600480360381019061072c9190613bc8565b611668565b005b61074d600480360381019061074891906133e1565b6116ca565b60405161075a9190613389565b60405180910390f35b61077d60048036038101906107789190613c4b565b6116dc565b60405161078a91906132d5565b60405180910390f35b61079b61173a565b6040516107a891906136e6565b60405180910390f35b6107cb60048036038101906107c691906137da565b61175e565b005b6107e760048036038101906107e29190613ca7565b61177f565b6040516107f491906132d5565b60405180910390f35b61081760048036038101906108129190613ce7565b611813565b005b610833600480360381019061082e91906133e1565b611938565b005b61084f600480360381019061084a9190613d72565b611ad8565b60405161085c9190613829565b60405180910390f35b600061087082611b00565b9050919050565b60606000805461088690613dea565b80601f01602080910402602001604051908101604052809291908181526020018280546108b290613dea565b80156108ff5780601f106108d4576101008083540402835291602001916108ff565b820191906000526020600020905b8154815290600101906020018083116108e257829003601f168201915b5050505050905090565b600061091482611b7a565b610953576040517f08c379a000000000000000000000000000000000000000000000000000000000815260040161094a90613e8e565b60405180910390fd5b6004600083815260200190815260200160002060009054906101000a900473ffffffffffffffffffffffffffffffffffffffff169050919050565b6060600d60008381526020019081526020016000208054806020026020016040519081016040528092919081815260200182805480156109ed57602002820191906000526020600020905b8154815260200190600101908083116109d9575b50505050509050919050565b6000610a0482610d8d565b90508073ffffffffffffffffffffffffffffffffffffffff168373ffffffffffffffffffffffffffffffffffffffff161415610a75576040517f08c379a0000000000000000000000000000000000000000000000000000000008152600401610a6c90613f20565b60405180910390fd5b8073ffffffffffffffffffffffffffffffffffffffff16610a94611be6565b73ffffffffffffffffffffffffffffffffffffffff161480610ac35750610ac281610abd611be6565b61177f565b5b610b02576040517f08c379a0000000000000000000000000000000000000000000000000000000008152600401610af990613fb2565b60405180910390fd5b610b0c8383611bee565b505050565b60007f150b7a023d4804d13e8c85fb27262cb750cf6ba9f9dd3bb30d90f482ceeb4b1f905095945050505050565b7f7df7eaf03384253cfecdc2836ef367f151da4e29b2a5b140d3cce6d52778af5381565b610b74610b6e611be6565b82611ca7565b610bb3576040517f08c379a0000000000000000000000000000000000000000000000000000000008152600401610baa90614044565b60405180910390fd5b610bbe838383611d85565b505050565b600060076000838152602001908152602001600020600101549050919050565b6000610bf26000801b836111df565b9050919050565b610c0282610bc3565b610c0b81611fec565b610c158383612000565b505050565b610c22611be6565b73ffffffffffffffffffffffffffffffffffffffff168173ffffffffffffffffffffffffffffffffffffffff1614610c8f576040517f08c379a0000000000000000000000000000000000000000000000000000000008152600401610c86906140d6565b60405180910390fd5b610c9982826120e1565b5050565b60006001905090565b610cc183838360405180602001604052806000815250611668565b505050565b610cd7610cd1611be6565b82611ca7565b610d16576040517f08c379a0000000000000000000000000000000000000000000000000000000008152600401610d0d90614168565b60405180910390fd5b610d1f816121c3565b50565b6000610d316000801b836111df565b80610d625750610d617f1cf2b81dce95f0e7b91e95903f9b70bc58c33207c55b6b0bc3ba3d0522942e31836111df565b5b9050919050565b7fc6bb872d2a73bea74c4aa108404de619f778a5fa7018ee90d958bc3a11df3f2d81565b6000806002600084815260200190815260200160002060009054906101000a900473ffffffffffffffffffffffffffffffffffffffff169050600073ffffffffffffffffffffffffffffffffffffffff168173ffffffffffffffffffffffffffffffffffffffff161415610e36576040517f08c379a0000000000000000000000000000000000000000000000000000000008152600401610e2d906141fa565b60405180910390fd5b80915050919050565b7f1cf2b81dce95f0e7b91e95903f9b70bc58c33207c55b6b0bc3ba3d0522942e3181565b60008073ffffffffffffffffffffffffffffffffffffffff168273ffffffffffffffffffffffffffffffffffffffff161415610ed4576040517f08c379a0000000000000000000000000000000000000000000000000000000008152600401610ecb9061428c565b60405180910390fd5b600360008373ffffffffffffffffffffffffffffffffffffffff1673ffffffffffffffffffffffffffffffffffffffff168152602001908152602001600020549050919050565b6000610f2760086121cf565b905090565b7f8ee6ed50dc250dbccf4d86bd88d4956ab55c7de37d1fed5508924b70da11fe8b81565b610f5933610be3565b610f98576040517f08c379a0000000000000000000000000000000000000000000000000000000008152600401610f8f906142f8565b60405180910390fd5b600081604051602001610fab9190614354565b6040516020818303038152906040528051906020012090506000801b811480610ff357507f9f2df0fed2c77648de5860a4cc508cd0818c85b8b8a1ab4ceeef8d981c8956a681145b8061101d57507f8ee6ed50dc250dbccf4d86bd88d4956ab55c7de37d1fed5508924b70da11fe8b81145b8061104757507f1cf2b81dce95f0e7b91e95903f9b70bc58c33207c55b6b0bc3ba3d0522942e3181145b611086576040517f08c379a000000000000000000000000000000000000000000000000000000000815260040161107d906143b7565b60405180910390fd5b6110908184610bf9565b505050565b61109e3361151e565b6110dd576040517f08c379a00000000000000000000000000000000000000000000000000000000081526004016110d490614423565b60405180910390fd5b60005b848490508110156111d7576111c48686868481811061110257611101614443565b5b90506020028101906111149190614481565b8080601f016020809104026020016040519081016040528093929190818152602001838380828437600081840152601f19601f8201169050808301925050505050505085858581811061116a57611169614443565b5b905060200281019061117c9190614481565b8080601f016020809104026020016040519081016040528093929190818152602001838380828437600081840152601f19601f82011690508083019250505050505050611813565b80806111cf90614513565b9150506110e0565b505050505050565b60006007600084815260200190815260200160002060000160008373ffffffffffffffffffffffffffffffffffffffff1673ffffffffffffffffffffffffffffffffffffffff16815260200190815260200160002060009054906101000a900460ff16905092915050565b60606000602067ffffffffffffffff81111561126957611268613849565b5b6040519080825280601f01601f19166020018201604052801561129b5781602001600182028036833780820191505090505b5090506000805b602081101561136c5760008160086112ba919061455c565b60026112c691906146e9565b8660001c6112d4919061455c565b60001b9050600060f81b817effffffffffffffffffffffffffffffffffffffffffffffffffffffffffffff191614611358578084848151811061131a57611319614443565b5b60200101907effffffffffffffffffffffffffffffffffffffffffffffffffffffffffffff1916908160001a905350828061135490614513565b9350505b50808061136490614513565b9150506112a2565b60008267ffffffffffffffff81111561138857611387613849565b5b6040519080825280601f01601f1916602001820160405280156113ba5781602001600182028036833780820191505090505b509050600091505b8282101561143d578382815181106113dd576113dc614443565b5b602001015160f81c60f81b8183815181106113fb576113fa614443565b5b60200101907effffffffffffffffffffffffffffffffffffffffffffffffffffffffffffff1916908160001a905350818061143590614513565b9250506113c2565b80945050505050919050565b60606001805461145890613dea565b80601f016020809104026020016040519081016040528092919081815260200182805461148490613dea565b80156114d15780601f106114a6576101008083540402835291602001916114d1565b820191906000526020600020905b8154815290600101906020018083116114b457829003601f168201915b5050505050905090565b6000801b81565b6114f46114ed611be6565b83836121dd565b5050565b600f60009054906101000a900473ffffffffffffffffffffffffffffffffffffffff1681565b600061152d6000801b836111df565b8061155e575061155d7f9f2df0fed2c77648de5860a4cc508cd0818c85b8b8a1ab4ceeef8d981c8956a6836111df565b5b9050919050565b3373ffffffffffffffffffffffffffffffffffffffff1661158582610d8d565b73ffffffffffffffffffffffffffffffffffffffff16146115a557600080fd5b600e54426115b39190614734565b6009600083815260200190815260200160002054106115d157600080fd5b7fc6bb872d2a73bea74c4aa108404de619f778a5fa7018ee90d958bc3a11df3f2d600b6000838152602001908152602001600020541461161057600080fd5b7f7df7eaf03384253cfecdc2836ef367f151da4e29b2a5b140d3cce6d52778af53600b60008381526020019081526020016000208190555050565b6000600b6000838152602001908152602001600020549050919050565b611679611673611be6565b83611ca7565b6116b8576040517f08c379a00000000000000000000000000000000000000000000000000000000081526004016116af90614044565b60405180910390fd5b6116c48484848461234a565b50505050565b60606116d5826123a6565b9050919050565b60006116e733610d22565b611726576040517f08c379a000000000000000000000000000000000000000000000000000000000815260040161171d906147fc565b60405180910390fd5b61173083836124f8565b6001905092915050565b7f9f2df0fed2c77648de5860a4cc508cd0818c85b8b8a1ab4ceeef8d981c8956a681565b61176782610bc3565b61177081611fec565b61177a83836120e1565b505050565b6000600560008473ffffffffffffffffffffffffffffffffffffffff1673ffffffffffffffffffffffffffffffffffffffff16815260200190815260200160002060008373ffffffffffffffffffffffffffffffffffffffff1673ffffffffffffffffffffffffffffffffffffffff16815260200190815260200160002060009054906101000a900460ff16905092915050565b61181c3361151e565b61185b576040517f08c379a000000000000000000000000000000000000000000000000000000000815260040161185290614423565b60405180910390fd5b600061186760086121cf565b9050611873600861256c565b61187d8482612582565b61188781846124f8565b80600a836040516118989190614354565b9081526020016040518091039020819055504260096000838152602001908152602001600020819055507fc6bb872d2a73bea74c4aa108404de619f778a5fa7018ee90d958bc3a11df3f2d600b6000838152602001908152602001600020819055507fc6bb872d2a73bea74c4aa108404de619f778a5fa7018ee90d958bc3a11df3f2d600c60008381526020019081526020016000208190555050505050565b61194133610d22565b611980576040517f08c379a0000000000000000000000000000000000000000000000000000000008152600401611977906147fc565b60405180910390fd5b7fc6bb872d2a73bea74c4aa108404de619f778a5fa7018ee90d958bc3a11df3f2d600c600083815260200190815260200160002054146119bf57600080fd5b7f7df7eaf03384253cfecdc2836ef367f151da4e29b2a5b140d3cce6d52778af53600b600083815260200190815260200160002054146119fe57600080fd5b600e5442611a0c9190614734565b600960008381526020019081526020016000205410611a2a57600080fd5b7f17765e9b5811c513a564223b02404957aacffa1ba1a98f3fa413443bfcbd6d528142604051611a5b92919061481c565b60405180910390a1600d60008281526020019081526020016000204290806001815401808255809150506001900390600052602060002001600090919091909150557fc6bb872d2a73bea74c4aa108404de619f778a5fa7018ee90d958bc3a11df3f2d600b60008381526020019081526020016000208190555050565b6000600a82604051611aea9190614354565b9081526020016040518091039020549050919050565b60007f7965db0b000000000000000000000000000000000000000000000000000000007bffffffffffffffffffffffffffffffffffffffffffffffffffffffff1916827bffffffffffffffffffffffffffffffffffffffffffffffffffffffff19161480611b735750611b72826125a0565b5b9050919050565b60008073ffffffffffffffffffffffffffffffffffffffff166002600084815260200190815260200160002060009054906101000a900473ffffffffffffffffffffffffffffffffffffffff1673ffffffffffffffffffffffffffffffffffffffff1614159050919050565b600033905090565b816004600083815260200190815260200160002060006101000a81548173ffffffffffffffffffffffffffffffffffffffff021916908373ffffffffffffffffffffffffffffffffffffffff160217905550808273ffffffffffffffffffffffffffffffffffffffff16611c6183610d8d565b73ffffffffffffffffffffffffffffffffffffffff167f8c5be1e5ebec7d5bd14f71427d1e84f3dd0314c0f7b2291e5b200ac8c7c3b92560405160405180910390a45050565b6000611cb282611b7a565b611cf1576040517f08c379a0000000000000000000000000000000000000000000000000000000008152600401611ce8906148b7565b60405180910390fd5b6000611cfc83610d8d565b90508073ffffffffffffffffffffffffffffffffffffffff168473ffffffffffffffffffffffffffffffffffffffff161480611d3e5750611d3d818561177f565b5b80611d7c57508373ffffffffffffffffffffffffffffffffffffffff16611d6484610909565b73ffffffffffffffffffffffffffffffffffffffff16145b91505092915050565b8273ffffffffffffffffffffffffffffffffffffffff16611da582610d8d565b73ffffffffffffffffffffffffffffffffffffffff1614611dfb576040517f08c379a0000000000000000000000000000000000000000000000000000000008152600401611df290614949565b60405180910390fd5b600073ffffffffffffffffffffffffffffffffffffffff168273ffffffffffffffffffffffffffffffffffffffff161415611e6b576040517f08c379a0000000000000000000000000000000000000000000000000000000008152600401611e62906149db565b60405180910390fd5b611e76838383612682565b611e81600082611bee565b6001600360008573ffffffffffffffffffffffffffffffffffffffff1673ffffffffffffffffffffffffffffffffffffffff1681526020019081526020016000206000828254611ed191906149fb565b925050819055506001600360008473ffffffffffffffffffffffffffffffffffffffff1673ffffffffffffffffffffffffffffffffffffffff1681526020019081526020016000206000828254611f289190614734565b92505081905550816002600083815260200190815260200160002060006101000a81548173ffffffffffffffffffffffffffffffffffffffff021916908373ffffffffffffffffffffffffffffffffffffffff160217905550808273ffffffffffffffffffffffffffffffffffffffff168473ffffffffffffffffffffffffffffffffffffffff167fddf252ad1be2c89b69c2b068fc378daa952ba7f163c4a11628f55a4df523b3ef60405160405180910390a4611fe7838383612687565b505050565b611ffd81611ff8611be6565b61268c565b50565b61200a82826111df565b6120dd5760016007600084815260200190815260200160002060000160008373ffffffffffffffffffffffffffffffffffffffff1673ffffffffffffffffffffffffffffffffffffffff16815260200190815260200160002060006101000a81548160ff021916908315150217905550612082611be6565b73ffffffffffffffffffffffffffffffffffffffff168173ffffffffffffffffffffffffffffffffffffffff16837f2f8788117e7eff1d82e926ec794901d17c78024a50270940304540a733656f0d60405160405180910390a45b5050565b6120eb82826111df565b156121bf5760006007600084815260200190815260200160002060000160008373ffffffffffffffffffffffffffffffffffffffff1673ffffffffffffffffffffffffffffffffffffffff16815260200190815260200160002060006101000a81548160ff021916908315150217905550612164611be6565b73ffffffffffffffffffffffffffffffffffffffff168173ffffffffffffffffffffffffffffffffffffffff16837ff6391f5c32d9c69d2a47ea670b442974b53935d1edc7fd64eb21e047a839171b60405160405180910390a45b5050565b6121cc81612729565b50565b600081600001549050919050565b8173ffffffffffffffffffffffffffffffffffffffff168373ffffffffffffffffffffffffffffffffffffffff16141561224c576040517f08c379a000000000000000000000000000000000000000000000000000000000815260040161224390614a7b565b60405180910390fd5b80600560008573ffffffffffffffffffffffffffffffffffffffff1673ffffffffffffffffffffffffffffffffffffffff16815260200190815260200160002060008473ffffffffffffffffffffffffffffffffffffffff1673ffffffffffffffffffffffffffffffffffffffff16815260200190815260200160002060006101000a81548160ff0219169083151502179055508173ffffffffffffffffffffffffffffffffffffffff168373ffffffffffffffffffffffffffffffffffffffff167f17307eab39ab6107e8899845ad3d59bd9653f200f220920489ca2b5937696c318360405161233d91906132d5565b60405180910390a3505050565b612355848484611d85565b6123618484848461277c565b6123a0576040517f08c379a000000000000000000000000000000000000000000000000000000000815260040161239790614b0d565b60405180910390fd5b50505050565b60606123b182611b7a565b6123f0576040517f08c379a00000000000000000000000000000000000000000000000000000000081526004016123e790614b9f565b60405180910390fd5b600060066000848152602001908152602001600020805461241090613dea565b80601f016020809104026020016040519081016040528092919081815260200182805461243c90613dea565b80156124895780601f1061245e57610100808354040283529160200191612489565b820191906000526020600020905b81548152906001019060200180831161246c57829003601f168201915b50505050509050600061249a612904565b90506000815114156124b05781925050506124f3565b6000825111156124e55780826040516020016124cd929190614bbf565b604051602081830303815290604052925050506124f3565b6124ee8461291b565b925050505b919050565b61250182611b7a565b612540576040517f08c379a000000000000000000000000000000000000000000000000000000000815260040161253790614c55565b60405180910390fd5b8060066000848152602001908152602001600020908051906020019061256792919061313e565b505050565b6001816000016000828254019250508190555050565b61259c8282604051806020016040528060008152506129c2565b5050565b60007f80ac58cd000000000000000000000000000000000000000000000000000000007bffffffffffffffffffffffffffffffffffffffffffffffffffffffff1916827bffffffffffffffffffffffffffffffffffffffffffffffffffffffff1916148061266b57507f5b5e139f000000000000000000000000000000000000000000000000000000007bffffffffffffffffffffffffffffffffffffffffffffffffffffffff1916827bffffffffffffffffffffffffffffffffffffffffffffffffffffffff1916145b8061267b575061267a82612a1d565b5b9050919050565b505050565b505050565b61269682826111df565b612725576126bb8173ffffffffffffffffffffffffffffffffffffffff166014612a87565b6126c98360001c6020612a87565b6040516020016126da929190614d0d565b6040516020818303038152906040526040517f08c379a000000000000000000000000000000000000000000000000000000000815260040161271c9190613389565b60405180910390fd5b5050565b61273281612cc3565b600060066000838152602001908152602001600020805461275290613dea565b9050146127795760066000828152602001908152602001600020600061277891906131c4565b5b50565b600061279d8473ffffffffffffffffffffffffffffffffffffffff16612de0565b156128f7578373ffffffffffffffffffffffffffffffffffffffff1663150b7a026127c6611be6565b8786866040518563ffffffff1660e01b81526004016127e89493929190614d9c565b6020604051808303816000875af192505050801561282457506040513d601f19601f820116820180604052508101906128219190614dfd565b60015b6128a7573d8060008114612854576040519150601f19603f3d011682016040523d82523d6000602084013e612859565b606091505b5060008151141561289f576040517f08c379a000000000000000000000000000000000000000000000000000000000815260040161289690614b0d565b60405180910390fd5b805181602001fd5b63150b7a0260e01b7bffffffffffffffffffffffffffffffffffffffffffffffffffffffff1916817bffffffffffffffffffffffffffffffffffffffffffffffffffffffff1916149150506128fc565b600190505b949350505050565b606060405180602001604052806000815250905090565b606061292682611b7a565b612965576040517f08c379a000000000000000000000000000000000000000000000000000000000815260040161295c90614e9c565b60405180910390fd5b600061296f612904565b9050600081511161298f57604051806020016040528060008152506129ba565b8061299984612e03565b6040516020016129aa929190614bbf565b6040516020818303038152906040525b915050919050565b6129cc8383612f64565b6129d9600084848461277c565b612a18576040517f08c379a0000000000000000000000000000000000000000000000000000000008152600401612a0f90614b0d565b60405180910390fd5b505050565b60007f01ffc9a7000000000000000000000000000000000000000000000000000000007bffffffffffffffffffffffffffffffffffffffffffffffffffffffff1916827bffffffffffffffffffffffffffffffffffffffffffffffffffffffff1916149050919050565b606060006002836002612a9a919061455c565b612aa49190614734565b67ffffffffffffffff811115612abd57612abc613849565b5b6040519080825280601f01601f191660200182016040528015612aef5781602001600182028036833780820191505090505b5090507f300000000000000000000000000000000000000000000000000000000000000081600081518110612b2757612b26614443565b5b60200101907effffffffffffffffffffffffffffffffffffffffffffffffffffffffffffff1916908160001a9053507f780000000000000000000000000000000000000000000000000000000000000081600181518110612b8b57612b8a614443565b5b60200101907effffffffffffffffffffffffffffffffffffffffffffffffffffffffffffff1916908160001a90535060006001846002612bcb919061455c565b612bd59190614734565b90505b6001811115612c75577f3031323334353637383961626364656600000000000000000000000000000000600f861660108110612c1757612c16614443565b5b1a60f81b828281518110612c2e57612c2d614443565b5b60200101907effffffffffffffffffffffffffffffffffffffffffffffffffffffffffffff1916908160001a905350600485901c945080612c6e90614ebc565b9050612bd8565b5060008414612cb9576040517f08c379a0000000000000000000000000000000000000000000000000000000008152600401612cb090614f32565b60405180910390fd5b8091505092915050565b6000612cce82610d8d565b9050612cdc81600084612682565b612ce7600083611bee565b6001600360008373ffffffffffffffffffffffffffffffffffffffff1673ffffffffffffffffffffffffffffffffffffffff1681526020019081526020016000206000828254612d3791906149fb565b925050819055506002600083815260200190815260200160002060006101000a81549073ffffffffffffffffffffffffffffffffffffffff021916905581600073ffffffffffffffffffffffffffffffffffffffff168273ffffffffffffffffffffffffffffffffffffffff167fddf252ad1be2c89b69c2b068fc378daa952ba7f163c4a11628f55a4df523b3ef60405160405180910390a4612ddc81600084612687565b5050565b6000808273ffffffffffffffffffffffffffffffffffffffff163b119050919050565b60606000821415612e4b576040518060400160405280600181526020017f30000000000000000000000000000000000000000000000000000000000000008152509050612f5f565b600082905060005b60008214612e7d578080612e6690614513565b915050600a82612e769190614f81565b9150612e53565b60008167ffffffffffffffff811115612e9957612e98613849565b5b6040519080825280601f01601f191660200182016040528015612ecb5781602001600182028036833780820191505090505b5090505b60008514612f5857600182612ee491906149fb565b9150600a85612ef39190614fb2565b6030612eff9190614734565b60f81b818381518110612f1557612f14614443565b5b60200101907effffffffffffffffffffffffffffffffffffffffffffffffffffffffffffff1916908160001a905350600a85612f519190614f81565b9450612ecf565b8093505050505b919050565b600073ffffffffffffffffffffffffffffffffffffffff168273ffffffffffffffffffffffffffffffffffffffff161415612fd4576040517f08c379a0000000000000000000000000000000000000000000000000000000008152600401612fcb9061502f565b60405180910390fd5b612fdd81611b7a565b1561301d576040517f08c379a00000000000000000000000000000000000000000000000000000000081526004016130149061509b565b60405180910390fd5b61302960008383612682565b6001600360008473ffffffffffffffffffffffffffffffffffffffff1673ffffffffffffffffffffffffffffffffffffffff16815260200190815260200160002060008282546130799190614734565b92505081905550816002600083815260200190815260200160002060006101000a81548173ffffffffffffffffffffffffffffffffffffffff021916908373ffffffffffffffffffffffffffffffffffffffff160217905550808273ffffffffffffffffffffffffffffffffffffffff16600073ffffffffffffffffffffffffffffffffffffffff167fddf252ad1be2c89b69c2b068fc378daa952ba7f163c4a11628f55a4df523b3ef60405160405180910390a461313a60008383612687565b5050565b82805461314a90613dea565b90600052602060002090601f01602090048101928261316c57600085556131b3565b82601f1061318557805160ff19168380011785556131b3565b828001600101855582156131b3579182015b828111156131b2578251825591602001919060010190613197565b5b5090506131c09190613204565b5090565b5080546131d090613dea565b6000825580601f106131e25750613201565b601f0160209004906000526020600020908101906132009190613204565b5b50565b5b8082111561321d576000816000905550600101613205565b5090565b6000604051905090565b600080fd5b600080fd5b60007fffffffff0000000000000000000000000000000000000000000000000000000082169050919050565b61326a81613235565b811461327557600080fd5b50565b60008135905061328781613261565b92915050565b6000602082840312156132a3576132a261322b565b5b60006132b184828501613278565b91505092915050565b60008115159050919050565b6132cf816132ba565b82525050565b60006020820190506132ea60008301846132c6565b92915050565b600081519050919050565b600082825260208201905092915050565b60005b8381101561332a57808201518184015260208101905061330f565b83811115613339576000848401525b50505050565b6000601f19601f8301169050919050565b600061335b826132f0565b61336581856132fb565b935061337581856020860161330c565b61337e8161333f565b840191505092915050565b600060208201905081810360008301526133a38184613350565b905092915050565b6000819050919050565b6133be816133ab565b81146133c957600080fd5b50565b6000813590506133db816133b5565b92915050565b6000602082840312156133f7576133f661322b565b5b6000613405848285016133cc565b91505092915050565b600073ffffffffffffffffffffffffffffffffffffffff82169050919050565b60006134398261340e565b9050919050565b6134498161342e565b82525050565b60006020820190506134646000830184613440565b92915050565b600081519050919050565b600082825260208201905092915050565b6000819050602082019050919050565b61349f816133ab565b82525050565b60006134b18383613496565b60208301905092915050565b6000602082019050919050565b60006134d58261346a565b6134df8185613475565b93506134ea83613486565b8060005b8381101561351b57815161350288826134a5565b975061350d836134bd565b9250506001810190506134ee565b5085935050505092915050565b6000602082019050818103600083015261354281846134ca565b905092915050565b6135538161342e565b811461355e57600080fd5b50565b6000813590506135708161354a565b92915050565b6000806040838503121561358d5761358c61322b565b5b600061359b85828601613561565b92505060206135ac858286016133cc565b9150509250929050565b600080fd5b600080fd5b600080fd5b60008083601f8401126135db576135da6135b6565b5b8235905067ffffffffffffffff8111156135f8576135f76135bb565b5b602083019150836001820283011115613614576136136135c0565b5b9250929050565b6000806000806000608086880312156136375761363661322b565b5b600061364588828901613561565b955050602061365688828901613561565b9450506040613667888289016133cc565b935050606086013567ffffffffffffffff81111561368857613687613230565b5b613694888289016135c5565b92509250509295509295909350565b6136ac81613235565b82525050565b60006020820190506136c760008301846136a3565b92915050565b6000819050919050565b6136e0816136cd565b82525050565b60006020820190506136fb60008301846136d7565b92915050565b60008060006060848603121561371a5761371961322b565b5b600061372886828701613561565b935050602061373986828701613561565b925050604061374a868287016133cc565b9150509250925092565b61375d816136cd565b811461376857600080fd5b50565b60008135905061377a81613754565b92915050565b6000602082840312156137965761379561322b565b5b60006137a48482850161376b565b91505092915050565b6000602082840312156137c3576137c261322b565b5b60006137d184828501613561565b91505092915050565b600080604083850312156137f1576137f061322b565b5b60006137ff8582860161376b565b925050602061381085828601613561565b9150509250929050565b613823816133ab565b82525050565b600060208201905061383e600083018461381a565b92915050565b600080fd5b7f4e487b7100000000000000000000000000000000000000000000000000000000600052604160045260246000fd5b6138818261333f565b810181811067ffffffffffffffff821117156138a05761389f613849565b5b80604052505050565b60006138b3613221565b90506138bf8282613878565b919050565b600067ffffffffffffffff8211156138df576138de613849565b5b6138e88261333f565b9050602081019050919050565b82818337600083830152505050565b6000613917613912846138c4565b6138a9565b90508281526020810184848401111561393357613932613844565b5b61393e8482856138f5565b509392505050565b600082601f83011261395b5761395a6135b6565b5b813561396b848260208601613904565b91505092915050565b6000806040838503121561398b5761398a61322b565b5b600061399985828601613561565b925050602083013567ffffffffffffffff8111156139ba576139b9613230565b5b6139c685828601613946565b9150509250929050565b60008083601f8401126139e6576139e56135b6565b5b8235905067ffffffffffffffff811115613a0357613a026135bb565b5b602083019150836020820283011115613a1f57613a1e6135c0565b5b9250929050565b600080600080600060608688031215613a4257613a4161322b565b5b6000613a5088828901613561565b955050602086013567ffffffffffffffff811115613a7157613a70613230565b5b613a7d888289016139d0565b9450945050604086013567ffffffffffffffff811115613aa057613a9f613230565b5b613aac888289016139d0565b92509250509295509295909350565b613ac4816132ba565b8114613acf57600080fd5b50565b600081359050613ae181613abb565b92915050565b60008060408385031215613afe57613afd61322b565b5b6000613b0c85828601613561565b9250506020613b1d85828601613ad2565b9150509250929050565b600067ffffffffffffffff821115613b4257613b41613849565b5b613b4b8261333f565b9050602081019050919050565b6000613b6b613b6684613b27565b6138a9565b905082815260208101848484011115613b8757613b86613844565b5b613b928482856138f5565b509392505050565b600082601f830112613baf57613bae6135b6565b5b8135613bbf848260208601613b58565b91505092915050565b60008060008060808587031215613be257613be161322b565b5b6000613bf087828801613561565b9450506020613c0187828801613561565b9350506040613c12878288016133cc565b925050606085013567ffffffffffffffff811115613c3357613c32613230565b5b613c3f87828801613b9a565b91505092959194509250565b60008060408385031215613c6257613c6161322b565b5b6000613c70858286016133cc565b925050602083013567ffffffffffffffff811115613c9157613c90613230565b5b613c9d85828601613946565b9150509250929050565b60008060408385031215613cbe57613cbd61322b565b5b6000613ccc85828601613561565b9250506020613cdd85828601613561565b9150509250929050565b600080600060608486031215613d0057613cff61322b565b5b6000613d0e86828701613561565b935050602084013567ffffffffffffffff811115613d2f57613d2e613230565b5b613d3b86828701613946565b925050604084013567ffffffffffffffff811115613d5c57613d5b613230565b5b613d6886828701613946565b9150509250925092565b600060208284031215613d8857613d8761322b565b5b600082013567ffffffffffffffff811115613da657613da5613230565b5b613db284828501613946565b91505092915050565b7f4e487b7100000000000000000000000000000000000000000000000000000000600052602260045260246000fd5b60006002820490506001821680613e0257607f821691505b60208210811415613e1657613e15613dbb565b5b50919050565b7f4552433732313a20617070726f76656420717565727920666f72206e6f6e657860008201527f697374656e7420746f6b656e0000000000000000000000000000000000000000602082015250565b6000613e78602c836132fb565b9150613e8382613e1c565b604082019050919050565b60006020820190508181036000830152613ea781613e6b565b9050919050565b7f4552433732313a20617070726f76616c20746f2063757272656e74206f776e6560008201527f7200000000000000000000000000000000000000000000000000000000000000602082015250565b6000613f0a6021836132fb565b9150613f1582613eae565b604082019050919050565b60006020820190508181036000830152613f3981613efd565b9050919050565b7f4552433732313a20617070726f76652063616c6c6572206973206e6f74206f7760008201527f6e6572206e6f7220617070726f76656420666f7220616c6c0000000000000000602082015250565b6000613f9c6038836132fb565b9150613fa782613f40565b604082019050919050565b60006020820190508181036000830152613fcb81613f8f565b9050919050565b7f4552433732313a207472616e736665722063616c6c6572206973206e6f74206f60008201527f776e6572206e6f7220617070726f766564000000000000000000000000000000602082015250565b600061402e6031836132fb565b915061403982613fd2565b604082019050919050565b6000602082019050818103600083015261405d81614021565b9050919050565b7f416363657373436f6e74726f6c3a2063616e206f6e6c792072656e6f756e636560008201527f20726f6c657320666f722073656c660000000000000000000000000000000000602082015250565b60006140c0602f836132fb565b91506140cb82614064565b604082019050919050565b600060208201905081810360008301526140ef816140b3565b9050919050565b7f4552433732314275726e61626c653a2063616c6c6572206973206e6f74206f7760008201527f6e6572206e6f7220617070726f76656400000000000000000000000000000000602082015250565b60006141526030836132fb565b915061415d826140f6565b604082019050919050565b6000602082019050818103600083015261418181614145565b9050919050565b7f4552433732313a206f776e657220717565727920666f72206e6f6e657869737460008201527f656e7420746f6b656e0000000000000000000000000000000000000000000000602082015250565b60006141e46029836132fb565b91506141ef82614188565b604082019050919050565b60006020820190508181036000830152614213816141d7565b9050919050565b7f4552433732313a2062616c616e636520717565727920666f7220746865207a6560008201527f726f206164647265737300000000000000000000000000000000000000000000602082015250565b6000614276602a836132fb565b91506142818261421a565b604082019050919050565b600060208201905081810360008301526142a581614269565b9050919050565b7f5265737472696374656420746f206f6e6c792061646d696e0000000000000000600082015250565b60006142e26018836132fb565b91506142ed826142ac565b602082019050919050565b60006020820190508181036000830152614311816142d5565b9050919050565b600081905092915050565b600061432e826132f0565b6143388185614318565b935061434881856020860161330c565b80840191505092915050565b60006143608284614323565b915081905092915050565b7f446566696e656420726f6c6520646f65736e2774206578697374730000000000600082015250565b60006143a1601b836132fb565b91506143ac8261436b565b602082019050919050565b600060208201905081810360008301526143d081614394565b9050919050565b7f5265737472696374656420746f206f776e657220616e64206d696e7465727300600082015250565b600061440d601f836132fb565b9150614418826143d7565b602082019050919050565b6000602082019050818103600083015261443c81614400565b9050919050565b7f4e487b7100000000000000000000000000000000000000000000000000000000600052603260045260246000fd5b600080fd5b600080fd5b600080fd5b6000808335600160200384360303811261449e5761449d614472565b5b80840192508235915067ffffffffffffffff8211156144c0576144bf614477565b5b6020830192506001820236038313156144dc576144db61447c565b5b509250929050565b7f4e487b7100000000000000000000000000000000000000000000000000000000600052601160045260246000fd5b600061451e826133ab565b91507fffffffffffffffffffffffffffffffffffffffffffffffffffffffffffffffff821415614551576145506144e4565b5b600182019050919050565b6000614567826133ab565b9150614572836133ab565b9250817fffffffffffffffffffffffffffffffffffffffffffffffffffffffffffffffff04831182151516156145ab576145aa6144e4565b5b828202905092915050565b60008160011c9050919050565b6000808291508390505b600185111561460d578086048111156145e9576145e86144e4565b5b60018516156145f85780820291505b8081029050614606856145b6565b94506145cd565b94509492505050565b60008261462657600190506146e2565b8161463457600090506146e2565b816001811461464a576002811461465457614683565b60019150506146e2565b60ff841115614666576146656144e4565b5b8360020a91508482111561467d5761467c6144e4565b5b506146e2565b5060208310610133831016604e8410600b84101617156146b85782820a9050838111156146b3576146b26144e4565b5b6146e2565b6146c584848460016145c3565b925090508184048111156146dc576146db6144e4565b5b81810290505b9392505050565b60006146f4826133ab565b91506146ff836133ab565b925061472c7fffffffffffffffffffffffffffffffffffffffffffffffffffffffffffffffff8484614616565b905092915050565b600061473f826133ab565b915061474a836133ab565b9250827fffffffffffffffffffffffffffffffffffffffffffffffffffffffffffffffff0382111561477f5761477e6144e4565b5b828201905092915050565b7f4d656d626572206973206e6f7420616c6c6f77656420746f207570646174652060008201527f746865204e465400000000000000000000000000000000000000000000000000602082015250565b60006147e66027836132fb565b91506147f18261478a565b604082019050919050565b60006020820190508181036000830152614815816147d9565b9050919050565b6000604082019050614831600083018561381a565b61483e602083018461381a565b9392505050565b7f4552433732313a206f70657261746f7220717565727920666f72206e6f6e657860008201527f697374656e7420746f6b656e0000000000000000000000000000000000000000602082015250565b60006148a1602c836132fb565b91506148ac82614845565b604082019050919050565b600060208201905081810360008301526148d081614894565b9050919050565b7f4552433732313a207472616e736665722066726f6d20696e636f72726563742060008201527f6f776e6572000000000000000000000000000000000000000000000000000000602082015250565b60006149336025836132fb565b915061493e826148d7565b604082019050919050565b6000602082019050818103600083015261496281614926565b9050919050565b7f4552433732313a207472616e7366657220746f20746865207a65726f2061646460008201527f7265737300000000000000000000000000000000000000000000000000000000602082015250565b60006149c56024836132fb565b91506149d082614969565b604082019050919050565b600060208201905081810360008301526149f4816149b8565b9050919050565b6000614a06826133ab565b9150614a11836133ab565b925082821015614a2457614a236144e4565b5b828203905092915050565b7f4552433732313a20617070726f766520746f2063616c6c657200000000000000600082015250565b6000614a656019836132fb565b9150614a7082614a2f565b602082019050919050565b60006020820190508181036000830152614a9481614a58565b9050919050565b7f4552433732313a207472616e7366657220746f206e6f6e20455243373231526560008201527f63656976657220696d706c656d656e7465720000000000000000000000000000602082015250565b6000614af76032836132fb565b9150614b0282614a9b565b604082019050919050565b60006020820190508181036000830152614b2681614aea565b9050919050565b7f45524337323155524953746f726167653a2055524920717565727920666f722060008201527f6e6f6e6578697374656e7420746f6b656e000000000000000000000000000000602082015250565b6000614b896031836132fb565b9150614b9482614b2d565b604082019050919050565b60006020820190508181036000830152614bb881614b7c565b9050919050565b6000614bcb8285614323565b9150614bd78284614323565b91508190509392505050565b7f45524337323155524953746f726167653a2055524920736574206f66206e6f6e60008201527f6578697374656e7420746f6b656e000000000000000000000000000000000000602082015250565b6000614c3f602e836132fb565b9150614c4a82614be3565b604082019050919050565b60006020820190508181036000830152614c6e81614c32565b9050919050565b7f416363657373436f6e74726f6c3a206163636f756e7420000000000000000000600082015250565b6000614cab601783614318565b9150614cb682614c75565b601782019050919050565b7f206973206d697373696e6720726f6c6520000000000000000000000000000000600082015250565b6000614cf7601183614318565b9150614d0282614cc1565b601182019050919050565b6000614d1882614c9e565b9150614d248285614323565b9150614d2f82614cea565b9150614d3b8284614323565b91508190509392505050565b600081519050919050565b600082825260208201905092915050565b6000614d6e82614d47565b614d788185614d52565b9350614d8881856020860161330c565b614d918161333f565b840191505092915050565b6000608082019050614db16000830187613440565b614dbe6020830186613440565b614dcb604083018561381a565b8181036060830152614ddd8184614d63565b905095945050505050565b600081519050614df781613261565b92915050565b600060208284031215614e1357614e1261322b565b5b6000614e2184828501614de8565b91505092915050565b7f4552433732314d657461646174613a2055524920717565727920666f72206e6f60008201527f6e6578697374656e7420746f6b656e0000000000000000000000000000000000602082015250565b6000614e86602f836132fb565b9150614e9182614e2a565b604082019050919050565b60006020820190508181036000830152614eb581614e79565b9050919050565b6000614ec7826133ab565b91506000821415614edb57614eda6144e4565b5b600182039050919050565b7f537472696e67733a20686578206c656e67746820696e73756666696369656e74600082015250565b6000614f1c6020836132fb565b9150614f2782614ee6565b602082019050919050565b60006020820190508181036000830152614f4b81614f0f565b9050919050565b7f4e487b7100000000000000000000000000000000000000000000000000000000600052601260045260246000fd5b6000614f8c826133ab565b9150614f97836133ab565b925082614fa757614fa6614f52565b5b828204905092915050565b6000614fbd826133ab565b9150614fc8836133ab565b925082614fd857614fd7614f52565b5b828206905092915050565b7f4552433732313a206d696e7420746f20746865207a65726f2061646472657373600082015250565b60006150196020836132fb565b915061502482614fe3565b602082019050919050565b600060208201905081810360008301526150488161500c565b9050919050565b7f4552433732313a20746f6b656e20616c7265616479206d696e74656400000000600082015250565b6000615085601c836132fb565b91506150908261504f565b602082019050919050565b600060208201905081810360008301526150b481615078565b905091905056fea26469706673582212201c248d1dbd9ceac66d93a57cbd419a7a3041e5ca3c7047e4bae9b5f773fa611264736f6c634300080a0033",
  "immutableReferences": {},
  "source": "// SPDX-License-Identifier: MIT\r\npragma solidity ^0.8.4;\r\n\r\nimport \"openzeppelin-solidity/contracts/token/ERC721/ERC721.sol\";\r\nimport \"openzeppelin-solidity/contracts/token/ERC721/extensions/ERC721URIStorage.sol\";\r\nimport \"openzeppelin-solidity/contracts/token/ERC721/extensions/ERC721Burnable.sol\";\r\nimport \"openzeppelin-solidity/contracts/access/AccessControl.sol\";\r\nimport \"openzeppelin-solidity/contracts/utils/Counters.sol\";\r\n\r\ncontract flipCard is ERC721, ERC721URIStorage, ERC721Burnable, AccessControl {\r\n    using Counters for Counters.Counter;\r\n\r\n    bytes32 public constant NOT_STARTED = keccak256(\"NOT_STARTED\"); // the warranty application isn't started yet\r\n    bytes32 public constant STARTED = keccak256(\"STARTED\"); // the warranty application is started\r\n\r\n    bytes32 public constant MINTER_ROLE = keccak256(\"MINTER_ROLE\"); // can mint new NFTs\r\n    bytes32 public constant HANDLER_ROLE = keccak256(\"HANDLER_ROLE\"); //can handle repair and repairments\r\n    bytes32 public constant BOOK_KEEPER_ROLE = keccak256(\"BOOK_KEEPER_ROLE\"); // can transfer the NFTs to anyone & update their issue dates\r\n    Counters.Counter private _tokenIdCounter;\r\n\r\n    /**\r\n        Private mapping for functionality of blockchain\r\n        These mappings helps to keep track of attributes associated with each tokenId\r\n     */\r\n\r\n    /// mapping of tokenId to date it was published on\r\n    mapping(uint256 => uint256) private tokenuri_to_publish_date;\r\n\r\n    /// mapping of serial number of product to tokenId of Warranty Card\r\n    mapping(string => uint256) private serial_number_to_token;\r\n\r\n    ///mapping of tokenId to status of repair for that token can have two values\r\n    ///NOT_STARTED or STARTED (client side / customer)\r\n    mapping(uint256 => bytes32) private user_warranty_status;\r\n\r\n    ///mapping of tokenId to status of repair for that token can have two values\r\n    ///NOT_STARTED or STARTED (company side)\r\n    mapping(uint256 => bytes32) private company_warranty_status;\r\n\r\n    ///stores the repair requests that are done for a single NFT\r\n    mapping(uint256 => uint256[]) private nft_warranties;\r\n\r\n    ///Maximum warranty period of a product\r\n    uint256 private WARRANTY_PERIOD;\r\n\r\n    /**\r\n    Public function to check the status of a repair request signed by a customer for a NFT token\r\n     */\r\n    function getUserWarrantyStatus(uint256 _tokenID)\r\n        public\r\n        view\r\n        returns (bytes32)\r\n    {\r\n        return user_warranty_status[_tokenID];\r\n    }\r\n\r\n    ///returns all the repairs that are done on a token\r\n    function getRepairs(uint256 _tokenURI)\r\n        public\r\n        view\r\n        returns (uint256[] memory)\r\n    {\r\n        return nft_warranties[_tokenURI];\r\n    }\r\n\r\n    /**\r\n    The owner of NFT can trigger a repair request by calling this function\r\n    It updates on blockchain that a repair request is signed by the product owner and \r\n    is reflected on the Warranty Card\r\n     */\r\n    function updateUserWarranty(uint256 _tokenURI) public {\r\n        //If the user sending the update request for the NFT actually holds it\r\n        require(ownerOf(_tokenURI) == msg.sender);\r\n        //The warranty of the prooduct must not have ended\r\n        require(\r\n            tokenuri_to_publish_date[_tokenURI] <\r\n                (block.timestamp + WARRANTY_PERIOD)\r\n        );\r\n        //A repair application should not have been running | A warranty repair application isn't already running\r\n        require(user_warranty_status[_tokenURI] == NOT_STARTED);\r\n\r\n        //update the status for the provided NFT\r\n        user_warranty_status[_tokenURI] = STARTED;\r\n    }\r\n\r\n    /// Event triggered when a new repair request has been made\r\n    event NewRepair(uint256 _tokenURI, uint256 date);\r\n\r\n    /**\r\n    This public function can be called by the owner of the blockchain or the \r\n    allowed access control users. It registers on the blockchain that the repair request is now completed\r\n    and is reflected on the warranty card\r\n     */\r\n    function updateCompanyWarranty(uint256 _tokenURI) public onlyUpdateMember {\r\n        //An application process isn't started from the company's end\r\n        require(company_warranty_status[_tokenURI] == NOT_STARTED);\r\n        //The application process must've been started by the user\r\n        require(user_warranty_status[_tokenURI] == STARTED);\r\n        //The warranty of the product must not have ended\r\n        require(\r\n            tokenuri_to_publish_date[_tokenURI] <\r\n                (block.timestamp + WARRANTY_PERIOD)\r\n        );\r\n\r\n        // emit a new repair request into the blockchain\r\n        emit NewRepair(_tokenURI, block.timestamp);\r\n\r\n        //Add the repair request timestamp into the blockchain for the particular NFT\r\n        nft_warranties[_tokenURI].push(block.timestamp);\r\n        //setting the NFT application status from user's side to not started as it's finished\r\n        user_warranty_status[_tokenURI] = NOT_STARTED;\r\n    }\r\n\r\n    //This is the brand head wallet address to make them the default admin on the blockchain\r\n    address public brandAddress;\r\n\r\n    constructor() ERC721(\"FlipCards\", \"FCRDS\") {\r\n        //Called when the blockchain starts\r\n        //This way the person initializing the blockchain have all the necessary roles\r\n        //These roles are just provided for readiblity and scope assessment, just DEFAULT_ADMIN_ROLE is equivalent to these\r\n\r\n        _grantRole(DEFAULT_ADMIN_ROLE, msg.sender);\r\n        _grantRole(MINTER_ROLE, msg.sender);\r\n        _grantRole(HANDLER_ROLE, msg.sender);\r\n        _grantRole(BOOK_KEEPER_ROLE, msg.sender);\r\n\r\n        //when the contract lits up we want to assign the default address to brandAddress\r\n        brandAddress = 0x6fA75265a8A8CfEB7eB798248fab22dAe8b9bccD;\r\n        _grantRole(DEFAULT_ADMIN_ROLE, msg.sender);\r\n        _grantRole(MINTER_ROLE, msg.sender);\r\n        _grantRole(HANDLER_ROLE, msg.sender);\r\n        _grantRole(BOOK_KEEPER_ROLE, msg.sender);\r\n        //This way the brand owner will be the Admin since the contract starts\r\n\r\n        //One year warranty period for timestamp handling\r\n        WARRANTY_PERIOD = 365 * 24 * 60 * 60;\r\n    }\r\n\r\n    /// Return 'true' if the account belongs to a minter\r\n    function isMinter(address _account) public view virtual returns (bool) {\r\n        return\r\n            hasRole(DEFAULT_ADMIN_ROLE, _account) ||\r\n            hasRole(MINTER_ROLE, _account);\r\n    }\r\n\r\n    /// Restricted to the minters of the NFT\r\n    modifier onlyMinter() {\r\n        //user who can mint a new NFT\r\n        require(isMinter(msg.sender), \"Restricted to owner and minters\");\r\n        _;\r\n    }\r\n\r\n    /// Return 'true' if the account is the admin account\r\n    function isAdmin(address _account) public view virtual returns (bool) {\r\n        return hasRole(DEFAULT_ADMIN_ROLE, _account);\r\n    }\r\n\r\n    /// Restricted to the minters of the NFT\r\n    modifier onlyAdmin() {\r\n        //user who can mint a new NFT\r\n        require(isAdmin(msg.sender), \"Restricted to only admin\");\r\n        _;\r\n    }\r\n\r\n    /// Return 'true' if the account can update the NFT\r\n    function isUpdateMember(address _account)\r\n        public\r\n        view\r\n        virtual\r\n        returns (bool)\r\n    {\r\n        return\r\n            hasRole(DEFAULT_ADMIN_ROLE, _account) ||\r\n            hasRole(BOOK_KEEPER_ROLE, _account);\r\n    }\r\n\r\n    modifier onlyUpdateMember() {\r\n        require(\r\n            isUpdateMember(msg.sender),\r\n            \"Member is not allowed to update the NFT\"\r\n        );\r\n        _;\r\n    }\r\n\r\n\r\n    /// updates the roles for the passed address\r\n    function addRole(address _member, string memory role)\r\n        public\r\n        virtual\r\n        onlyAdmin\r\n    {\r\n        /**\r\n        member -> address of user whose role we need to update\r\n        role -> string defining the role for member\r\n         */\r\n        bytes32 _role = keccak256(abi.encodePacked(role));\r\n        require(\r\n            _role == DEFAULT_ADMIN_ROLE ||\r\n                _role == MINTER_ROLE ||\r\n                _role == HANDLER_ROLE ||\r\n                _role == BOOK_KEEPER_ROLE,\r\n            \"Defined role doesn't exists\"\r\n        );\r\n        grantRole(_role, _member);\r\n    }\r\n\r\n    ///public function to count total number of warranty cards minted on the blockchain \r\n    function tokenSupply() public view returns (uint256) {\r\n        return _tokenIdCounter.current();\r\n    }\r\n\r\n    /// Safely mint a new NFT\r\n    function safeMint(\r\n        address to,\r\n        string memory uri,\r\n        string memory _serialNumber\r\n    ) public onlyMinter {\r\n        /**\r\n        to -> contract address on which the NFT needs to be minted\r\n        uri -> The uri of the token generating\r\n         */\r\n        uint256 tokenId = _tokenIdCounter.current();\r\n        _tokenIdCounter.increment();\r\n        _safeMint(to, tokenId);\r\n        _setTokenURI(tokenId, uri);\r\n        serial_number_to_token[_serialNumber] = tokenId;\r\n        tokenuri_to_publish_date[tokenId] = block.timestamp;\r\n        user_warranty_status[tokenId] = NOT_STARTED;\r\n        company_warranty_status[tokenId] = NOT_STARTED;\r\n    }\r\n\r\n    ///utility function to convert a byte32 into a string\r\n    function bytes32ToString(bytes32 x) public pure returns (string memory) {\r\n        bytes memory bytesString = new bytes(32);\r\n        uint256 charCount = 0;\r\n        uint256 j;\r\n        for (j = 0; j < 32; j++) {\r\n            bytes1 char = bytes1(bytes32(uint256(x) * 2**(8 * j)));\r\n            if (char != 0) {\r\n                bytesString[charCount] = char;\r\n                charCount++;\r\n            }\r\n        }\r\n        bytes memory bytesStringTrimmed = new bytes(charCount);\r\n        for (j = 0; j < charCount; j++) {\r\n            bytesStringTrimmed[j] = bytesString[j];\r\n        }\r\n        return string(bytesStringTrimmed);\r\n    }\r\n\r\n    /// batch mint NFTs\r\n    function safeMintBatch(\r\n        address to,\r\n        string[] calldata _newTokenURIs,\r\n        string[] calldata _serialNumbers\r\n    ) public onlyMinter {\r\n        uint256 i = 0;\r\n        for (i = 0; i < _newTokenURIs.length; i++) {\r\n            //batch mint NFTs from the given array of token containing tokenURIs\r\n            safeMint(to, _newTokenURIs[i], _serialNumbers[i]);\r\n        }\r\n    }\r\n\r\n    /**\r\n    public function which helps to get the tokenId of a warranty card when their serial number \r\n    is passed as an argument\r\n     */\r\n    function getURIToken(string memory _serialNumber)\r\n        public\r\n        view\r\n        returns (uint256)\r\n    {\r\n        return serial_number_to_token[_serialNumber];\r\n    }\r\n\r\n    /**\r\n    Update tokenURI can be called by only access controlled users\r\n    This public function updates the URIValue for the passed Token\r\n     */\r\n    function updateTokenUri(uint256 _tokenId, string memory _tokenURI)\r\n        public\r\n        onlyUpdateMember\r\n        returns (bool)\r\n    {\r\n        /**\r\n        Only user with the access to the updation request can update the URI token\r\n         */\r\n        _setTokenURI(_tokenId, _tokenURI);\r\n        return true;\r\n    }\r\n\r\n    // The following functions are overrides required by Solidity.\r\n    function _burn(uint256 tokenId)\r\n        internal\r\n        override(ERC721, ERC721URIStorage)\r\n    {\r\n        super._burn(tokenId);\r\n    }\r\n\r\n    /**\r\n    Helper function outside interfaces can use to check if they are connected to the blockchain \r\n    and able to access the provided functions\r\n     */\r\n    function heartbeat() public pure returns (uint256) {\r\n        /**\r\n        Helps to check on the connecting frontend if the connectino is possible\r\n         */\r\n        return 1;\r\n    }\r\n\r\n    /// get the tokenURI (ipfs url) for the provided tokenId\r\n    function tokenURI(uint256 tokenId)\r\n        public\r\n        view\r\n        override(ERC721, ERC721URIStorage)\r\n        returns (string memory)\r\n    {\r\n        return super.tokenURI(tokenId);\r\n    }\r\n\r\n    //// when token is sent on this chain it must return the magic value\r\n    function onERC721Received(\r\n        address,\r\n        address,\r\n        uint256,\r\n        bytes calldata\r\n    ) external pure returns (bytes4) {\r\n        return\r\n            bytes4(\r\n                keccak256(\"onERC721Received(address,address,uint256,bytes)\")\r\n            );\r\n    }\r\n\r\n    function supportsInterface(bytes4 interfaceId)\r\n        public\r\n        view\r\n        override(ERC721, AccessControl)\r\n        returns (bool)\r\n    {\r\n        return super.supportsInterface(interfaceId);\r\n    }\r\n}\r\n",
  "sourcePath": "C:\\Users\\aashi\\codes\\blockchain\\contracts\\flipCard.sol",
  "compiler": {
    "name": "solc",
    "version": "0.8.10+commit.fc410830.Emscripten.clang"
  },
  "schemaVersion": "3.4.8",
  "updatedAt": "2022-07-31T15:48:24.864Z",
  "devdoc": {
    "kind": "dev",
    "methods": {
      "approve(address,uint256)": {
        "details": "See {IERC721-approve}."
      },
      "balanceOf(address)": {
        "details": "See {IERC721-balanceOf}."
      },
      "burn(uint256)": {
        "details": "Burns `tokenId`. See {ERC721-_burn}. Requirements: - The caller must own `tokenId` or be an approved operator."
      },
      "getApproved(uint256)": {
        "details": "See {IERC721-getApproved}."
      },
      "getRoleAdmin(bytes32)": {
        "details": "Returns the admin role that controls `role`. See {grantRole} and {revokeRole}. To change a role's admin, use {_setRoleAdmin}."
      },
      "grantRole(bytes32,address)": {
        "details": "Grants `role` to `account`. If `account` had not been already granted `role`, emits a {RoleGranted} event. Requirements: - the caller must have ``role``'s admin role."
      },
      "hasRole(bytes32,address)": {
        "details": "Returns `true` if `account` has been granted `role`."
      },
      "isApprovedForAll(address,address)": {
        "details": "See {IERC721-isApprovedForAll}."
      },
      "name()": {
        "details": "See {IERC721Metadata-name}."
      },
      "ownerOf(uint256)": {
        "details": "See {IERC721-ownerOf}."
      },
      "renounceRole(bytes32,address)": {
        "details": "Revokes `role` from the calling account. Roles are often managed via {grantRole} and {revokeRole}: this function's purpose is to provide a mechanism for accounts to lose their privileges if they are compromised (such as when a trusted device is misplaced). If the calling account had been revoked `role`, emits a {RoleRevoked} event. Requirements: - the caller must be `account`."
      },
      "revokeRole(bytes32,address)": {
        "details": "Revokes `role` from `account`. If `account` had been granted `role`, emits a {RoleRevoked} event. Requirements: - the caller must have ``role``'s admin role."
      },
      "safeTransferFrom(address,address,uint256)": {
        "details": "See {IERC721-safeTransferFrom}."
      },
      "safeTransferFrom(address,address,uint256,bytes)": {
        "details": "See {IERC721-safeTransferFrom}."
      },
      "setApprovalForAll(address,bool)": {
        "details": "See {IERC721-setApprovalForAll}."
      },
      "symbol()": {
        "details": "See {IERC721Metadata-symbol}."
      },
      "transferFrom(address,address,uint256)": {
        "details": "See {IERC721-transferFrom}."
      }
    },
    "version": 1
  },
  "userdoc": {
    "events": {
      "NewRepair(uint256,uint256)": {
        "notice": "Event triggered when a new repair request has been made"
      }
    },
    "kind": "user",
    "methods": {
      "addRole(address,string)": {
        "notice": "updates the roles for the passed address"
      },
      "bytes32ToString(bytes32)": {
        "notice": "utility function to convert a byte32 into a string"
      },
      "getRepairs(uint256)": {
        "notice": "returns all the repairs that are done on a token"
      },
      "getURIToken(string)": {
        "notice": "public function which helps to get the tokenId of a warranty card when their serial number  is passed as an argument"
      },
      "getUserWarrantyStatus(uint256)": {
        "notice": "Public function to check the status of a repair request signed by a customer for a NFT token"
      },
      "heartbeat()": {
        "notice": "Helper function outside interfaces can use to check if they are connected to the blockchain  and able to access the provided functions"
      },
      "isAdmin(address)": {
        "notice": "Return 'true' if the account is the admin account"
      },
      "isMinter(address)": {
        "notice": "Return 'true' if the account belongs to a minter"
      },
      "isUpdateMember(address)": {
        "notice": "Return 'true' if the account can update the NFT"
      },
      "safeMint(address,string,string)": {
        "notice": "Safely mint a new NFT"
      },
      "safeMintBatch(address,string[],string[])": {
        "notice": "batch mint NFTs"
      },
      "tokenSupply()": {
        "notice": "public function to count total number of warranty cards minted on the blockchain "
      },
      "tokenURI(uint256)": {
        "notice": "get the tokenURI (ipfs url) for the provided tokenId"
      },
      "updateCompanyWarranty(uint256)": {
        "notice": "This public function can be called by the owner of the blockchain or the  allowed access control users. It registers on the blockchain that the repair request is now completed and is reflected on the warranty card"
      },
      "updateTokenUri(uint256,string)": {
        "notice": "Update tokenURI can be called by only access controlled users This public function updates the URIValue for the passed Token"
      },
      "updateUserWarranty(uint256)": {
        "notice": "The owner of NFT can trigger a repair request by calling this function It updates on blockchain that a repair request is signed by the product owner and  is reflected on the Warranty Card"
      }
    },
    "version": 1
  }
}