{
  "contractName": "flipCard",
  "abi": [
    {
      "inputs": [],
      "stateMutability": "nonpayable",
      "type": "constructor"
    },
    {
      "anonymous": false,
      "inputs": [
        {
          "indexed": true,
          "internalType": "address",
          "name": "owner",
          "type": "address"
        },
        {
          "indexed": true,
          "internalType": "address",
          "name": "approved",
          "type": "address"
        },
        {
          "indexed": true,
          "internalType": "uint256",
          "name": "tokenId",
          "type": "uint256"
        }
      ],
      "name": "Approval",
      "type": "event"
    },
    {
      "anonymous": false,
      "inputs": [
        {
          "indexed": true,
          "internalType": "address",
          "name": "owner",
          "type": "address"
        },
        {
          "indexed": true,
          "internalType": "address",
          "name": "operator",
          "type": "address"
        },
        {
          "indexed": false,
          "internalType": "bool",
          "name": "approved",
          "type": "bool"
        }
      ],
      "name": "ApprovalForAll",
      "type": "event"
    },
    {
      "anonymous": false,
      "inputs": [
        {
          "indexed": true,
          "internalType": "bytes32",
          "name": "role",
          "type": "bytes32"
        },
        {
          "indexed": true,
          "internalType": "bytes32",
          "name": "previousAdminRole",
          "type": "bytes32"
        },
        {
          "indexed": true,
          "internalType": "bytes32",
          "name": "newAdminRole",
          "type": "bytes32"
        }
      ],
      "name": "RoleAdminChanged",
      "type": "event"
    },
    {
      "anonymous": false,
      "inputs": [
        {
          "indexed": true,
          "internalType": "bytes32",
          "name": "role",
          "type": "bytes32"
        },
        {
          "indexed": true,
          "internalType": "address",
          "name": "account",
          "type": "address"
        },
        {
          "indexed": true,
          "internalType": "address",
          "name": "sender",
          "type": "address"
        }
      ],
      "name": "RoleGranted",
      "type": "event"
    },
    {
      "anonymous": false,
      "inputs": [
        {
          "indexed": true,
          "internalType": "bytes32",
          "name": "role",
          "type": "bytes32"
        },
        {
          "indexed": true,
          "internalType": "address",
          "name": "account",
          "type": "address"
        },
        {
          "indexed": true,
          "internalType": "address",
          "name": "sender",
          "type": "address"
        }
      ],
      "name": "RoleRevoked",
      "type": "event"
    },
    {
      "anonymous": false,
      "inputs": [
        {
          "indexed": true,
          "internalType": "address",
          "name": "from",
          "type": "address"
        },
        {
          "indexed": true,
          "internalType": "address",
          "name": "to",
          "type": "address"
        },
        {
          "indexed": true,
          "internalType": "uint256",
          "name": "tokenId",
          "type": "uint256"
        }
      ],
      "name": "Transfer",
      "type": "event"
    },
    {
      "inputs": [],
      "name": "BOOK_KEEPER_ROLE",
      "outputs": [
        {
          "internalType": "bytes32",
          "name": "",
          "type": "bytes32"
        }
      ],
      "stateMutability": "view",
      "type": "function"
    },
    {
      "inputs": [],
      "name": "DEFAULT_ADMIN_ROLE",
      "outputs": [
        {
          "internalType": "bytes32",
          "name": "",
          "type": "bytes32"
        }
      ],
      "stateMutability": "view",
      "type": "function"
    },
    {
      "inputs": [],
      "name": "HANDLER_ROLE",
      "outputs": [
        {
          "internalType": "bytes32",
          "name": "",
          "type": "bytes32"
        }
      ],
      "stateMutability": "view",
      "type": "function"
    },
    {
      "inputs": [],
      "name": "MINTER_ROLE",
      "outputs": [
        {
          "internalType": "bytes32",
          "name": "",
          "type": "bytes32"
        }
      ],
      "stateMutability": "view",
      "type": "function"
    },
    {
      "inputs": [
        {
          "internalType": "address",
          "name": "to",
          "type": "address"
        },
        {
          "internalType": "uint256",
          "name": "tokenId",
          "type": "uint256"
        }
      ],
      "name": "approve",
      "outputs": [],
      "stateMutability": "nonpayable",
      "type": "function"
    },
    {
      "inputs": [
        {
          "internalType": "address",
          "name": "owner",
          "type": "address"
        }
      ],
      "name": "balanceOf",
      "outputs": [
        {
          "internalType": "uint256",
          "name": "",
          "type": "uint256"
        }
      ],
      "stateMutability": "view",
      "type": "function"
    },
    {
      "inputs": [],
      "name": "brandAddress",
      "outputs": [
        {
          "internalType": "address",
          "name": "",
          "type": "address"
        }
      ],
      "stateMutability": "view",
      "type": "function"
    },
    {
      "inputs": [
        {
          "internalType": "uint256",
          "name": "tokenId",
          "type": "uint256"
        }
      ],
      "name": "burn",
      "outputs": [],
      "stateMutability": "nonpayable",
      "type": "function"
    },
    {
      "inputs": [
        {
          "internalType": "uint256",
          "name": "tokenId",
          "type": "uint256"
        }
      ],
      "name": "getApproved",
      "outputs": [
        {
          "internalType": "address",
          "name": "",
          "type": "address"
        }
      ],
      "stateMutability": "view",
      "type": "function"
    },
    {
      "inputs": [
        {
          "internalType": "bytes32",
          "name": "role",
          "type": "bytes32"
        }
      ],
      "name": "getRoleAdmin",
      "outputs": [
        {
          "internalType": "bytes32",
          "name": "",
          "type": "bytes32"
        }
      ],
      "stateMutability": "view",
      "type": "function"
    },
    {
      "inputs": [
        {
          "internalType": "bytes32",
          "name": "role",
          "type": "bytes32"
        },
        {
          "internalType": "address",
          "name": "account",
          "type": "address"
        }
      ],
      "name": "grantRole",
      "outputs": [],
      "stateMutability": "nonpayable",
      "type": "function"
    },
    {
      "inputs": [
        {
          "internalType": "bytes32",
          "name": "role",
          "type": "bytes32"
        },
        {
          "internalType": "address",
          "name": "account",
          "type": "address"
        }
      ],
      "name": "hasRole",
      "outputs": [
        {
          "internalType": "bool",
          "name": "",
          "type": "bool"
        }
      ],
      "stateMutability": "view",
      "type": "function"
    },
    {
      "inputs": [
        {
          "internalType": "address",
          "name": "owner",
          "type": "address"
        },
        {
          "internalType": "address",
          "name": "operator",
          "type": "address"
        }
      ],
      "name": "isApprovedForAll",
      "outputs": [
        {
          "internalType": "bool",
          "name": "",
          "type": "bool"
        }
      ],
      "stateMutability": "view",
      "type": "function"
    },
    {
      "inputs": [],
      "name": "name",
      "outputs": [
        {
          "internalType": "string",
          "name": "",
          "type": "string"
        }
      ],
      "stateMutability": "view",
      "type": "function"
    },
    {
      "inputs": [
        {
          "internalType": "uint256",
          "name": "tokenId",
          "type": "uint256"
        }
      ],
      "name": "ownerOf",
      "outputs": [
        {
          "internalType": "address",
          "name": "",
          "type": "address"
        }
      ],
      "stateMutability": "view",
      "type": "function"
    },
    {
      "inputs": [
        {
          "internalType": "bytes32",
          "name": "role",
          "type": "bytes32"
        },
        {
          "internalType": "address",
          "name": "account",
          "type": "address"
        }
      ],
      "name": "renounceRole",
      "outputs": [],
      "stateMutability": "nonpayable",
      "type": "function"
    },
    {
      "inputs": [
        {
          "internalType": "bytes32",
          "name": "role",
          "type": "bytes32"
        },
        {
          "internalType": "address",
          "name": "account",
          "type": "address"
        }
      ],
      "name": "revokeRole",
      "outputs": [],
      "stateMutability": "nonpayable",
      "type": "function"
    },
    {
      "inputs": [
        {
          "internalType": "address",
          "name": "from",
          "type": "address"
        },
        {
          "internalType": "address",
          "name": "to",
          "type": "address"
        },
        {
          "internalType": "uint256",
          "name": "tokenId",
          "type": "uint256"
        }
      ],
      "name": "safeTransferFrom",
      "outputs": [],
      "stateMutability": "nonpayable",
      "type": "function"
    },
    {
      "inputs": [
        {
          "internalType": "address",
          "name": "from",
          "type": "address"
        },
        {
          "internalType": "address",
          "name": "to",
          "type": "address"
        },
        {
          "internalType": "uint256",
          "name": "tokenId",
          "type": "uint256"
        },
        {
          "internalType": "bytes",
          "name": "_data",
          "type": "bytes"
        }
      ],
      "name": "safeTransferFrom",
      "outputs": [],
      "stateMutability": "nonpayable",
      "type": "function"
    },
    {
      "inputs": [
        {
          "internalType": "address",
          "name": "operator",
          "type": "address"
        },
        {
          "internalType": "bool",
          "name": "approved",
          "type": "bool"
        }
      ],
      "name": "setApprovalForAll",
      "outputs": [],
      "stateMutability": "nonpayable",
      "type": "function"
    },
    {
      "inputs": [],
      "name": "symbol",
      "outputs": [
        {
          "internalType": "string",
          "name": "",
          "type": "string"
        }
      ],
      "stateMutability": "view",
      "type": "function"
    },
    {
      "inputs": [
        {
          "internalType": "address",
          "name": "from",
          "type": "address"
        },
        {
          "internalType": "address",
          "name": "to",
          "type": "address"
        },
        {
          "internalType": "uint256",
          "name": "tokenId",
          "type": "uint256"
        }
      ],
      "name": "transferFrom",
      "outputs": [],
      "stateMutability": "nonpayable",
      "type": "function"
    },
    {
      "inputs": [
        {
          "internalType": "address",
          "name": "_account",
          "type": "address"
        }
      ],
      "name": "isMinter",
      "outputs": [
        {
          "internalType": "bool",
          "name": "",
          "type": "bool"
        }
      ],
      "stateMutability": "view",
      "type": "function"
    },
    {
      "inputs": [
        {
          "internalType": "address",
          "name": "_account",
          "type": "address"
        }
      ],
      "name": "isAdmin",
      "outputs": [
        {
          "internalType": "bool",
          "name": "",
          "type": "bool"
        }
      ],
      "stateMutability": "view",
      "type": "function"
    },
    {
      "inputs": [
        {
          "internalType": "address",
          "name": "_account",
          "type": "address"
        }
      ],
      "name": "isUpdateMember",
      "outputs": [
        {
          "internalType": "bool",
          "name": "",
          "type": "bool"
        }
      ],
      "stateMutability": "view",
      "type": "function"
    },
    {
      "inputs": [
        {
          "internalType": "address",
          "name": "_member",
          "type": "address"
        },
        {
          "internalType": "bytes32",
          "name": "_role",
          "type": "bytes32"
        }
      ],
      "name": "addRole",
      "outputs": [],
      "stateMutability": "nonpayable",
      "type": "function"
    },
    {
      "inputs": [
        {
          "internalType": "address",
          "name": "to",
          "type": "address"
        },
        {
          "internalType": "string",
          "name": "uri",
          "type": "string"
        }
      ],
      "name": "safeMint",
      "outputs": [],
      "stateMutability": "nonpayable",
      "type": "function"
    },
    {
      "inputs": [
        {
          "internalType": "bytes32",
          "name": "x",
          "type": "bytes32"
        }
      ],
      "name": "bytes32ToString",
      "outputs": [
        {
          "internalType": "string",
          "name": "",
          "type": "string"
        }
      ],
      "stateMutability": "pure",
      "type": "function"
    },
    {
      "inputs": [
        {
          "internalType": "address",
          "name": "to",
          "type": "address"
        },
        {
          "internalType": "string[]",
          "name": "_newTokenURIs",
          "type": "string[]"
        }
      ],
      "name": "safeMintBatch",
      "outputs": [],
      "stateMutability": "nonpayable",
      "type": "function"
    },
    {
      "inputs": [
        {
          "internalType": "uint256",
          "name": "_tokenId",
          "type": "uint256"
        },
        {
          "internalType": "string",
          "name": "_tokenURI",
          "type": "string"
        }
      ],
      "name": "updateTokenUri",
      "outputs": [
        {
          "internalType": "bool",
          "name": "",
          "type": "bool"
        }
      ],
      "stateMutability": "nonpayable",
      "type": "function"
    },
    {
      "inputs": [],
      "name": "heartbeat",
      "outputs": [
        {
          "internalType": "uint256",
          "name": "",
          "type": "uint256"
        }
      ],
      "stateMutability": "pure",
      "type": "function"
    },
    {
      "inputs": [
        {
          "internalType": "uint256",
          "name": "tokenId",
          "type": "uint256"
        }
      ],
      "name": "tokenURI",
      "outputs": [
        {
          "internalType": "string",
          "name": "",
          "type": "string"
        }
      ],
      "stateMutability": "view",
      "type": "function"
    },
    {
      "inputs": [
        {
          "internalType": "address",
          "name": "",
          "type": "address"
        },
        {
          "internalType": "address",
          "name": "",
          "type": "address"
        },
        {
          "internalType": "uint256",
          "name": "",
          "type": "uint256"
        },
        {
          "internalType": "bytes",
          "name": "",
          "type": "bytes"
        }
      ],
      "name": "onERC721Received",
      "outputs": [
        {
          "internalType": "bytes4",
          "name": "",
          "type": "bytes4"
        }
      ],
      "stateMutability": "pure",
      "type": "function"
    },
    {
      "inputs": [
        {
          "internalType": "bytes4",
          "name": "interfaceId",
          "type": "bytes4"
        }
      ],
      "name": "supportsInterface",
      "outputs": [
        {
          "internalType": "bool",
          "name": "",
          "type": "bool"
        }
      ],
      "stateMutability": "view",
      "type": "function"
    }
  ],
  "bytecode": "0x60806040523480156200001157600080fd5b506040518060400160405280600981526020017f466c6970436172647300000000000000000000000000000000000000000000008152506040518060400160405280600581526020017f4643524453000000000000000000000000000000000000000000000000000000815250816000908051906020019062000096929190620003c8565b508060019080519060200190620000af929190620003c8565b505050620000c76000801b336200026360201b60201c565b620000f97f9f2df0fed2c77648de5860a4cc508cd0818c85b8b8a1ab4ceeef8d981c8956a6336200026360201b60201c565b6200012b7f8ee6ed50dc250dbccf4d86bd88d4956ab55c7de37d1fed5508924b70da11fe8b336200026360201b60201c565b6200015d7f1cf2b81dce95f0e7b91e95903f9b70bc58c33207c55b6b0bc3ba3d0522942e31336200026360201b60201c565b736fa75265a8a8cfeb7eb798248fab22dae8b9bccd600960006101000a81548173ffffffffffffffffffffffffffffffffffffffff021916908373ffffffffffffffffffffffffffffffffffffffff160217905550620001c76000801b336200026360201b60201c565b620001f97f9f2df0fed2c77648de5860a4cc508cd0818c85b8b8a1ab4ceeef8d981c8956a6336200026360201b60201c565b6200022b7f8ee6ed50dc250dbccf4d86bd88d4956ab55c7de37d1fed5508924b70da11fe8b336200026360201b60201c565b6200025d7f1cf2b81dce95f0e7b91e95903f9b70bc58c33207c55b6b0bc3ba3d0522942e31336200026360201b60201c565b620004dd565b6200027582826200035560201b60201c565b620003515760016007600084815260200190815260200160002060000160008373ffffffffffffffffffffffffffffffffffffffff1673ffffffffffffffffffffffffffffffffffffffff16815260200190815260200160002060006101000a81548160ff021916908315150217905550620002f6620003c060201b60201c565b73ffffffffffffffffffffffffffffffffffffffff168173ffffffffffffffffffffffffffffffffffffffff16837f2f8788117e7eff1d82e926ec794901d17c78024a50270940304540a733656f0d60405160405180910390a45b5050565b60006007600084815260200190815260200160002060000160008373ffffffffffffffffffffffffffffffffffffffff1673ffffffffffffffffffffffffffffffffffffffff16815260200190815260200160002060009054906101000a900460ff16905092915050565b600033905090565b828054620003d690620004a7565b90600052602060002090601f016020900481019282620003fa576000855562000446565b82601f106200041557805160ff191683800117855562000446565b8280016001018555821562000446579182015b828111156200044557825182559160200191906001019062000428565b5b50905062000455919062000459565b5090565b5b80821115620004745760008160009055506001016200045a565b5090565b7f4e487b7100000000000000000000000000000000000000000000000000000000600052602260045260246000fd5b60006002820490506001821680620004c057607f821691505b60208210811415620004d757620004d662000478565b5b50919050565b6148b080620004ed6000396000f3fe608060405234801561001057600080fd5b50600436106102065760003560e01c806370a082311161011a578063a73f7f8a116100ad578063d204c45e1161007c578063d204c45e14610635578063d31af48414610651578063d539139314610681578063d547741f1461069f578063e985e9c5146106bb57610206565b8063a73f7f8a1461059d578063aa271e1a146105b9578063b88d4fde146105e9578063c87b56dd1461060557610206565b806395d89b41116100e957806395d89b4114610527578063a217fddf14610545578063a22cb46514610563578063a3b8272b1461057f57610206565b806370a08231146104795780637afa9e9c146104a957806391d14854146104c75780639201de55146104f757610206565b80632f2ff15d1161019d57806342966c681161016c57806342966c68146103c357806350b5e0f2146103df5780636352211e1461040f5780636792166f1461043f5780636d9c51c21461045d57610206565b80632f2ff15d1461035157806336568abe1461036d5780633defb9621461038957806342842e0e146103a757610206565b8063150b7a02116101d9578063150b7a02146102a557806323b872dd146102d5578063248a9ca3146102f157806324d7806c1461032157610206565b806301ffc9a71461020b57806306fdde031461023b578063081812fc14610259578063095ea7b314610289575b600080fd5b61022560048036038101906102209190612c35565b6106eb565b6040516102329190612c7d565b60405180910390f35b6102436106fd565b6040516102509190612d31565b60405180910390f35b610273600480360381019061026e9190612d89565b61078f565b6040516102809190612df7565b60405180910390f35b6102a3600480360381019061029e9190612e3e565b610814565b005b6102bf60048036038101906102ba9190612ee3565b61092c565b6040516102cc9190612f7a565b60405180910390f35b6102ef60048036038101906102ea9190612f95565b61095a565b005b61030b6004803603810190610306919061301e565b6109ba565b604051610318919061305a565b60405180910390f35b61033b60048036038101906103369190613075565b6109da565b6040516103489190612c7d565b60405180910390f35b61036b600480360381019061036691906130a2565b6109f0565b005b610387600480360381019061038291906130a2565b610a11565b005b610391610a94565b60405161039e91906130f1565b60405180910390f35b6103c160048036038101906103bc9190612f95565b610a9d565b005b6103dd60048036038101906103d89190612d89565b610abd565b005b6103f960048036038101906103f49190613075565b610b19565b6040516104069190612c7d565b60405180910390f35b61042960048036038101906104249190612d89565b610b60565b6040516104369190612df7565b60405180910390f35b610447610c12565b604051610454919061305a565b60405180910390f35b61047760048036038101906104729190613162565b610c36565b005b610493600480360381019061048e9190613075565b610d16565b6040516104a091906130f1565b60405180910390f35b6104b1610dce565b6040516104be919061305a565b60405180910390f35b6104e160048036038101906104dc91906130a2565b610df2565b6040516104ee9190612c7d565b60405180910390f35b610511600480360381019061050c919061301e565b610e5d565b60405161051e9190612d31565b60405180910390f35b61052f61105c565b60405161053c9190612d31565b60405180910390f35b61054d6110ee565b60405161055a919061305a565b60405180910390f35b61057d600480360381019061057891906131ee565b6110f5565b005b61058761110b565b6040516105949190612df7565b60405180910390f35b6105b760048036038101906105b2919061322e565b611131565b005b6105d360048036038101906105ce9190613075565b61123d565b6040516105e09190612c7d565b60405180910390f35b61060360048036038101906105fe919061339e565b611284565b005b61061f600480360381019061061a9190612d89565b6112e6565b60405161062c9190612d31565b60405180910390f35b61064f600480360381019061064a91906134c2565b6112f8565b005b61066b6004803603810190610666919061351e565b611371565b6040516106789190612c7d565b60405180910390f35b6106896113cf565b604051610696919061305a565b60405180910390f35b6106b960048036038101906106b491906130a2565b6113f3565b005b6106d560048036038101906106d0919061357a565b611414565b6040516106e29190612c7d565b60405180910390f35b60006106f6826114a8565b9050919050565b60606000805461070c906135e9565b80601f0160208091040260200160405190810160405280929190818152602001828054610738906135e9565b80156107855780601f1061075a57610100808354040283529160200191610785565b820191906000526020600020905b81548152906001019060200180831161076857829003601f168201915b5050505050905090565b600061079a82611522565b6107d9576040517f08c379a00000000000000000000000000000000000000000000000000000000081526004016107d09061368d565b60405180910390fd5b6004600083815260200190815260200160002060009054906101000a900473ffffffffffffffffffffffffffffffffffffffff169050919050565b600061081f82610b60565b90508073ffffffffffffffffffffffffffffffffffffffff168373ffffffffffffffffffffffffffffffffffffffff161415610890576040517f08c379a00000000000000000000000000000000000000000000000000000000081526004016108879061371f565b60405180910390fd5b8073ffffffffffffffffffffffffffffffffffffffff166108af61158e565b73ffffffffffffffffffffffffffffffffffffffff1614806108de57506108dd816108d861158e565b611414565b5b61091d576040517f08c379a0000000000000000000000000000000000000000000000000000000008152600401610914906137b1565b60405180910390fd5b6109278383611596565b505050565b60007f150b7a023d4804d13e8c85fb27262cb750cf6ba9f9dd3bb30d90f482ceeb4b1f905095945050505050565b61096b61096561158e565b8261164f565b6109aa576040517f08c379a00000000000000000000000000000000000000000000000000000000081526004016109a190613843565b60405180910390fd5b6109b583838361172d565b505050565b600060076000838152602001908152602001600020600101549050919050565b60006109e96000801b83610df2565b9050919050565b6109f9826109ba565b610a0281611994565b610a0c83836119a8565b505050565b610a1961158e565b73ffffffffffffffffffffffffffffffffffffffff168173ffffffffffffffffffffffffffffffffffffffff1614610a86576040517f08c379a0000000000000000000000000000000000000000000000000000000008152600401610a7d906138d5565b60405180910390fd5b610a908282611a89565b5050565b60006001905090565b610ab883838360405180602001604052806000815250611284565b505050565b610ace610ac861158e565b8261164f565b610b0d576040517f08c379a0000000000000000000000000000000000000000000000000000000008152600401610b0490613967565b60405180910390fd5b610b1681611b6b565b50565b6000610b286000801b83610df2565b80610b595750610b587f1cf2b81dce95f0e7b91e95903f9b70bc58c33207c55b6b0bc3ba3d0522942e3183610df2565b5b9050919050565b6000806002600084815260200190815260200160002060009054906101000a900473ffffffffffffffffffffffffffffffffffffffff169050600073ffffffffffffffffffffffffffffffffffffffff168173ffffffffffffffffffffffffffffffffffffffff161415610c09576040517f08c379a0000000000000000000000000000000000000000000000000000000008152600401610c00906139f9565b60405180910390fd5b80915050919050565b7f1cf2b81dce95f0e7b91e95903f9b70bc58c33207c55b6b0bc3ba3d0522942e3181565b610c3f3361123d565b610c7e576040517f08c379a0000000000000000000000000000000000000000000000000000000008152600401610c7590613a65565b60405180910390fd5b60005b82829050811015610d1057610cfd84848484818110610ca357610ca2613a85565b5b9050602002810190610cb59190613ac3565b8080601f016020809104026020016040519081016040528093929190818152602001838380828437600081840152601f19601f820116905080830192505050505050506112f8565b8080610d0890613b55565b915050610c81565b50505050565b60008073ffffffffffffffffffffffffffffffffffffffff168273ffffffffffffffffffffffffffffffffffffffff161415610d87576040517f08c379a0000000000000000000000000000000000000000000000000000000008152600401610d7e90613c10565b60405180910390fd5b600360008373ffffffffffffffffffffffffffffffffffffffff1673ffffffffffffffffffffffffffffffffffffffff168152602001908152602001600020549050919050565b7f8ee6ed50dc250dbccf4d86bd88d4956ab55c7de37d1fed5508924b70da11fe8b81565b60006007600084815260200190815260200160002060000160008373ffffffffffffffffffffffffffffffffffffffff1673ffffffffffffffffffffffffffffffffffffffff16815260200190815260200160002060009054906101000a900460ff16905092915050565b60606000602067ffffffffffffffff811115610e7c57610e7b613273565b5b6040519080825280601f01601f191660200182016040528015610eae5781602001600182028036833780820191505090505b5090506000805b6020811015610f7f576000816008610ecd9190613c30565b6002610ed99190613dbd565b8660001c610ee79190613c30565b60001b9050600060f81b817effffffffffffffffffffffffffffffffffffffffffffffffffffffffffffff191614610f6b5780848481518110610f2d57610f2c613a85565b5b60200101907effffffffffffffffffffffffffffffffffffffffffffffffffffffffffffff1916908160001a9053508280610f6790613b55565b9350505b508080610f7790613b55565b915050610eb5565b60008267ffffffffffffffff811115610f9b57610f9a613273565b5b6040519080825280601f01601f191660200182016040528015610fcd5781602001600182028036833780820191505090505b509050600091505b8282101561105057838281518110610ff057610fef613a85565b5b602001015160f81c60f81b81838151811061100e5761100d613a85565b5b60200101907effffffffffffffffffffffffffffffffffffffffffffffffffffffffffffff1916908160001a905350818061104890613b55565b925050610fd5565b80945050505050919050565b60606001805461106b906135e9565b80601f0160208091040260200160405190810160405280929190818152602001828054611097906135e9565b80156110e45780601f106110b9576101008083540402835291602001916110e4565b820191906000526020600020905b8154815290600101906020018083116110c757829003601f168201915b5050505050905090565b6000801b81565b61110761110061158e565b8383611b77565b5050565b600960009054906101000a900473ffffffffffffffffffffffffffffffffffffffff1681565b61113a336109da565b611179576040517f08c379a000000000000000000000000000000000000000000000000000000000815260040161117090613e54565b60405180910390fd5b7f9f2df0fed2c77648de5860a4cc508cd0818c85b8b8a1ab4ceeef8d981c8956a68114806111c657507f8ee6ed50dc250dbccf4d86bd88d4956ab55c7de37d1fed5508924b70da11fe8b81145b806111f057507f1cf2b81dce95f0e7b91e95903f9b70bc58c33207c55b6b0bc3ba3d0522942e3181145b61122f576040517f08c379a000000000000000000000000000000000000000000000000000000000815260040161122690613ec0565b60405180910390fd5b61123981836109f0565b5050565b600061124c6000801b83610df2565b8061127d575061127c7f9f2df0fed2c77648de5860a4cc508cd0818c85b8b8a1ab4ceeef8d981c8956a683610df2565b5b9050919050565b61129561128f61158e565b8361164f565b6112d4576040517f08c379a00000000000000000000000000000000000000000000000000000000081526004016112cb90613843565b60405180910390fd5b6112e084848484611ce4565b50505050565b60606112f182611d40565b9050919050565b6113013361123d565b611340576040517f08c379a000000000000000000000000000000000000000000000000000000000815260040161133790613a65565b60405180910390fd5b600061134c6008611e92565b90506113586008611ea0565b6113628382611eb6565b61136c8183611ed4565b505050565b600061137c33610b19565b6113bb576040517f08c379a00000000000000000000000000000000000000000000000000000000081526004016113b290613f52565b60405180910390fd5b6113c58383611ed4565b6001905092915050565b7f9f2df0fed2c77648de5860a4cc508cd0818c85b8b8a1ab4ceeef8d981c8956a681565b6113fc826109ba565b61140581611994565b61140f8383611a89565b505050565b6000600560008473ffffffffffffffffffffffffffffffffffffffff1673ffffffffffffffffffffffffffffffffffffffff16815260200190815260200160002060008373ffffffffffffffffffffffffffffffffffffffff1673ffffffffffffffffffffffffffffffffffffffff16815260200190815260200160002060009054906101000a900460ff16905092915050565b60007f7965db0b000000000000000000000000000000000000000000000000000000007bffffffffffffffffffffffffffffffffffffffffffffffffffffffff1916827bffffffffffffffffffffffffffffffffffffffffffffffffffffffff1916148061151b575061151a82611f48565b5b9050919050565b60008073ffffffffffffffffffffffffffffffffffffffff166002600084815260200190815260200160002060009054906101000a900473ffffffffffffffffffffffffffffffffffffffff1673ffffffffffffffffffffffffffffffffffffffff1614159050919050565b600033905090565b816004600083815260200190815260200160002060006101000a81548173ffffffffffffffffffffffffffffffffffffffff021916908373ffffffffffffffffffffffffffffffffffffffff160217905550808273ffffffffffffffffffffffffffffffffffffffff1661160983610b60565b73ffffffffffffffffffffffffffffffffffffffff167f8c5be1e5ebec7d5bd14f71427d1e84f3dd0314c0f7b2291e5b200ac8c7c3b92560405160405180910390a45050565b600061165a82611522565b611699576040517f08c379a000000000000000000000000000000000000000000000000000000000815260040161169090613fe4565b60405180910390fd5b60006116a483610b60565b90508073ffffffffffffffffffffffffffffffffffffffff168473ffffffffffffffffffffffffffffffffffffffff1614806116e657506116e58185611414565b5b8061172457508373ffffffffffffffffffffffffffffffffffffffff1661170c8461078f565b73ffffffffffffffffffffffffffffffffffffffff16145b91505092915050565b8273ffffffffffffffffffffffffffffffffffffffff1661174d82610b60565b73ffffffffffffffffffffffffffffffffffffffff16146117a3576040517f08c379a000000000000000000000000000000000000000000000000000000000815260040161179a90614076565b60405180910390fd5b600073ffffffffffffffffffffffffffffffffffffffff168273ffffffffffffffffffffffffffffffffffffffff161415611813576040517f08c379a000000000000000000000000000000000000000000000000000000000815260040161180a90614108565b60405180910390fd5b61181e83838361202a565b611829600082611596565b6001600360008573ffffffffffffffffffffffffffffffffffffffff1673ffffffffffffffffffffffffffffffffffffffff16815260200190815260200160002060008282546118799190614128565b925050819055506001600360008473ffffffffffffffffffffffffffffffffffffffff1673ffffffffffffffffffffffffffffffffffffffff16815260200190815260200160002060008282546118d0919061415c565b92505081905550816002600083815260200190815260200160002060006101000a81548173ffffffffffffffffffffffffffffffffffffffff021916908373ffffffffffffffffffffffffffffffffffffffff160217905550808273ffffffffffffffffffffffffffffffffffffffff168473ffffffffffffffffffffffffffffffffffffffff167fddf252ad1be2c89b69c2b068fc378daa952ba7f163c4a11628f55a4df523b3ef60405160405180910390a461198f83838361202f565b505050565b6119a5816119a061158e565b612034565b50565b6119b28282610df2565b611a855760016007600084815260200190815260200160002060000160008373ffffffffffffffffffffffffffffffffffffffff1673ffffffffffffffffffffffffffffffffffffffff16815260200190815260200160002060006101000a81548160ff021916908315150217905550611a2a61158e565b73ffffffffffffffffffffffffffffffffffffffff168173ffffffffffffffffffffffffffffffffffffffff16837f2f8788117e7eff1d82e926ec794901d17c78024a50270940304540a733656f0d60405160405180910390a45b5050565b611a938282610df2565b15611b675760006007600084815260200190815260200160002060000160008373ffffffffffffffffffffffffffffffffffffffff1673ffffffffffffffffffffffffffffffffffffffff16815260200190815260200160002060006101000a81548160ff021916908315150217905550611b0c61158e565b73ffffffffffffffffffffffffffffffffffffffff168173ffffffffffffffffffffffffffffffffffffffff16837ff6391f5c32d9c69d2a47ea670b442974b53935d1edc7fd64eb21e047a839171b60405160405180910390a45b5050565b611b74816120d1565b50565b8173ffffffffffffffffffffffffffffffffffffffff168373ffffffffffffffffffffffffffffffffffffffff161415611be6576040517f08c379a0000000000000000000000000000000000000000000000000000000008152600401611bdd906141fe565b60405180910390fd5b80600560008573ffffffffffffffffffffffffffffffffffffffff1673ffffffffffffffffffffffffffffffffffffffff16815260200190815260200160002060008473ffffffffffffffffffffffffffffffffffffffff1673ffffffffffffffffffffffffffffffffffffffff16815260200190815260200160002060006101000a81548160ff0219169083151502179055508173ffffffffffffffffffffffffffffffffffffffff168373ffffffffffffffffffffffffffffffffffffffff167f17307eab39ab6107e8899845ad3d59bd9653f200f220920489ca2b5937696c3183604051611cd79190612c7d565b60405180910390a3505050565b611cef84848461172d565b611cfb84848484612124565b611d3a576040517f08c379a0000000000000000000000000000000000000000000000000000000008152600401611d3190614290565b60405180910390fd5b50505050565b6060611d4b82611522565b611d8a576040517f08c379a0000000000000000000000000000000000000000000000000000000008152600401611d8190614322565b60405180910390fd5b6000600660008481526020019081526020016000208054611daa906135e9565b80601f0160208091040260200160405190810160405280929190818152602001828054611dd6906135e9565b8015611e235780601f10611df857610100808354040283529160200191611e23565b820191906000526020600020905b815481529060010190602001808311611e0657829003601f168201915b505050505090506000611e346122ac565b9050600081511415611e4a578192505050611e8d565b600082511115611e7f578082604051602001611e6792919061437e565b60405160208183030381529060405292505050611e8d565b611e88846122c3565b925050505b919050565b600081600001549050919050565b6001816000016000828254019250508190555050565b611ed082826040518060200160405280600081525061236a565b5050565b611edd82611522565b611f1c576040517f08c379a0000000000000000000000000000000000000000000000000000000008152600401611f1390614414565b60405180910390fd5b80600660008481526020019081526020016000209080519060200190611f43929190612ae6565b505050565b60007f80ac58cd000000000000000000000000000000000000000000000000000000007bffffffffffffffffffffffffffffffffffffffffffffffffffffffff1916827bffffffffffffffffffffffffffffffffffffffffffffffffffffffff1916148061201357507f5b5e139f000000000000000000000000000000000000000000000000000000007bffffffffffffffffffffffffffffffffffffffffffffffffffffffff1916827bffffffffffffffffffffffffffffffffffffffffffffffffffffffff1916145b806120235750612022826123c5565b5b9050919050565b505050565b505050565b61203e8282610df2565b6120cd576120638173ffffffffffffffffffffffffffffffffffffffff16601461242f565b6120718360001c602061242f565b6040516020016120829291906144cc565b6040516020818303038152906040526040517f08c379a00000000000000000000000000000000000000000000000000000000081526004016120c49190612d31565b60405180910390fd5b5050565b6120da8161266b565b60006006600083815260200190815260200160002080546120fa906135e9565b905014612121576006600082815260200190815260200160002060006121209190612b6c565b5b50565b60006121458473ffffffffffffffffffffffffffffffffffffffff16612788565b1561229f578373ffffffffffffffffffffffffffffffffffffffff1663150b7a0261216e61158e565b8786866040518563ffffffff1660e01b8152600401612190949392919061455b565b6020604051808303816000875af19250505080156121cc57506040513d601f19601f820116820180604052508101906121c991906145bc565b60015b61224f573d80600081146121fc576040519150601f19603f3d011682016040523d82523d6000602084013e612201565b606091505b50600081511415612247576040517f08c379a000000000000000000000000000000000000000000000000000000000815260040161223e90614290565b60405180910390fd5b805181602001fd5b63150b7a0260e01b7bffffffffffffffffffffffffffffffffffffffffffffffffffffffff1916817bffffffffffffffffffffffffffffffffffffffffffffffffffffffff1916149150506122a4565b600190505b949350505050565b606060405180602001604052806000815250905090565b60606122ce82611522565b61230d576040517f08c379a00000000000000000000000000000000000000000000000000000000081526004016123049061465b565b60405180910390fd5b60006123176122ac565b905060008151116123375760405180602001604052806000815250612362565b80612341846127ab565b60405160200161235292919061437e565b6040516020818303038152906040525b915050919050565b612374838361290c565b6123816000848484612124565b6123c0576040517f08c379a00000000000000000000000000000000000000000000000000000000081526004016123b790614290565b60405180910390fd5b505050565b60007f01ffc9a7000000000000000000000000000000000000000000000000000000007bffffffffffffffffffffffffffffffffffffffffffffffffffffffff1916827bffffffffffffffffffffffffffffffffffffffffffffffffffffffff1916149050919050565b6060600060028360026124429190613c30565b61244c919061415c565b67ffffffffffffffff81111561246557612464613273565b5b6040519080825280601f01601f1916602001820160405280156124975781602001600182028036833780820191505090505b5090507f3000000000000000000000000000000000000000000000000000000000000000816000815181106124cf576124ce613a85565b5b60200101907effffffffffffffffffffffffffffffffffffffffffffffffffffffffffffff1916908160001a9053507f78000000000000000000000000000000000000000000000000000000000000008160018151811061253357612532613a85565b5b60200101907effffffffffffffffffffffffffffffffffffffffffffffffffffffffffffff1916908160001a905350600060018460026125739190613c30565b61257d919061415c565b90505b600181111561261d577f3031323334353637383961626364656600000000000000000000000000000000600f8616601081106125bf576125be613a85565b5b1a60f81b8282815181106125d6576125d5613a85565b5b60200101907effffffffffffffffffffffffffffffffffffffffffffffffffffffffffffff1916908160001a905350600485901c9450806126169061467b565b9050612580565b5060008414612661576040517f08c379a0000000000000000000000000000000000000000000000000000000008152600401612658906146f1565b60405180910390fd5b8091505092915050565b600061267682610b60565b90506126848160008461202a565b61268f600083611596565b6001600360008373ffffffffffffffffffffffffffffffffffffffff1673ffffffffffffffffffffffffffffffffffffffff16815260200190815260200160002060008282546126df9190614128565b925050819055506002600083815260200190815260200160002060006101000a81549073ffffffffffffffffffffffffffffffffffffffff021916905581600073ffffffffffffffffffffffffffffffffffffffff168273ffffffffffffffffffffffffffffffffffffffff167fddf252ad1be2c89b69c2b068fc378daa952ba7f163c4a11628f55a4df523b3ef60405160405180910390a46127848160008461202f565b5050565b6000808273ffffffffffffffffffffffffffffffffffffffff163b119050919050565b606060008214156127f3576040518060400160405280600181526020017f30000000000000000000000000000000000000000000000000000000000000008152509050612907565b600082905060005b6000821461282557808061280e90613b55565b915050600a8261281e9190614740565b91506127fb565b60008167ffffffffffffffff81111561284157612840613273565b5b6040519080825280601f01601f1916602001820160405280156128735781602001600182028036833780820191505090505b5090505b600085146129005760018261288c9190614128565b9150600a8561289b9190614771565b60306128a7919061415c565b60f81b8183815181106128bd576128bc613a85565b5b60200101907effffffffffffffffffffffffffffffffffffffffffffffffffffffffffffff1916908160001a905350600a856128f99190614740565b9450612877565b8093505050505b919050565b600073ffffffffffffffffffffffffffffffffffffffff168273ffffffffffffffffffffffffffffffffffffffff16141561297c576040517f08c379a0000000000000000000000000000000000000000000000000000000008152600401612973906147ee565b60405180910390fd5b61298581611522565b156129c5576040517f08c379a00000000000000000000000000000000000000000000000000000000081526004016129bc9061485a565b60405180910390fd5b6129d16000838361202a565b6001600360008473ffffffffffffffffffffffffffffffffffffffff1673ffffffffffffffffffffffffffffffffffffffff1681526020019081526020016000206000828254612a21919061415c565b92505081905550816002600083815260200190815260200160002060006101000a81548173ffffffffffffffffffffffffffffffffffffffff021916908373ffffffffffffffffffffffffffffffffffffffff160217905550808273ffffffffffffffffffffffffffffffffffffffff16600073ffffffffffffffffffffffffffffffffffffffff167fddf252ad1be2c89b69c2b068fc378daa952ba7f163c4a11628f55a4df523b3ef60405160405180910390a4612ae26000838361202f565b5050565b828054612af2906135e9565b90600052602060002090601f016020900481019282612b145760008555612b5b565b82601f10612b2d57805160ff1916838001178555612b5b565b82800160010185558215612b5b579182015b82811115612b5a578251825591602001919060010190612b3f565b5b509050612b689190612bac565b5090565b508054612b78906135e9565b6000825580601f10612b8a5750612ba9565b601f016020900490600052602060002090810190612ba89190612bac565b5b50565b5b80821115612bc5576000816000905550600101612bad565b5090565b6000604051905090565b600080fd5b600080fd5b60007fffffffff0000000000000000000000000000000000000000000000000000000082169050919050565b612c1281612bdd565b8114612c1d57600080fd5b50565b600081359050612c2f81612c09565b92915050565b600060208284031215612c4b57612c4a612bd3565b5b6000612c5984828501612c20565b91505092915050565b60008115159050919050565b612c7781612c62565b82525050565b6000602082019050612c926000830184612c6e565b92915050565b600081519050919050565b600082825260208201905092915050565b60005b83811015612cd2578082015181840152602081019050612cb7565b83811115612ce1576000848401525b50505050565b6000601f19601f8301169050919050565b6000612d0382612c98565b612d0d8185612ca3565b9350612d1d818560208601612cb4565b612d2681612ce7565b840191505092915050565b60006020820190508181036000830152612d4b8184612cf8565b905092915050565b6000819050919050565b612d6681612d53565b8114612d7157600080fd5b50565b600081359050612d8381612d5d565b92915050565b600060208284031215612d9f57612d9e612bd3565b5b6000612dad84828501612d74565b91505092915050565b600073ffffffffffffffffffffffffffffffffffffffff82169050919050565b6000612de182612db6565b9050919050565b612df181612dd6565b82525050565b6000602082019050612e0c6000830184612de8565b92915050565b612e1b81612dd6565b8114612e2657600080fd5b50565b600081359050612e3881612e12565b92915050565b60008060408385031215612e5557612e54612bd3565b5b6000612e6385828601612e29565b9250506020612e7485828601612d74565b9150509250929050565b600080fd5b600080fd5b600080fd5b60008083601f840112612ea357612ea2612e7e565b5b8235905067ffffffffffffffff811115612ec057612ebf612e83565b5b602083019150836001820283011115612edc57612edb612e88565b5b9250929050565b600080600080600060808688031215612eff57612efe612bd3565b5b6000612f0d88828901612e29565b9550506020612f1e88828901612e29565b9450506040612f2f88828901612d74565b935050606086013567ffffffffffffffff811115612f5057612f4f612bd8565b5b612f5c88828901612e8d565b92509250509295509295909350565b612f7481612bdd565b82525050565b6000602082019050612f8f6000830184612f6b565b92915050565b600080600060608486031215612fae57612fad612bd3565b5b6000612fbc86828701612e29565b9350506020612fcd86828701612e29565b9250506040612fde86828701612d74565b9150509250925092565b6000819050919050565b612ffb81612fe8565b811461300657600080fd5b50565b60008135905061301881612ff2565b92915050565b60006020828403121561303457613033612bd3565b5b600061304284828501613009565b91505092915050565b61305481612fe8565b82525050565b600060208201905061306f600083018461304b565b92915050565b60006020828403121561308b5761308a612bd3565b5b600061309984828501612e29565b91505092915050565b600080604083850312156130b9576130b8612bd3565b5b60006130c785828601613009565b92505060206130d885828601612e29565b9150509250929050565b6130eb81612d53565b82525050565b600060208201905061310660008301846130e2565b92915050565b60008083601f84011261312257613121612e7e565b5b8235905067ffffffffffffffff81111561313f5761313e612e83565b5b60208301915083602082028301111561315b5761315a612e88565b5b9250929050565b60008060006040848603121561317b5761317a612bd3565b5b600061318986828701612e29565b935050602084013567ffffffffffffffff8111156131aa576131a9612bd8565b5b6131b68682870161310c565b92509250509250925092565b6131cb81612c62565b81146131d657600080fd5b50565b6000813590506131e8816131c2565b92915050565b6000806040838503121561320557613204612bd3565b5b600061321385828601612e29565b9250506020613224858286016131d9565b9150509250929050565b6000806040838503121561324557613244612bd3565b5b600061325385828601612e29565b925050602061326485828601613009565b9150509250929050565b600080fd5b7f4e487b7100000000000000000000000000000000000000000000000000000000600052604160045260246000fd5b6132ab82612ce7565b810181811067ffffffffffffffff821117156132ca576132c9613273565b5b80604052505050565b60006132dd612bc9565b90506132e982826132a2565b919050565b600067ffffffffffffffff82111561330957613308613273565b5b61331282612ce7565b9050602081019050919050565b82818337600083830152505050565b600061334161333c846132ee565b6132d3565b90508281526020810184848401111561335d5761335c61326e565b5b61336884828561331f565b509392505050565b600082601f83011261338557613384612e7e565b5b813561339584826020860161332e565b91505092915050565b600080600080608085870312156133b8576133b7612bd3565b5b60006133c687828801612e29565b94505060206133d787828801612e29565b93505060406133e887828801612d74565b925050606085013567ffffffffffffffff81111561340957613408612bd8565b5b61341587828801613370565b91505092959194509250565b600067ffffffffffffffff82111561343c5761343b613273565b5b61344582612ce7565b9050602081019050919050565b600061346561346084613421565b6132d3565b9050828152602081018484840111156134815761348061326e565b5b61348c84828561331f565b509392505050565b600082601f8301126134a9576134a8612e7e565b5b81356134b9848260208601613452565b91505092915050565b600080604083850312156134d9576134d8612bd3565b5b60006134e785828601612e29565b925050602083013567ffffffffffffffff81111561350857613507612bd8565b5b61351485828601613494565b9150509250929050565b6000806040838503121561353557613534612bd3565b5b600061354385828601612d74565b925050602083013567ffffffffffffffff81111561356457613563612bd8565b5b61357085828601613494565b9150509250929050565b6000806040838503121561359157613590612bd3565b5b600061359f85828601612e29565b92505060206135b085828601612e29565b9150509250929050565b7f4e487b7100000000000000000000000000000000000000000000000000000000600052602260045260246000fd5b6000600282049050600182168061360157607f821691505b60208210811415613615576136146135ba565b5b50919050565b7f4552433732313a20617070726f76656420717565727920666f72206e6f6e657860008201527f697374656e7420746f6b656e0000000000000000000000000000000000000000602082015250565b6000613677602c83612ca3565b91506136828261361b565b604082019050919050565b600060208201905081810360008301526136a68161366a565b9050919050565b7f4552433732313a20617070726f76616c20746f2063757272656e74206f776e6560008201527f7200000000000000000000000000000000000000000000000000000000000000602082015250565b6000613709602183612ca3565b9150613714826136ad565b604082019050919050565b60006020820190508181036000830152613738816136fc565b9050919050565b7f4552433732313a20617070726f76652063616c6c6572206973206e6f74206f7760008201527f6e6572206e6f7220617070726f76656420666f7220616c6c0000000000000000602082015250565b600061379b603883612ca3565b91506137a68261373f565b604082019050919050565b600060208201905081810360008301526137ca8161378e565b9050919050565b7f4552433732313a207472616e736665722063616c6c6572206973206e6f74206f60008201527f776e6572206e6f7220617070726f766564000000000000000000000000000000602082015250565b600061382d603183612ca3565b9150613838826137d1565b604082019050919050565b6000602082019050818103600083015261385c81613820565b9050919050565b7f416363657373436f6e74726f6c3a2063616e206f6e6c792072656e6f756e636560008201527f20726f6c657320666f722073656c660000000000000000000000000000000000602082015250565b60006138bf602f83612ca3565b91506138ca82613863565b604082019050919050565b600060208201905081810360008301526138ee816138b2565b9050919050565b7f4552433732314275726e61626c653a2063616c6c6572206973206e6f74206f7760008201527f6e6572206e6f7220617070726f76656400000000000000000000000000000000602082015250565b6000613951603083612ca3565b915061395c826138f5565b604082019050919050565b6000602082019050818103600083015261398081613944565b9050919050565b7f4552433732313a206f776e657220717565727920666f72206e6f6e657869737460008201527f656e7420746f6b656e0000000000000000000000000000000000000000000000602082015250565b60006139e3602983612ca3565b91506139ee82613987565b604082019050919050565b60006020820190508181036000830152613a12816139d6565b9050919050565b7f5265737472696374656420746f206f776e657220616e64206d696e7465727300600082015250565b6000613a4f601f83612ca3565b9150613a5a82613a19565b602082019050919050565b60006020820190508181036000830152613a7e81613a42565b9050919050565b7f4e487b7100000000000000000000000000000000000000000000000000000000600052603260045260246000fd5b600080fd5b600080fd5b600080fd5b60008083356001602003843603038112613ae057613adf613ab4565b5b80840192508235915067ffffffffffffffff821115613b0257613b01613ab9565b5b602083019250600182023603831315613b1e57613b1d613abe565b5b509250929050565b7f4e487b7100000000000000000000000000000000000000000000000000000000600052601160045260246000fd5b6000613b6082612d53565b91507fffffffffffffffffffffffffffffffffffffffffffffffffffffffffffffffff821415613b9357613b92613b26565b5b600182019050919050565b7f4552433732313a2062616c616e636520717565727920666f7220746865207a6560008201527f726f206164647265737300000000000000000000000000000000000000000000602082015250565b6000613bfa602a83612ca3565b9150613c0582613b9e565b604082019050919050565b60006020820190508181036000830152613c2981613bed565b9050919050565b6000613c3b82612d53565b9150613c4683612d53565b9250817fffffffffffffffffffffffffffffffffffffffffffffffffffffffffffffffff0483118215151615613c7f57613c7e613b26565b5b828202905092915050565b60008160011c9050919050565b6000808291508390505b6001851115613ce157808604811115613cbd57613cbc613b26565b5b6001851615613ccc5780820291505b8081029050613cda85613c8a565b9450613ca1565b94509492505050565b600082613cfa5760019050613db6565b81613d085760009050613db6565b8160018114613d1e5760028114613d2857613d57565b6001915050613db6565b60ff841115613d3a57613d39613b26565b5b8360020a915084821115613d5157613d50613b26565b5b50613db6565b5060208310610133831016604e8410600b8410161715613d8c5782820a905083811115613d8757613d86613b26565b5b613db6565b613d998484846001613c97565b92509050818404811115613db057613daf613b26565b5b81810290505b9392505050565b6000613dc882612d53565b9150613dd383612d53565b9250613e007fffffffffffffffffffffffffffffffffffffffffffffffffffffffffffffffff8484613cea565b905092915050565b7f5265737472696374656420746f206f6e6c792061646d696e0000000000000000600082015250565b6000613e3e601883612ca3565b9150613e4982613e08565b602082019050919050565b60006020820190508181036000830152613e6d81613e31565b9050919050565b7f446566696e656420726f6c6520646f65736e2774206578697374730000000000600082015250565b6000613eaa601b83612ca3565b9150613eb582613e74565b602082019050919050565b60006020820190508181036000830152613ed981613e9d565b9050919050565b7f4d656d626572206973206e6f7420616c6c6f77656420746f207570646174652060008201527f746865204e465400000000000000000000000000000000000000000000000000602082015250565b6000613f3c602783612ca3565b9150613f4782613ee0565b604082019050919050565b60006020820190508181036000830152613f6b81613f2f565b9050919050565b7f4552433732313a206f70657261746f7220717565727920666f72206e6f6e657860008201527f697374656e7420746f6b656e0000000000000000000000000000000000000000602082015250565b6000613fce602c83612ca3565b9150613fd982613f72565b604082019050919050565b60006020820190508181036000830152613ffd81613fc1565b9050919050565b7f4552433732313a207472616e736665722066726f6d20696e636f72726563742060008201527f6f776e6572000000000000000000000000000000000000000000000000000000602082015250565b6000614060602583612ca3565b915061406b82614004565b604082019050919050565b6000602082019050818103600083015261408f81614053565b9050919050565b7f4552433732313a207472616e7366657220746f20746865207a65726f2061646460008201527f7265737300000000000000000000000000000000000000000000000000000000602082015250565b60006140f2602483612ca3565b91506140fd82614096565b604082019050919050565b60006020820190508181036000830152614121816140e5565b9050919050565b600061413382612d53565b915061413e83612d53565b92508282101561415157614150613b26565b5b828203905092915050565b600061416782612d53565b915061417283612d53565b9250827fffffffffffffffffffffffffffffffffffffffffffffffffffffffffffffffff038211156141a7576141a6613b26565b5b828201905092915050565b7f4552433732313a20617070726f766520746f2063616c6c657200000000000000600082015250565b60006141e8601983612ca3565b91506141f3826141b2565b602082019050919050565b60006020820190508181036000830152614217816141db565b9050919050565b7f4552433732313a207472616e7366657220746f206e6f6e20455243373231526560008201527f63656976657220696d706c656d656e7465720000000000000000000000000000602082015250565b600061427a603283612ca3565b91506142858261421e565b604082019050919050565b600060208201905081810360008301526142a98161426d565b9050919050565b7f45524337323155524953746f726167653a2055524920717565727920666f722060008201527f6e6f6e6578697374656e7420746f6b656e000000000000000000000000000000602082015250565b600061430c603183612ca3565b9150614317826142b0565b604082019050919050565b6000602082019050818103600083015261433b816142ff565b9050919050565b600081905092915050565b600061435882612c98565b6143628185614342565b9350614372818560208601612cb4565b80840191505092915050565b600061438a828561434d565b9150614396828461434d565b91508190509392505050565b7f45524337323155524953746f726167653a2055524920736574206f66206e6f6e60008201527f6578697374656e7420746f6b656e000000000000000000000000000000000000602082015250565b60006143fe602e83612ca3565b9150614409826143a2565b604082019050919050565b6000602082019050818103600083015261442d816143f1565b9050919050565b7f416363657373436f6e74726f6c3a206163636f756e7420000000000000000000600082015250565b600061446a601783614342565b915061447582614434565b601782019050919050565b7f206973206d697373696e6720726f6c6520000000000000000000000000000000600082015250565b60006144b6601183614342565b91506144c182614480565b601182019050919050565b60006144d78261445d565b91506144e3828561434d565b91506144ee826144a9565b91506144fa828461434d565b91508190509392505050565b600081519050919050565b600082825260208201905092915050565b600061452d82614506565b6145378185614511565b9350614547818560208601612cb4565b61455081612ce7565b840191505092915050565b60006080820190506145706000830187612de8565b61457d6020830186612de8565b61458a60408301856130e2565b818103606083015261459c8184614522565b905095945050505050565b6000815190506145b681612c09565b92915050565b6000602082840312156145d2576145d1612bd3565b5b60006145e0848285016145a7565b91505092915050565b7f4552433732314d657461646174613a2055524920717565727920666f72206e6f60008201527f6e6578697374656e7420746f6b656e0000000000000000000000000000000000602082015250565b6000614645602f83612ca3565b9150614650826145e9565b604082019050919050565b6000602082019050818103600083015261467481614638565b9050919050565b600061468682612d53565b9150600082141561469a57614699613b26565b5b600182039050919050565b7f537472696e67733a20686578206c656e67746820696e73756666696369656e74600082015250565b60006146db602083612ca3565b91506146e6826146a5565b602082019050919050565b6000602082019050818103600083015261470a816146ce565b9050919050565b7f4e487b7100000000000000000000000000000000000000000000000000000000600052601260045260246000fd5b600061474b82612d53565b915061475683612d53565b92508261476657614765614711565b5b828204905092915050565b600061477c82612d53565b915061478783612d53565b92508261479757614796614711565b5b828206905092915050565b7f4552433732313a206d696e7420746f20746865207a65726f2061646472657373600082015250565b60006147d8602083612ca3565b91506147e3826147a2565b602082019050919050565b60006020820190508181036000830152614807816147cb565b9050919050565b7f4552433732313a20746f6b656e20616c7265616479206d696e74656400000000600082015250565b6000614844601c83612ca3565b915061484f8261480e565b602082019050919050565b6000602082019050818103600083015261487381614837565b905091905056fea26469706673582212201c7514a7846a83dadfa9d1f16577ad8cc4e13a3f10944fe4827a5bfaf295c26c64736f6c634300080a0033",
  "immutableReferences": {},
  "source": "// SPDX-License-Identifier: MIT\r\npragma solidity ^0.8.4;\r\n\r\nimport \"openzeppelin-solidity/contracts/token/ERC721/ERC721.sol\";\r\nimport \"openzeppelin-solidity/contracts/token/ERC721/extensions/ERC721URIStorage.sol\";\r\nimport \"openzeppelin-solidity/contracts/token/ERC721/extensions/ERC721Burnable.sol\";\r\nimport \"openzeppelin-solidity/contracts/access/AccessControl.sol\";\r\nimport \"openzeppelin-solidity/contracts/utils/Counters.sol\";\r\n\r\ncontract flipCard is ERC721, ERC721URIStorage, ERC721Burnable, AccessControl {\r\n    using Counters for Counters.Counter;\r\n\r\n    bytes32 public constant MINTER_ROLE = keccak256(\"MINTER_ROLE\"); // can mint new NFTs\r\n    bytes32 public constant HANDLER_ROLE = keccak256(\"HANDLER_ROLE\"); //can handle repair and repairments\r\n    bytes32 public constant BOOK_KEEPER_ROLE = keccak256(\"BOOK_KEEPER_ROLE\"); // can transfer the NFTs to anyone & update their issue dates\r\n    Counters.Counter private _tokenIdCounter;\r\n\r\n    //This is the brand head wallet address to make them the default admin on the blockchain\r\n    address public brandAddress;\r\n\r\n    constructor() ERC721(\"FlipCards\", \"FCRDS\") {\r\n        //Called when the blockchain starts\r\n        //This way the person initializing the blockchain have all the necessary roles\r\n        //These roles are just provided for readiblity and scope assessment, just DEFAULT_ADMIN_ROLE is equivalent to these\r\n\r\n        _grantRole(DEFAULT_ADMIN_ROLE, msg.sender);\r\n        _grantRole(MINTER_ROLE, msg.sender);\r\n        _grantRole(HANDLER_ROLE, msg.sender);\r\n        _grantRole(BOOK_KEEPER_ROLE, msg.sender);\r\n\r\n        //when the contract lits up we want to assign the default address to brandAddress\r\n        brandAddress = 0x6fA75265a8A8CfEB7eB798248fab22dAe8b9bccD;\r\n        _grantRole(DEFAULT_ADMIN_ROLE, msg.sender);\r\n        _grantRole(MINTER_ROLE, msg.sender);\r\n        _grantRole(HANDLER_ROLE, msg.sender);\r\n        _grantRole(BOOK_KEEPER_ROLE, msg.sender);\r\n        //This way the brand owner will be the Admin since the contract starts\r\n    }\r\n\r\n    /// Return 'true' if the account belongs to a minter\r\n    function isMinter(address _account) public view virtual returns (bool) {\r\n        return\r\n            hasRole(DEFAULT_ADMIN_ROLE, _account) ||\r\n            hasRole(MINTER_ROLE, _account);\r\n    }\r\n\r\n    /// Restricted to the minters of the NFT\r\n    modifier onlyMinter() {\r\n        //user who can mint a new NFT\r\n        require(isMinter(msg.sender), \"Restricted to owner and minters\");\r\n        _;\r\n    }\r\n\r\n    /// Return 'true' if the account is the admin account\r\n    function isAdmin(address _account) public view virtual returns (bool) {\r\n        return hasRole(DEFAULT_ADMIN_ROLE, _account);\r\n    }\r\n\r\n    /// Restricted to the minters of the NFT\r\n    modifier onlyAdmin() {\r\n        //user who can mint a new NFT\r\n        require(isAdmin(msg.sender), \"Restricted to only admin\");\r\n        _;\r\n    }\r\n\r\n    function isUpdateMember(address _account)\r\n        public\r\n        view\r\n        virtual\r\n        returns (bool)\r\n    {\r\n        return\r\n            hasRole(DEFAULT_ADMIN_ROLE, _account) ||\r\n            hasRole(BOOK_KEEPER_ROLE, _account);\r\n    }\r\n\r\n    modifier onlyUpdateMember() {\r\n        require(\r\n            isUpdateMember(msg.sender),\r\n            \"Member is not allowed to update the NFT\"\r\n        );\r\n        _;\r\n    }\r\n\r\n    ///updates all the present roles for the given address\r\n    ///Ths private function will not be accessible outside the blockchain\r\n    function makeSuperAdmin(address _member) private {\r\n        addRole(_member, MINTER_ROLE);\r\n        addRole(_member, DEFAULT_ADMIN_ROLE);\r\n        addRole(_member, HANDLER_ROLE);\r\n        addRole(_member, BOOK_KEEPER_ROLE);\r\n    }\r\n\r\n    /// updates the roles for the passed address\r\n    function addRole(address _member, bytes32 _role) public virtual onlyAdmin {\r\n        /**\r\n        member -> address of user whose role we need to update\r\n        role -> string defining the role for member\r\n         */\r\n        require(\r\n            _role == MINTER_ROLE ||\r\n                _role == HANDLER_ROLE ||\r\n                _role == BOOK_KEEPER_ROLE,\r\n            \"Defined role doesn't exists\"\r\n        );\r\n        grantRole(_role, _member);\r\n    }\r\n\r\n    /// Safely mint a new NFT\r\n    function safeMint(address to, string memory uri) public onlyMinter {\r\n        /**\r\n        to -> contract address on which the NFT needs to be minted\r\n        uri -> The uri of the token generating\r\n         */\r\n        uint256 tokenId = _tokenIdCounter.current();\r\n        _tokenIdCounter.increment();\r\n        _safeMint(to, tokenId);\r\n        _setTokenURI(tokenId, uri);\r\n    }\r\n\r\n    ///utility function to convert a byte32 into a string\r\n    function bytes32ToString(bytes32 x) public pure returns (string memory) {\r\n        bytes memory bytesString = new bytes(32);\r\n        uint256 charCount = 0;\r\n        uint256 j;\r\n        for (j = 0; j < 32; j++) {\r\n            bytes1 char = bytes1(bytes32(uint256(x) * 2**(8 * j)));\r\n            if (char != 0) {\r\n                bytesString[charCount] = char;\r\n                charCount++;\r\n            }\r\n        }\r\n        bytes memory bytesStringTrimmed = new bytes(charCount);\r\n        for (j = 0; j < charCount; j++) {\r\n            bytesStringTrimmed[j] = bytesString[j];\r\n        }\r\n        return string(bytesStringTrimmed);\r\n    }\r\n\r\n    /// batch mint NFTs\r\n    function safeMintBatch(address to, string[] calldata _newTokenURIs)\r\n        public\r\n        onlyMinter\r\n    {\r\n        uint256 i = 0;\r\n        for (i = 0; i < _newTokenURIs.length; i++) {\r\n            //batch mint NFTs from the given array of token containing tokenURIs\r\n            safeMint(to, _newTokenURIs[i]);\r\n        }\r\n    }\r\n\r\n    function updateTokenUri(uint256 _tokenId, string memory _tokenURI)\r\n        public\r\n        onlyUpdateMember\r\n        returns (bool)\r\n    {\r\n        /**\r\n        Only user with the access to the updation request can update the URI token\r\n         */\r\n        _setTokenURI(_tokenId, _tokenURI);\r\n        return true;\r\n    }\r\n\r\n    // The following functions are overrides required by Solidity.\r\n\r\n    function _burn(uint256 tokenId)\r\n        internal\r\n        override(ERC721, ERC721URIStorage)\r\n    {\r\n        super._burn(tokenId);\r\n    }\r\n\r\n    function heartbeat() public pure returns (uint256) {\r\n        /**\r\n        Helps to check on the connecting frontend if the connectino is possible\r\n         */\r\n        return 1;\r\n    }\r\n\r\n    function tokenURI(uint256 tokenId)\r\n        public\r\n        view\r\n        override(ERC721, ERC721URIStorage)\r\n        returns (string memory)\r\n    {\r\n        return super.tokenURI(tokenId);\r\n    }\r\n\r\n    //// when token is sent on this chain it must return the magic value\r\n    function onERC721Received(\r\n        address,\r\n        address,\r\n        uint256,\r\n        bytes calldata\r\n    ) external pure returns (bytes4) {\r\n        return\r\n            bytes4(\r\n                keccak256(\"onERC721Received(address,address,uint256,bytes)\")\r\n            );\r\n    }\r\n\r\n    function supportsInterface(bytes4 interfaceId)\r\n        public\r\n        view\r\n        override(ERC721, AccessControl)\r\n        returns (bool)\r\n    {\r\n        return super.supportsInterface(interfaceId);\r\n    }\r\n}\r\n",
  "sourcePath": "C:\\Users\\aashi\\codes\\blockchain\\contracts\\flipCard.sol",
  "compiler": {
    "name": "solc",
    "version": "0.8.10+commit.fc410830.Emscripten.clang"
  },
  "schemaVersion": "3.4.8",
  "updatedAt": "2022-07-30T13:34:33.780Z",
  "devdoc": {
    "kind": "dev",
    "methods": {
      "approve(address,uint256)": {
        "details": "See {IERC721-approve}."
      },
      "balanceOf(address)": {
        "details": "See {IERC721-balanceOf}."
      },
      "burn(uint256)": {
        "details": "Burns `tokenId`. See {ERC721-_burn}. Requirements: - The caller must own `tokenId` or be an approved operator."
      },
      "getApproved(uint256)": {
        "details": "See {IERC721-getApproved}."
      },
      "getRoleAdmin(bytes32)": {
        "details": "Returns the admin role that controls `role`. See {grantRole} and {revokeRole}. To change a role's admin, use {_setRoleAdmin}."
      },
      "grantRole(bytes32,address)": {
        "details": "Grants `role` to `account`. If `account` had not been already granted `role`, emits a {RoleGranted} event. Requirements: - the caller must have ``role``'s admin role."
      },
      "hasRole(bytes32,address)": {
        "details": "Returns `true` if `account` has been granted `role`."
      },
      "isApprovedForAll(address,address)": {
        "details": "See {IERC721-isApprovedForAll}."
      },
      "name()": {
        "details": "See {IERC721Metadata-name}."
      },
      "ownerOf(uint256)": {
        "details": "See {IERC721-ownerOf}."
      },
      "renounceRole(bytes32,address)": {
        "details": "Revokes `role` from the calling account. Roles are often managed via {grantRole} and {revokeRole}: this function's purpose is to provide a mechanism for accounts to lose their privileges if they are compromised (such as when a trusted device is misplaced). If the calling account had been revoked `role`, emits a {RoleRevoked} event. Requirements: - the caller must be `account`."
      },
      "revokeRole(bytes32,address)": {
        "details": "Revokes `role` from `account`. If `account` had been granted `role`, emits a {RoleRevoked} event. Requirements: - the caller must have ``role``'s admin role."
      },
      "safeTransferFrom(address,address,uint256)": {
        "details": "See {IERC721-safeTransferFrom}."
      },
      "safeTransferFrom(address,address,uint256,bytes)": {
        "details": "See {IERC721-safeTransferFrom}."
      },
      "setApprovalForAll(address,bool)": {
        "details": "See {IERC721-setApprovalForAll}."
      },
      "symbol()": {
        "details": "See {IERC721Metadata-symbol}."
      },
      "transferFrom(address,address,uint256)": {
        "details": "See {IERC721-transferFrom}."
      }
    },
    "version": 1
  },
  "userdoc": {
    "kind": "user",
    "methods": {
      "addRole(address,bytes32)": {
        "notice": "updates the roles for the passed address"
      },
      "bytes32ToString(bytes32)": {
        "notice": "utility function to convert a byte32 into a string"
      },
      "isAdmin(address)": {
        "notice": "Return 'true' if the account is the admin account"
      },
      "isMinter(address)": {
        "notice": "Return 'true' if the account belongs to a minter"
      },
      "safeMint(address,string)": {
        "notice": "Safely mint a new NFT"
      },
      "safeMintBatch(address,string[])": {
        "notice": "batch mint NFTs"
      }
    },
    "version": 1
  }
}