{
  "contractName": "flipCard",
  "abi": [
    {
      "inputs": [],
      "stateMutability": "nonpayable",
      "type": "constructor"
    },
    {
      "anonymous": false,
      "inputs": [
        {
          "indexed": true,
          "internalType": "address",
          "name": "owner",
          "type": "address"
        },
        {
          "indexed": true,
          "internalType": "address",
          "name": "approved",
          "type": "address"
        },
        {
          "indexed": true,
          "internalType": "uint256",
          "name": "tokenId",
          "type": "uint256"
        }
      ],
      "name": "Approval",
      "type": "event"
    },
    {
      "anonymous": false,
      "inputs": [
        {
          "indexed": true,
          "internalType": "address",
          "name": "owner",
          "type": "address"
        },
        {
          "indexed": true,
          "internalType": "address",
          "name": "operator",
          "type": "address"
        },
        {
          "indexed": false,
          "internalType": "bool",
          "name": "approved",
          "type": "bool"
        }
      ],
      "name": "ApprovalForAll",
      "type": "event"
    },
    {
      "anonymous": false,
      "inputs": [
        {
          "indexed": true,
          "internalType": "bytes32",
          "name": "role",
          "type": "bytes32"
        },
        {
          "indexed": true,
          "internalType": "bytes32",
          "name": "previousAdminRole",
          "type": "bytes32"
        },
        {
          "indexed": true,
          "internalType": "bytes32",
          "name": "newAdminRole",
          "type": "bytes32"
        }
      ],
      "name": "RoleAdminChanged",
      "type": "event"
    },
    {
      "anonymous": false,
      "inputs": [
        {
          "indexed": true,
          "internalType": "bytes32",
          "name": "role",
          "type": "bytes32"
        },
        {
          "indexed": true,
          "internalType": "address",
          "name": "account",
          "type": "address"
        },
        {
          "indexed": true,
          "internalType": "address",
          "name": "sender",
          "type": "address"
        }
      ],
      "name": "RoleGranted",
      "type": "event"
    },
    {
      "anonymous": false,
      "inputs": [
        {
          "indexed": true,
          "internalType": "bytes32",
          "name": "role",
          "type": "bytes32"
        },
        {
          "indexed": true,
          "internalType": "address",
          "name": "account",
          "type": "address"
        },
        {
          "indexed": true,
          "internalType": "address",
          "name": "sender",
          "type": "address"
        }
      ],
      "name": "RoleRevoked",
      "type": "event"
    },
    {
      "anonymous": false,
      "inputs": [
        {
          "indexed": true,
          "internalType": "address",
          "name": "from",
          "type": "address"
        },
        {
          "indexed": true,
          "internalType": "address",
          "name": "to",
          "type": "address"
        },
        {
          "indexed": true,
          "internalType": "uint256",
          "name": "tokenId",
          "type": "uint256"
        }
      ],
      "name": "Transfer",
      "type": "event"
    },
    {
      "inputs": [],
      "name": "BOOK_KEEPER_ROLE",
      "outputs": [
        {
          "internalType": "bytes32",
          "name": "",
          "type": "bytes32"
        }
      ],
      "stateMutability": "view",
      "type": "function"
    },
    {
      "inputs": [],
      "name": "DEFAULT_ADMIN_ROLE",
      "outputs": [
        {
          "internalType": "bytes32",
          "name": "",
          "type": "bytes32"
        }
      ],
      "stateMutability": "view",
      "type": "function"
    },
    {
      "inputs": [],
      "name": "HANDLER_ROLE",
      "outputs": [
        {
          "internalType": "bytes32",
          "name": "",
          "type": "bytes32"
        }
      ],
      "stateMutability": "view",
      "type": "function"
    },
    {
      "inputs": [],
      "name": "MINTER_ROLE",
      "outputs": [
        {
          "internalType": "bytes32",
          "name": "",
          "type": "bytes32"
        }
      ],
      "stateMutability": "view",
      "type": "function"
    },
    {
      "inputs": [
        {
          "internalType": "address",
          "name": "to",
          "type": "address"
        },
        {
          "internalType": "uint256",
          "name": "tokenId",
          "type": "uint256"
        }
      ],
      "name": "approve",
      "outputs": [],
      "stateMutability": "nonpayable",
      "type": "function"
    },
    {
      "inputs": [
        {
          "internalType": "address",
          "name": "owner",
          "type": "address"
        }
      ],
      "name": "balanceOf",
      "outputs": [
        {
          "internalType": "uint256",
          "name": "",
          "type": "uint256"
        }
      ],
      "stateMutability": "view",
      "type": "function"
    },
    {
      "inputs": [],
      "name": "brandAddress",
      "outputs": [
        {
          "internalType": "address",
          "name": "",
          "type": "address"
        }
      ],
      "stateMutability": "view",
      "type": "function"
    },
    {
      "inputs": [
        {
          "internalType": "uint256",
          "name": "tokenId",
          "type": "uint256"
        }
      ],
      "name": "burn",
      "outputs": [],
      "stateMutability": "nonpayable",
      "type": "function"
    },
    {
      "inputs": [
        {
          "internalType": "uint256",
          "name": "tokenId",
          "type": "uint256"
        }
      ],
      "name": "getApproved",
      "outputs": [
        {
          "internalType": "address",
          "name": "",
          "type": "address"
        }
      ],
      "stateMutability": "view",
      "type": "function"
    },
    {
      "inputs": [
        {
          "internalType": "bytes32",
          "name": "role",
          "type": "bytes32"
        }
      ],
      "name": "getRoleAdmin",
      "outputs": [
        {
          "internalType": "bytes32",
          "name": "",
          "type": "bytes32"
        }
      ],
      "stateMutability": "view",
      "type": "function"
    },
    {
      "inputs": [
        {
          "internalType": "bytes32",
          "name": "role",
          "type": "bytes32"
        },
        {
          "internalType": "address",
          "name": "account",
          "type": "address"
        }
      ],
      "name": "grantRole",
      "outputs": [],
      "stateMutability": "nonpayable",
      "type": "function"
    },
    {
      "inputs": [
        {
          "internalType": "bytes32",
          "name": "role",
          "type": "bytes32"
        },
        {
          "internalType": "address",
          "name": "account",
          "type": "address"
        }
      ],
      "name": "hasRole",
      "outputs": [
        {
          "internalType": "bool",
          "name": "",
          "type": "bool"
        }
      ],
      "stateMutability": "view",
      "type": "function"
    },
    {
      "inputs": [
        {
          "internalType": "address",
          "name": "owner",
          "type": "address"
        },
        {
          "internalType": "address",
          "name": "operator",
          "type": "address"
        }
      ],
      "name": "isApprovedForAll",
      "outputs": [
        {
          "internalType": "bool",
          "name": "",
          "type": "bool"
        }
      ],
      "stateMutability": "view",
      "type": "function"
    },
    {
      "inputs": [],
      "name": "name",
      "outputs": [
        {
          "internalType": "string",
          "name": "",
          "type": "string"
        }
      ],
      "stateMutability": "view",
      "type": "function"
    },
    {
      "inputs": [
        {
          "internalType": "uint256",
          "name": "tokenId",
          "type": "uint256"
        }
      ],
      "name": "ownerOf",
      "outputs": [
        {
          "internalType": "address",
          "name": "",
          "type": "address"
        }
      ],
      "stateMutability": "view",
      "type": "function"
    },
    {
      "inputs": [
        {
          "internalType": "bytes32",
          "name": "role",
          "type": "bytes32"
        },
        {
          "internalType": "address",
          "name": "account",
          "type": "address"
        }
      ],
      "name": "renounceRole",
      "outputs": [],
      "stateMutability": "nonpayable",
      "type": "function"
    },
    {
      "inputs": [
        {
          "internalType": "bytes32",
          "name": "role",
          "type": "bytes32"
        },
        {
          "internalType": "address",
          "name": "account",
          "type": "address"
        }
      ],
      "name": "revokeRole",
      "outputs": [],
      "stateMutability": "nonpayable",
      "type": "function"
    },
    {
      "inputs": [
        {
          "internalType": "address",
          "name": "from",
          "type": "address"
        },
        {
          "internalType": "address",
          "name": "to",
          "type": "address"
        },
        {
          "internalType": "uint256",
          "name": "tokenId",
          "type": "uint256"
        }
      ],
      "name": "safeTransferFrom",
      "outputs": [],
      "stateMutability": "nonpayable",
      "type": "function"
    },
    {
      "inputs": [
        {
          "internalType": "address",
          "name": "from",
          "type": "address"
        },
        {
          "internalType": "address",
          "name": "to",
          "type": "address"
        },
        {
          "internalType": "uint256",
          "name": "tokenId",
          "type": "uint256"
        },
        {
          "internalType": "bytes",
          "name": "_data",
          "type": "bytes"
        }
      ],
      "name": "safeTransferFrom",
      "outputs": [],
      "stateMutability": "nonpayable",
      "type": "function"
    },
    {
      "inputs": [
        {
          "internalType": "address",
          "name": "operator",
          "type": "address"
        },
        {
          "internalType": "bool",
          "name": "approved",
          "type": "bool"
        }
      ],
      "name": "setApprovalForAll",
      "outputs": [],
      "stateMutability": "nonpayable",
      "type": "function"
    },
    {
      "inputs": [],
      "name": "symbol",
      "outputs": [
        {
          "internalType": "string",
          "name": "",
          "type": "string"
        }
      ],
      "stateMutability": "view",
      "type": "function"
    },
    {
      "inputs": [
        {
          "internalType": "address",
          "name": "from",
          "type": "address"
        },
        {
          "internalType": "address",
          "name": "to",
          "type": "address"
        },
        {
          "internalType": "uint256",
          "name": "tokenId",
          "type": "uint256"
        }
      ],
      "name": "transferFrom",
      "outputs": [],
      "stateMutability": "nonpayable",
      "type": "function"
    },
    {
      "inputs": [
        {
          "internalType": "address",
          "name": "_account",
          "type": "address"
        }
      ],
      "name": "isMinter",
      "outputs": [
        {
          "internalType": "bool",
          "name": "",
          "type": "bool"
        }
      ],
      "stateMutability": "view",
      "type": "function"
    },
    {
      "inputs": [
        {
          "internalType": "address",
          "name": "_account",
          "type": "address"
        }
      ],
      "name": "isAdmin",
      "outputs": [
        {
          "internalType": "bool",
          "name": "",
          "type": "bool"
        }
      ],
      "stateMutability": "view",
      "type": "function"
    },
    {
      "inputs": [
        {
          "internalType": "address",
          "name": "_account",
          "type": "address"
        }
      ],
      "name": "isUpdateMember",
      "outputs": [
        {
          "internalType": "bool",
          "name": "",
          "type": "bool"
        }
      ],
      "stateMutability": "view",
      "type": "function"
    },
    {
      "inputs": [
        {
          "internalType": "address",
          "name": "_member",
          "type": "address"
        }
      ],
      "name": "makeSuperAdmin",
      "outputs": [],
      "stateMutability": "nonpayable",
      "type": "function"
    },
    {
      "inputs": [
        {
          "internalType": "address",
          "name": "_member",
          "type": "address"
        },
        {
          "internalType": "bytes32",
          "name": "_role",
          "type": "bytes32"
        }
      ],
      "name": "addRole",
      "outputs": [],
      "stateMutability": "nonpayable",
      "type": "function"
    },
    {
      "inputs": [
        {
          "internalType": "address",
          "name": "to",
          "type": "address"
        },
        {
          "internalType": "string",
          "name": "uri",
          "type": "string"
        }
      ],
      "name": "safeMint",
      "outputs": [],
      "stateMutability": "nonpayable",
      "type": "function"
    },
    {
      "inputs": [
        {
          "internalType": "bytes32",
          "name": "x",
          "type": "bytes32"
        }
      ],
      "name": "bytes32ToString",
      "outputs": [
        {
          "internalType": "string",
          "name": "",
          "type": "string"
        }
      ],
      "stateMutability": "pure",
      "type": "function"
    },
    {
      "inputs": [
        {
          "internalType": "address",
          "name": "to",
          "type": "address"
        },
        {
          "internalType": "bytes32[]",
          "name": "_newTokenURIs",
          "type": "bytes32[]"
        }
      ],
      "name": "safeMintBatch",
      "outputs": [],
      "stateMutability": "nonpayable",
      "type": "function"
    },
    {
      "inputs": [
        {
          "internalType": "uint256",
          "name": "_tokenId",
          "type": "uint256"
        },
        {
          "internalType": "string",
          "name": "_tokenURI",
          "type": "string"
        }
      ],
      "name": "updateTokenUri",
      "outputs": [
        {
          "internalType": "bool",
          "name": "",
          "type": "bool"
        }
      ],
      "stateMutability": "nonpayable",
      "type": "function"
    },
    {
      "inputs": [],
      "name": "heartbeat",
      "outputs": [
        {
          "internalType": "uint256",
          "name": "",
          "type": "uint256"
        }
      ],
      "stateMutability": "pure",
      "type": "function"
    },
    {
      "inputs": [
        {
          "internalType": "uint256",
          "name": "tokenId",
          "type": "uint256"
        }
      ],
      "name": "tokenURI",
      "outputs": [
        {
          "internalType": "string",
          "name": "",
          "type": "string"
        }
      ],
      "stateMutability": "view",
      "type": "function"
    },
    {
      "inputs": [
        {
          "internalType": "address",
          "name": "",
          "type": "address"
        },
        {
          "internalType": "address",
          "name": "",
          "type": "address"
        },
        {
          "internalType": "uint256",
          "name": "",
          "type": "uint256"
        },
        {
          "internalType": "bytes",
          "name": "",
          "type": "bytes"
        }
      ],
      "name": "onERC721Received",
      "outputs": [
        {
          "internalType": "bytes4",
          "name": "",
          "type": "bytes4"
        }
      ],
      "stateMutability": "pure",
      "type": "function"
    },
    {
      "inputs": [
        {
          "internalType": "bytes4",
          "name": "interfaceId",
          "type": "bytes4"
        }
      ],
      "name": "supportsInterface",
      "outputs": [
        {
          "internalType": "bool",
          "name": "",
          "type": "bool"
        }
      ],
      "stateMutability": "view",
      "type": "function"
    }
  ],
  "bytecode": "0x60806040523480156200001157600080fd5b506040518060400160405280600981526020017f466c6970436172647300000000000000000000000000000000000000000000008152506040518060400160405280600581526020017f464352445300000000000000000000000000000000000000000000000000000081525081600090805190602001906200009692919062000895565b508060019080519060200190620000af92919062000895565b505050620000c3336200015160201b60201c565b736fa75265a8a8cfeb7eb798248fab22dae8b9bccd600960006101000a81548173ffffffffffffffffffffffffffffffffffffffff021916908373ffffffffffffffffffffffffffffffffffffffff1602179055506200014b600960009054906101000a900473ffffffffffffffffffffffffffffffffffffffff166200015160201b60201c565b62000e70565b62000162336200025260201b60201c565b620001a4576040517f08c379a00000000000000000000000000000000000000000000000000000000081526004016200019b90620009a6565b60405180910390fd5b620001d6817f9f2df0fed2c77648de5860a4cc508cd0818c85b8b8a1ab4ceeef8d981c8956a66200027060201b60201c565b620001eb816000801b6200027060201b60201c565b6200021d817f8ee6ed50dc250dbccf4d86bd88d4956ab55c7de37d1fed5508924b70da11fe8b6200027060201b60201c565b6200024f817f1cf2b81dce95f0e7b91e95903f9b70bc58c33207c55b6b0bc3ba3d0522942e316200027060201b60201c565b50565b6000620002696000801b836200039460201b60201c565b9050919050565b62000281336200025260201b60201c565b620002c3576040517f08c379a0000000000000000000000000000000000000000000000000000000008152600401620002ba90620009a6565b60405180910390fd5b7f9f2df0fed2c77648de5860a4cc508cd0818c85b8b8a1ab4ceeef8d981c8956a68114806200031157507f8ee6ed50dc250dbccf4d86bd88d4956ab55c7de37d1fed5508924b70da11fe8b81145b806200033c57507f1cf2b81dce95f0e7b91e95903f9b70bc58c33207c55b6b0bc3ba3d0522942e3181145b6200037e576040517f08c379a0000000000000000000000000000000000000000000000000000000008152600401620003759062000a18565b60405180910390fd5b620003908183620003ff60201b60201c565b5050565b60006007600084815260200190815260200160002060000160008373ffffffffffffffffffffffffffffffffffffffff1673ffffffffffffffffffffffffffffffffffffffff16815260200190815260200160002060009054906101000a900460ff16905092915050565b62000410826200043860201b60201c565b62000421816200045860201b60201c565b6200043383836200047c60201b60201c565b505050565b600060076000838152602001908152602001600020600101549050919050565b62000479816200046d6200056e60201b60201c565b6200057660201b60201c565b50565b6200048e82826200039460201b60201c565b6200056a5760016007600084815260200190815260200160002060000160008373ffffffffffffffffffffffffffffffffffffffff1673ffffffffffffffffffffffffffffffffffffffff16815260200190815260200160002060006101000a81548160ff0219169083151502179055506200050f6200056e60201b60201c565b73ffffffffffffffffffffffffffffffffffffffff168173ffffffffffffffffffffffffffffffffffffffff16837f2f8788117e7eff1d82e926ec794901d17c78024a50270940304540a733656f0d60405160405180910390a45b5050565b600033905090565b6200058882826200039460201b60201c565b6200063657620005bb8173ffffffffffffffffffffffffffffffffffffffff1660146200063a60201b6200155d1760201c565b620005d68360001c60206200063a60201b6200155d1760201c565b604051602001620005e992919062000b5d565b6040516020818303038152906040526040517f08c379a00000000000000000000000000000000000000000000000000000000081526004016200062d919062000bf1565b60405180910390fd5b5050565b6060600060028360026200064f919062000c4e565b6200065b919062000caf565b67ffffffffffffffff81111562000677576200067662000d0c565b5b6040519080825280601f01601f191660200182016040528015620006aa5781602001600182028036833780820191505090505b5090507f300000000000000000000000000000000000000000000000000000000000000081600081518110620006e557620006e462000d3b565b5b60200101907effffffffffffffffffffffffffffffffffffffffffffffffffffffffffffff1916908160001a9053507f7800000000000000000000000000000000000000000000000000000000000000816001815181106200074c576200074b62000d3b565b5b60200101907effffffffffffffffffffffffffffffffffffffffffffffffffffffffffffff1916908160001a905350600060018460026200078e919062000c4e565b6200079a919062000caf565b90505b600181111562000844577f3031323334353637383961626364656600000000000000000000000000000000600f861660108110620007e057620007df62000d3b565b5b1a60f81b828281518110620007fa57620007f962000d3b565b5b60200101907effffffffffffffffffffffffffffffffffffffffffffffffffffffffffffff1916908160001a905350600485901c9450806200083c9062000d6a565b90506200079d565b50600084146200088b576040517f08c379a0000000000000000000000000000000000000000000000000000000008152600401620008829062000de9565b60405180910390fd5b8091505092915050565b828054620008a39062000e3a565b90600052602060002090601f016020900481019282620008c7576000855562000913565b82601f10620008e257805160ff191683800117855562000913565b8280016001018555821562000913579182015b8281111562000912578251825591602001919060010190620008f5565b5b50905062000922919062000926565b5090565b5b808211156200094157600081600090555060010162000927565b5090565b600082825260208201905092915050565b7f5265737472696374656420746f206f6e6c792061646d696e0000000000000000600082015250565b60006200098e60188362000945565b91506200099b8262000956565b602082019050919050565b60006020820190508181036000830152620009c1816200097f565b9050919050565b7f446566696e656420726f6c6520646f65736e2774206578697374730000000000600082015250565b600062000a00601b8362000945565b915062000a0d82620009c8565b602082019050919050565b6000602082019050818103600083015262000a3381620009f1565b9050919050565b600081905092915050565b7f416363657373436f6e74726f6c3a206163636f756e7420000000000000000000600082015250565b600062000a7d60178362000a3a565b915062000a8a8262000a45565b601782019050919050565b600081519050919050565b60005b8381101562000ac057808201518184015260208101905062000aa3565b8381111562000ad0576000848401525b50505050565b600062000ae38262000a95565b62000aef818562000a3a565b935062000b0181856020860162000aa0565b80840191505092915050565b7f206973206d697373696e6720726f6c6520000000000000000000000000000000600082015250565b600062000b4560118362000a3a565b915062000b528262000b0d565b601182019050919050565b600062000b6a8262000a6e565b915062000b78828562000ad6565b915062000b858262000b36565b915062000b93828462000ad6565b91508190509392505050565b6000601f19601f8301169050919050565b600062000bbd8262000a95565b62000bc9818562000945565b935062000bdb81856020860162000aa0565b62000be68162000b9f565b840191505092915050565b6000602082019050818103600083015262000c0d818462000bb0565b905092915050565b6000819050919050565b7f4e487b7100000000000000000000000000000000000000000000000000000000600052601160045260246000fd5b600062000c5b8262000c15565b915062000c688362000c15565b9250817fffffffffffffffffffffffffffffffffffffffffffffffffffffffffffffffff048311821515161562000ca45762000ca362000c1f565b5b828202905092915050565b600062000cbc8262000c15565b915062000cc98362000c15565b9250827fffffffffffffffffffffffffffffffffffffffffffffffffffffffffffffffff0382111562000d015762000d0062000c1f565b5b828201905092915050565b7f4e487b7100000000000000000000000000000000000000000000000000000000600052604160045260246000fd5b7f4e487b7100000000000000000000000000000000000000000000000000000000600052603260045260246000fd5b600062000d778262000c15565b9150600082141562000d8e5762000d8d62000c1f565b5b600182039050919050565b7f537472696e67733a20686578206c656e67746820696e73756666696369656e74600082015250565b600062000dd160208362000945565b915062000dde8262000d99565b602082019050919050565b6000602082019050818103600083015262000e048162000dc2565b9050919050565b7f4e487b7100000000000000000000000000000000000000000000000000000000600052602260045260246000fd5b6000600282049050600182168062000e5357607f821691505b6020821081141562000e6a5762000e6962000e0b565b5b50919050565b61495c8062000e806000396000f3fe608060405234801561001057600080fd5b50600436106102115760003560e01c806376eed17411610125578063aa271e1a116100ad578063d31af4841161007c578063d31af4841461065c578063d53913931461068c578063d547741f146106aa578063d7677281146106c6578063e985e9c5146106e257610211565b8063aa271e1a146105c4578063b88d4fde146105f4578063c87b56dd14610610578063d204c45e1461064057610211565b806395d89b41116100f457806395d89b4114610532578063a217fddf14610550578063a22cb4651461056e578063a3b8272b1461058a578063a73f7f8a146105a857610211565b806376eed174146104985780637afa9e9c146104b457806391d14854146104d25780639201de551461050257610211565b80632f2ff15d116101a857806342966c681161017757806342966c68146103ce57806350b5e0f2146103ea5780636352211e1461041a5780636792166f1461044a57806370a082311461046857610211565b80632f2ff15d1461035c57806336568abe146103785780633defb9621461039457806342842e0e146103b257610211565b8063150b7a02116101e4578063150b7a02146102b057806323b872dd146102e0578063248a9ca3146102fc57806324d7806c1461032c57610211565b806301ffc9a71461021657806306fdde0314610246578063081812fc14610264578063095ea7b314610294575b600080fd5b610230600480360381019061022b9190612cea565b610712565b60405161023d9190612d32565b60405180910390f35b61024e610724565b60405161025b9190612de6565b60405180910390f35b61027e60048036038101906102799190612e3e565b6107b6565b60405161028b9190612eac565b60405180910390f35b6102ae60048036038101906102a99190612ef3565b61083b565b005b6102ca60048036038101906102c59190612f98565b610953565b6040516102d7919061302f565b60405180910390f35b6102fa60048036038101906102f5919061304a565b610981565b005b610316600480360381019061031191906130d3565b6109e1565b604051610323919061310f565b60405180910390f35b6103466004803603810190610341919061312a565b610a01565b6040516103539190612d32565b60405180910390f35b61037660048036038101906103719190613157565b610a17565b005b610392600480360381019061038d9190613157565b610a38565b005b61039c610abb565b6040516103a991906131a6565b60405180910390f35b6103cc60048036038101906103c7919061304a565b610ac4565b005b6103e860048036038101906103e39190612e3e565b610ae4565b005b61040460048036038101906103ff919061312a565b610b40565b6040516104119190612d32565b60405180910390f35b610434600480360381019061042f9190612e3e565b610b87565b6040516104419190612eac565b60405180910390f35b610452610c39565b60405161045f919061310f565b60405180910390f35b610482600480360381019061047d919061312a565b610c5d565b60405161048f91906131a6565b60405180910390f35b6104b260048036038101906104ad919061312a565b610d15565b005b6104bc610deb565b6040516104c9919061310f565b60405180910390f35b6104ec60048036038101906104e79190613157565b610e0f565b6040516104f99190612d32565b60405180910390f35b61051c600480360381019061051791906130d3565b610e7a565b6040516105299190612de6565b60405180910390f35b61053a611079565b6040516105479190612de6565b60405180910390f35b61055861110b565b604051610565919061310f565b60405180910390f35b610588600480360381019061058391906131ed565b611112565b005b610592611128565b60405161059f9190612eac565b60405180910390f35b6105c260048036038101906105bd919061322d565b61114e565b005b6105de60048036038101906105d9919061312a565b61125a565b6040516105eb9190612d32565b60405180910390f35b61060e6004803603810190610609919061339d565b6112a1565b005b61062a60048036038101906106259190612e3e565b611303565b6040516106379190612de6565b60405180910390f35b61065a600480360381019061065591906134c1565b611315565b005b6106766004803603810190610671919061351d565b61138e565b6040516106839190612d32565b60405180910390f35b6106946113ec565b6040516106a1919061310f565b60405180910390f35b6106c460048036038101906106bf9190613157565b611410565b005b6106e060048036038101906106db919061363c565b611431565b005b6106fc60048036038101906106f79190613698565b6114c9565b6040516107099190612d32565b60405180910390f35b600061071d82611799565b9050919050565b60606000805461073390613707565b80601f016020809104026020016040519081016040528092919081815260200182805461075f90613707565b80156107ac5780601f10610781576101008083540402835291602001916107ac565b820191906000526020600020905b81548152906001019060200180831161078f57829003601f168201915b5050505050905090565b60006107c182611813565b610800576040517f08c379a00000000000000000000000000000000000000000000000000000000081526004016107f7906137ab565b60405180910390fd5b6004600083815260200190815260200160002060009054906101000a900473ffffffffffffffffffffffffffffffffffffffff169050919050565b600061084682610b87565b90508073ffffffffffffffffffffffffffffffffffffffff168373ffffffffffffffffffffffffffffffffffffffff1614156108b7576040517f08c379a00000000000000000000000000000000000000000000000000000000081526004016108ae9061383d565b60405180910390fd5b8073ffffffffffffffffffffffffffffffffffffffff166108d661187f565b73ffffffffffffffffffffffffffffffffffffffff1614806109055750610904816108ff61187f565b6114c9565b5b610944576040517f08c379a000000000000000000000000000000000000000000000000000000000815260040161093b906138cf565b60405180910390fd5b61094e8383611887565b505050565b60007f150b7a023d4804d13e8c85fb27262cb750cf6ba9f9dd3bb30d90f482ceeb4b1f905095945050505050565b61099261098c61187f565b82611940565b6109d1576040517f08c379a00000000000000000000000000000000000000000000000000000000081526004016109c890613961565b60405180910390fd5b6109dc838383611a1e565b505050565b600060076000838152602001908152602001600020600101549050919050565b6000610a106000801b83610e0f565b9050919050565b610a20826109e1565b610a2981611c85565b610a338383611c99565b505050565b610a4061187f565b73ffffffffffffffffffffffffffffffffffffffff168173ffffffffffffffffffffffffffffffffffffffff1614610aad576040517f08c379a0000000000000000000000000000000000000000000000000000000008152600401610aa4906139f3565b60405180910390fd5b610ab78282611d7a565b5050565b60006001905090565b610adf838383604051806020016040528060008152506112a1565b505050565b610af5610aef61187f565b82611940565b610b34576040517f08c379a0000000000000000000000000000000000000000000000000000000008152600401610b2b90613a85565b60405180910390fd5b610b3d81611e5c565b50565b6000610b4f6000801b83610e0f565b80610b805750610b7f7f1cf2b81dce95f0e7b91e95903f9b70bc58c33207c55b6b0bc3ba3d0522942e3183610e0f565b5b9050919050565b6000806002600084815260200190815260200160002060009054906101000a900473ffffffffffffffffffffffffffffffffffffffff169050600073ffffffffffffffffffffffffffffffffffffffff168173ffffffffffffffffffffffffffffffffffffffff161415610c30576040517f08c379a0000000000000000000000000000000000000000000000000000000008152600401610c2790613b17565b60405180910390fd5b80915050919050565b7f1cf2b81dce95f0e7b91e95903f9b70bc58c33207c55b6b0bc3ba3d0522942e3181565b60008073ffffffffffffffffffffffffffffffffffffffff168273ffffffffffffffffffffffffffffffffffffffff161415610cce576040517f08c379a0000000000000000000000000000000000000000000000000000000008152600401610cc590613ba9565b60405180910390fd5b600360008373ffffffffffffffffffffffffffffffffffffffff1673ffffffffffffffffffffffffffffffffffffffff168152602001908152602001600020549050919050565b610d1e33610a01565b610d5d576040517f08c379a0000000000000000000000000000000000000000000000000000000008152600401610d5490613c15565b60405180910390fd5b610d87817f9f2df0fed2c77648de5860a4cc508cd0818c85b8b8a1ab4ceeef8d981c8956a661114e565b610d94816000801b61114e565b610dbe817f8ee6ed50dc250dbccf4d86bd88d4956ab55c7de37d1fed5508924b70da11fe8b61114e565b610de8817f1cf2b81dce95f0e7b91e95903f9b70bc58c33207c55b6b0bc3ba3d0522942e3161114e565b50565b7f8ee6ed50dc250dbccf4d86bd88d4956ab55c7de37d1fed5508924b70da11fe8b81565b60006007600084815260200190815260200160002060000160008373ffffffffffffffffffffffffffffffffffffffff1673ffffffffffffffffffffffffffffffffffffffff16815260200190815260200160002060009054906101000a900460ff16905092915050565b60606000602067ffffffffffffffff811115610e9957610e98613272565b5b6040519080825280601f01601f191660200182016040528015610ecb5781602001600182028036833780820191505090505b5090506000805b6020811015610f9c576000816008610eea9190613c64565b6002610ef69190613df1565b8660001c610f049190613c64565b60001b9050600060f81b817effffffffffffffffffffffffffffffffffffffffffffffffffffffffffffff191614610f885780848481518110610f4a57610f49613e3c565b5b60200101907effffffffffffffffffffffffffffffffffffffffffffffffffffffffffffff1916908160001a9053508280610f8490613e6b565b9350505b508080610f9490613e6b565b915050610ed2565b60008267ffffffffffffffff811115610fb857610fb7613272565b5b6040519080825280601f01601f191660200182016040528015610fea5781602001600182028036833780820191505090505b509050600091505b8282101561106d5783828151811061100d5761100c613e3c565b5b602001015160f81c60f81b81838151811061102b5761102a613e3c565b5b60200101907effffffffffffffffffffffffffffffffffffffffffffffffffffffffffffff1916908160001a905350818061106590613e6b565b925050610ff2565b80945050505050919050565b60606001805461108890613707565b80601f01602080910402602001604051908101604052809291908181526020018280546110b490613707565b80156111015780601f106110d657610100808354040283529160200191611101565b820191906000526020600020905b8154815290600101906020018083116110e457829003601f168201915b5050505050905090565b6000801b81565b61112461111d61187f565b8383611e68565b5050565b600960009054906101000a900473ffffffffffffffffffffffffffffffffffffffff1681565b61115733610a01565b611196576040517f08c379a000000000000000000000000000000000000000000000000000000000815260040161118d90613c15565b60405180910390fd5b7f9f2df0fed2c77648de5860a4cc508cd0818c85b8b8a1ab4ceeef8d981c8956a68114806111e357507f8ee6ed50dc250dbccf4d86bd88d4956ab55c7de37d1fed5508924b70da11fe8b81145b8061120d57507f1cf2b81dce95f0e7b91e95903f9b70bc58c33207c55b6b0bc3ba3d0522942e3181145b61124c576040517f08c379a000000000000000000000000000000000000000000000000000000000815260040161124390613f00565b60405180910390fd5b6112568183610a17565b5050565b60006112696000801b83610e0f565b8061129a57506112997f9f2df0fed2c77648de5860a4cc508cd0818c85b8b8a1ab4ceeef8d981c8956a683610e0f565b5b9050919050565b6112b26112ac61187f565b83611940565b6112f1576040517f08c379a00000000000000000000000000000000000000000000000000000000081526004016112e890613961565b60405180910390fd5b6112fd84848484611fd5565b50505050565b606061130e82612031565b9050919050565b61131e3361125a565b61135d576040517f08c379a000000000000000000000000000000000000000000000000000000000815260040161135490613f6c565b60405180910390fd5b60006113696008612183565b90506113756008612191565b61137f83826121a7565b61138981836121c5565b505050565b600061139933610b40565b6113d8576040517f08c379a00000000000000000000000000000000000000000000000000000000081526004016113cf90613ffe565b60405180910390fd5b6113e283836121c5565b6001905092915050565b7f9f2df0fed2c77648de5860a4cc508cd0818c85b8b8a1ab4ceeef8d981c8956a681565b611419826109e1565b61142281611c85565b61142c8383611d7a565b505050565b61143a3361125a565b611479576040517f08c379a000000000000000000000000000000000000000000000000000000000815260040161147090613f6c565b60405180910390fd5b60005b81518110156114c4576114b1836114ac84848151811061149f5761149e613e3c565b5b6020026020010151610e7a565b611315565b80806114bc90613e6b565b91505061147c565b505050565b6000600560008473ffffffffffffffffffffffffffffffffffffffff1673ffffffffffffffffffffffffffffffffffffffff16815260200190815260200160002060008373ffffffffffffffffffffffffffffffffffffffff1673ffffffffffffffffffffffffffffffffffffffff16815260200190815260200160002060009054906101000a900460ff16905092915050565b6060600060028360026115709190613c64565b61157a919061401e565b67ffffffffffffffff81111561159357611592613272565b5b6040519080825280601f01601f1916602001820160405280156115c55781602001600182028036833780820191505090505b5090507f3000000000000000000000000000000000000000000000000000000000000000816000815181106115fd576115fc613e3c565b5b60200101907effffffffffffffffffffffffffffffffffffffffffffffffffffffffffffff1916908160001a9053507f78000000000000000000000000000000000000000000000000000000000000008160018151811061166157611660613e3c565b5b60200101907effffffffffffffffffffffffffffffffffffffffffffffffffffffffffffff1916908160001a905350600060018460026116a19190613c64565b6116ab919061401e565b90505b600181111561174b577f3031323334353637383961626364656600000000000000000000000000000000600f8616601081106116ed576116ec613e3c565b5b1a60f81b82828151811061170457611703613e3c565b5b60200101907effffffffffffffffffffffffffffffffffffffffffffffffffffffffffffff1916908160001a905350600485901c94508061174490614074565b90506116ae565b506000841461178f576040517f08c379a0000000000000000000000000000000000000000000000000000000008152600401611786906140ea565b60405180910390fd5b8091505092915050565b60007f7965db0b000000000000000000000000000000000000000000000000000000007bffffffffffffffffffffffffffffffffffffffffffffffffffffffff1916827bffffffffffffffffffffffffffffffffffffffffffffffffffffffff1916148061180c575061180b82612239565b5b9050919050565b60008073ffffffffffffffffffffffffffffffffffffffff166002600084815260200190815260200160002060009054906101000a900473ffffffffffffffffffffffffffffffffffffffff1673ffffffffffffffffffffffffffffffffffffffff1614159050919050565b600033905090565b816004600083815260200190815260200160002060006101000a81548173ffffffffffffffffffffffffffffffffffffffff021916908373ffffffffffffffffffffffffffffffffffffffff160217905550808273ffffffffffffffffffffffffffffffffffffffff166118fa83610b87565b73ffffffffffffffffffffffffffffffffffffffff167f8c5be1e5ebec7d5bd14f71427d1e84f3dd0314c0f7b2291e5b200ac8c7c3b92560405160405180910390a45050565b600061194b82611813565b61198a576040517f08c379a00000000000000000000000000000000000000000000000000000000081526004016119819061417c565b60405180910390fd5b600061199583610b87565b90508073ffffffffffffffffffffffffffffffffffffffff168473ffffffffffffffffffffffffffffffffffffffff1614806119d757506119d681856114c9565b5b80611a1557508373ffffffffffffffffffffffffffffffffffffffff166119fd846107b6565b73ffffffffffffffffffffffffffffffffffffffff16145b91505092915050565b8273ffffffffffffffffffffffffffffffffffffffff16611a3e82610b87565b73ffffffffffffffffffffffffffffffffffffffff1614611a94576040517f08c379a0000000000000000000000000000000000000000000000000000000008152600401611a8b9061420e565b60405180910390fd5b600073ffffffffffffffffffffffffffffffffffffffff168273ffffffffffffffffffffffffffffffffffffffff161415611b04576040517f08c379a0000000000000000000000000000000000000000000000000000000008152600401611afb906142a0565b60405180910390fd5b611b0f83838361231b565b611b1a600082611887565b6001600360008573ffffffffffffffffffffffffffffffffffffffff1673ffffffffffffffffffffffffffffffffffffffff1681526020019081526020016000206000828254611b6a91906142c0565b925050819055506001600360008473ffffffffffffffffffffffffffffffffffffffff1673ffffffffffffffffffffffffffffffffffffffff1681526020019081526020016000206000828254611bc1919061401e565b92505081905550816002600083815260200190815260200160002060006101000a81548173ffffffffffffffffffffffffffffffffffffffff021916908373ffffffffffffffffffffffffffffffffffffffff160217905550808273ffffffffffffffffffffffffffffffffffffffff168473ffffffffffffffffffffffffffffffffffffffff167fddf252ad1be2c89b69c2b068fc378daa952ba7f163c4a11628f55a4df523b3ef60405160405180910390a4611c80838383612320565b505050565b611c9681611c9161187f565b612325565b50565b611ca38282610e0f565b611d765760016007600084815260200190815260200160002060000160008373ffffffffffffffffffffffffffffffffffffffff1673ffffffffffffffffffffffffffffffffffffffff16815260200190815260200160002060006101000a81548160ff021916908315150217905550611d1b61187f565b73ffffffffffffffffffffffffffffffffffffffff168173ffffffffffffffffffffffffffffffffffffffff16837f2f8788117e7eff1d82e926ec794901d17c78024a50270940304540a733656f0d60405160405180910390a45b5050565b611d848282610e0f565b15611e585760006007600084815260200190815260200160002060000160008373ffffffffffffffffffffffffffffffffffffffff1673ffffffffffffffffffffffffffffffffffffffff16815260200190815260200160002060006101000a81548160ff021916908315150217905550611dfd61187f565b73ffffffffffffffffffffffffffffffffffffffff168173ffffffffffffffffffffffffffffffffffffffff16837ff6391f5c32d9c69d2a47ea670b442974b53935d1edc7fd64eb21e047a839171b60405160405180910390a45b5050565b611e65816123c2565b50565b8173ffffffffffffffffffffffffffffffffffffffff168373ffffffffffffffffffffffffffffffffffffffff161415611ed7576040517f08c379a0000000000000000000000000000000000000000000000000000000008152600401611ece90614340565b60405180910390fd5b80600560008573ffffffffffffffffffffffffffffffffffffffff1673ffffffffffffffffffffffffffffffffffffffff16815260200190815260200160002060008473ffffffffffffffffffffffffffffffffffffffff1673ffffffffffffffffffffffffffffffffffffffff16815260200190815260200160002060006101000a81548160ff0219169083151502179055508173ffffffffffffffffffffffffffffffffffffffff168373ffffffffffffffffffffffffffffffffffffffff167f17307eab39ab6107e8899845ad3d59bd9653f200f220920489ca2b5937696c3183604051611fc89190612d32565b60405180910390a3505050565b611fe0848484611a1e565b611fec84848484612415565b61202b576040517f08c379a0000000000000000000000000000000000000000000000000000000008152600401612022906143d2565b60405180910390fd5b50505050565b606061203c82611813565b61207b576040517f08c379a000000000000000000000000000000000000000000000000000000000815260040161207290614464565b60405180910390fd5b600060066000848152602001908152602001600020805461209b90613707565b80601f01602080910402602001604051908101604052809291908181526020018280546120c790613707565b80156121145780601f106120e957610100808354040283529160200191612114565b820191906000526020600020905b8154815290600101906020018083116120f757829003601f168201915b50505050509050600061212561259d565b905060008151141561213b57819250505061217e565b6000825111156121705780826040516020016121589291906144c0565b6040516020818303038152906040529250505061217e565b612179846125b4565b925050505b919050565b600081600001549050919050565b6001816000016000828254019250508190555050565b6121c182826040518060200160405280600081525061265b565b5050565b6121ce82611813565b61220d576040517f08c379a000000000000000000000000000000000000000000000000000000000815260040161220490614556565b60405180910390fd5b80600660008481526020019081526020016000209080519060200190612234929190612b9b565b505050565b60007f80ac58cd000000000000000000000000000000000000000000000000000000007bffffffffffffffffffffffffffffffffffffffffffffffffffffffff1916827bffffffffffffffffffffffffffffffffffffffffffffffffffffffff1916148061230457507f5b5e139f000000000000000000000000000000000000000000000000000000007bffffffffffffffffffffffffffffffffffffffffffffffffffffffff1916827bffffffffffffffffffffffffffffffffffffffffffffffffffffffff1916145b806123145750612313826126b6565b5b9050919050565b505050565b505050565b61232f8282610e0f565b6123be576123548173ffffffffffffffffffffffffffffffffffffffff16601461155d565b6123628360001c602061155d565b60405160200161237392919061460e565b6040516020818303038152906040526040517f08c379a00000000000000000000000000000000000000000000000000000000081526004016123b59190612de6565b60405180910390fd5b5050565b6123cb81612720565b60006006600083815260200190815260200160002080546123eb90613707565b905014612412576006600082815260200190815260200160002060006124119190612c21565b5b50565b60006124368473ffffffffffffffffffffffffffffffffffffffff1661283d565b15612590578373ffffffffffffffffffffffffffffffffffffffff1663150b7a0261245f61187f565b8786866040518563ffffffff1660e01b8152600401612481949392919061469d565b6020604051808303816000875af19250505080156124bd57506040513d601f19601f820116820180604052508101906124ba91906146fe565b60015b612540573d80600081146124ed576040519150601f19603f3d011682016040523d82523d6000602084013e6124f2565b606091505b50600081511415612538576040517f08c379a000000000000000000000000000000000000000000000000000000000815260040161252f906143d2565b60405180910390fd5b805181602001fd5b63150b7a0260e01b7bffffffffffffffffffffffffffffffffffffffffffffffffffffffff1916817bffffffffffffffffffffffffffffffffffffffffffffffffffffffff191614915050612595565b600190505b949350505050565b606060405180602001604052806000815250905090565b60606125bf82611813565b6125fe576040517f08c379a00000000000000000000000000000000000000000000000000000000081526004016125f59061479d565b60405180910390fd5b600061260861259d565b905060008151116126285760405180602001604052806000815250612653565b8061263284612860565b6040516020016126439291906144c0565b6040516020818303038152906040525b915050919050565b61266583836129c1565b6126726000848484612415565b6126b1576040517f08c379a00000000000000000000000000000000000000000000000000000000081526004016126a8906143d2565b60405180910390fd5b505050565b60007f01ffc9a7000000000000000000000000000000000000000000000000000000007bffffffffffffffffffffffffffffffffffffffffffffffffffffffff1916827bffffffffffffffffffffffffffffffffffffffffffffffffffffffff1916149050919050565b600061272b82610b87565b90506127398160008461231b565b612744600083611887565b6001600360008373ffffffffffffffffffffffffffffffffffffffff1673ffffffffffffffffffffffffffffffffffffffff168152602001908152602001600020600082825461279491906142c0565b925050819055506002600083815260200190815260200160002060006101000a81549073ffffffffffffffffffffffffffffffffffffffff021916905581600073ffffffffffffffffffffffffffffffffffffffff168273ffffffffffffffffffffffffffffffffffffffff167fddf252ad1be2c89b69c2b068fc378daa952ba7f163c4a11628f55a4df523b3ef60405160405180910390a461283981600084612320565b5050565b6000808273ffffffffffffffffffffffffffffffffffffffff163b119050919050565b606060008214156128a8576040518060400160405280600181526020017f300000000000000000000000000000000000000000000000000000000000000081525090506129bc565b600082905060005b600082146128da5780806128c390613e6b565b915050600a826128d391906147ec565b91506128b0565b60008167ffffffffffffffff8111156128f6576128f5613272565b5b6040519080825280601f01601f1916602001820160405280156129285781602001600182028036833780820191505090505b5090505b600085146129b55760018261294191906142c0565b9150600a85612950919061481d565b603061295c919061401e565b60f81b81838151811061297257612971613e3c565b5b60200101907effffffffffffffffffffffffffffffffffffffffffffffffffffffffffffff1916908160001a905350600a856129ae91906147ec565b945061292c565b8093505050505b919050565b600073ffffffffffffffffffffffffffffffffffffffff168273ffffffffffffffffffffffffffffffffffffffff161415612a31576040517f08c379a0000000000000000000000000000000000000000000000000000000008152600401612a289061489a565b60405180910390fd5b612a3a81611813565b15612a7a576040517f08c379a0000000000000000000000000000000000000000000000000000000008152600401612a7190614906565b60405180910390fd5b612a866000838361231b565b6001600360008473ffffffffffffffffffffffffffffffffffffffff1673ffffffffffffffffffffffffffffffffffffffff1681526020019081526020016000206000828254612ad6919061401e565b92505081905550816002600083815260200190815260200160002060006101000a81548173ffffffffffffffffffffffffffffffffffffffff021916908373ffffffffffffffffffffffffffffffffffffffff160217905550808273ffffffffffffffffffffffffffffffffffffffff16600073ffffffffffffffffffffffffffffffffffffffff167fddf252ad1be2c89b69c2b068fc378daa952ba7f163c4a11628f55a4df523b3ef60405160405180910390a4612b9760008383612320565b5050565b828054612ba790613707565b90600052602060002090601f016020900481019282612bc95760008555612c10565b82601f10612be257805160ff1916838001178555612c10565b82800160010185558215612c10579182015b82811115612c0f578251825591602001919060010190612bf4565b5b509050612c1d9190612c61565b5090565b508054612c2d90613707565b6000825580601f10612c3f5750612c5e565b601f016020900490600052602060002090810190612c5d9190612c61565b5b50565b5b80821115612c7a576000816000905550600101612c62565b5090565b6000604051905090565b600080fd5b600080fd5b60007fffffffff0000000000000000000000000000000000000000000000000000000082169050919050565b612cc781612c92565b8114612cd257600080fd5b50565b600081359050612ce481612cbe565b92915050565b600060208284031215612d0057612cff612c88565b5b6000612d0e84828501612cd5565b91505092915050565b60008115159050919050565b612d2c81612d17565b82525050565b6000602082019050612d476000830184612d23565b92915050565b600081519050919050565b600082825260208201905092915050565b60005b83811015612d87578082015181840152602081019050612d6c565b83811115612d96576000848401525b50505050565b6000601f19601f8301169050919050565b6000612db882612d4d565b612dc28185612d58565b9350612dd2818560208601612d69565b612ddb81612d9c565b840191505092915050565b60006020820190508181036000830152612e008184612dad565b905092915050565b6000819050919050565b612e1b81612e08565b8114612e2657600080fd5b50565b600081359050612e3881612e12565b92915050565b600060208284031215612e5457612e53612c88565b5b6000612e6284828501612e29565b91505092915050565b600073ffffffffffffffffffffffffffffffffffffffff82169050919050565b6000612e9682612e6b565b9050919050565b612ea681612e8b565b82525050565b6000602082019050612ec16000830184612e9d565b92915050565b612ed081612e8b565b8114612edb57600080fd5b50565b600081359050612eed81612ec7565b92915050565b60008060408385031215612f0a57612f09612c88565b5b6000612f1885828601612ede565b9250506020612f2985828601612e29565b9150509250929050565b600080fd5b600080fd5b600080fd5b60008083601f840112612f5857612f57612f33565b5b8235905067ffffffffffffffff811115612f7557612f74612f38565b5b602083019150836001820283011115612f9157612f90612f3d565b5b9250929050565b600080600080600060808688031215612fb457612fb3612c88565b5b6000612fc288828901612ede565b9550506020612fd388828901612ede565b9450506040612fe488828901612e29565b935050606086013567ffffffffffffffff81111561300557613004612c8d565b5b61301188828901612f42565b92509250509295509295909350565b61302981612c92565b82525050565b60006020820190506130446000830184613020565b92915050565b60008060006060848603121561306357613062612c88565b5b600061307186828701612ede565b935050602061308286828701612ede565b925050604061309386828701612e29565b9150509250925092565b6000819050919050565b6130b08161309d565b81146130bb57600080fd5b50565b6000813590506130cd816130a7565b92915050565b6000602082840312156130e9576130e8612c88565b5b60006130f7848285016130be565b91505092915050565b6131098161309d565b82525050565b60006020820190506131246000830184613100565b92915050565b6000602082840312156131405761313f612c88565b5b600061314e84828501612ede565b91505092915050565b6000806040838503121561316e5761316d612c88565b5b600061317c858286016130be565b925050602061318d85828601612ede565b9150509250929050565b6131a081612e08565b82525050565b60006020820190506131bb6000830184613197565b92915050565b6131ca81612d17565b81146131d557600080fd5b50565b6000813590506131e7816131c1565b92915050565b6000806040838503121561320457613203612c88565b5b600061321285828601612ede565b9250506020613223858286016131d8565b9150509250929050565b6000806040838503121561324457613243612c88565b5b600061325285828601612ede565b9250506020613263858286016130be565b9150509250929050565b600080fd5b7f4e487b7100000000000000000000000000000000000000000000000000000000600052604160045260246000fd5b6132aa82612d9c565b810181811067ffffffffffffffff821117156132c9576132c8613272565b5b80604052505050565b60006132dc612c7e565b90506132e882826132a1565b919050565b600067ffffffffffffffff82111561330857613307613272565b5b61331182612d9c565b9050602081019050919050565b82818337600083830152505050565b600061334061333b846132ed565b6132d2565b90508281526020810184848401111561335c5761335b61326d565b5b61336784828561331e565b509392505050565b600082601f83011261338457613383612f33565b5b813561339484826020860161332d565b91505092915050565b600080600080608085870312156133b7576133b6612c88565b5b60006133c587828801612ede565b94505060206133d687828801612ede565b93505060406133e787828801612e29565b925050606085013567ffffffffffffffff81111561340857613407612c8d565b5b6134148782880161336f565b91505092959194509250565b600067ffffffffffffffff82111561343b5761343a613272565b5b61344482612d9c565b9050602081019050919050565b600061346461345f84613420565b6132d2565b9050828152602081018484840111156134805761347f61326d565b5b61348b84828561331e565b509392505050565b600082601f8301126134a8576134a7612f33565b5b81356134b8848260208601613451565b91505092915050565b600080604083850312156134d8576134d7612c88565b5b60006134e685828601612ede565b925050602083013567ffffffffffffffff81111561350757613506612c8d565b5b61351385828601613493565b9150509250929050565b6000806040838503121561353457613533612c88565b5b600061354285828601612e29565b925050602083013567ffffffffffffffff81111561356357613562612c8d565b5b61356f85828601613493565b9150509250929050565b600067ffffffffffffffff82111561359457613593613272565b5b602082029050602081019050919050565b60006135b86135b384613579565b6132d2565b905080838252602082019050602084028301858111156135db576135da612f3d565b5b835b8181101561360457806135f088826130be565b8452602084019350506020810190506135dd565b5050509392505050565b600082601f83011261362357613622612f33565b5b81356136338482602086016135a5565b91505092915050565b6000806040838503121561365357613652612c88565b5b600061366185828601612ede565b925050602083013567ffffffffffffffff81111561368257613681612c8d565b5b61368e8582860161360e565b9150509250929050565b600080604083850312156136af576136ae612c88565b5b60006136bd85828601612ede565b92505060206136ce85828601612ede565b9150509250929050565b7f4e487b7100000000000000000000000000000000000000000000000000000000600052602260045260246000fd5b6000600282049050600182168061371f57607f821691505b60208210811415613733576137326136d8565b5b50919050565b7f4552433732313a20617070726f76656420717565727920666f72206e6f6e657860008201527f697374656e7420746f6b656e0000000000000000000000000000000000000000602082015250565b6000613795602c83612d58565b91506137a082613739565b604082019050919050565b600060208201905081810360008301526137c481613788565b9050919050565b7f4552433732313a20617070726f76616c20746f2063757272656e74206f776e6560008201527f7200000000000000000000000000000000000000000000000000000000000000602082015250565b6000613827602183612d58565b9150613832826137cb565b604082019050919050565b600060208201905081810360008301526138568161381a565b9050919050565b7f4552433732313a20617070726f76652063616c6c6572206973206e6f74206f7760008201527f6e6572206e6f7220617070726f76656420666f7220616c6c0000000000000000602082015250565b60006138b9603883612d58565b91506138c48261385d565b604082019050919050565b600060208201905081810360008301526138e8816138ac565b9050919050565b7f4552433732313a207472616e736665722063616c6c6572206973206e6f74206f60008201527f776e6572206e6f7220617070726f766564000000000000000000000000000000602082015250565b600061394b603183612d58565b9150613956826138ef565b604082019050919050565b6000602082019050818103600083015261397a8161393e565b9050919050565b7f416363657373436f6e74726f6c3a2063616e206f6e6c792072656e6f756e636560008201527f20726f6c657320666f722073656c660000000000000000000000000000000000602082015250565b60006139dd602f83612d58565b91506139e882613981565b604082019050919050565b60006020820190508181036000830152613a0c816139d0565b9050919050565b7f4552433732314275726e61626c653a2063616c6c6572206973206e6f74206f7760008201527f6e6572206e6f7220617070726f76656400000000000000000000000000000000602082015250565b6000613a6f603083612d58565b9150613a7a82613a13565b604082019050919050565b60006020820190508181036000830152613a9e81613a62565b9050919050565b7f4552433732313a206f776e657220717565727920666f72206e6f6e657869737460008201527f656e7420746f6b656e0000000000000000000000000000000000000000000000602082015250565b6000613b01602983612d58565b9150613b0c82613aa5565b604082019050919050565b60006020820190508181036000830152613b3081613af4565b9050919050565b7f4552433732313a2062616c616e636520717565727920666f7220746865207a6560008201527f726f206164647265737300000000000000000000000000000000000000000000602082015250565b6000613b93602a83612d58565b9150613b9e82613b37565b604082019050919050565b60006020820190508181036000830152613bc281613b86565b9050919050565b7f5265737472696374656420746f206f6e6c792061646d696e0000000000000000600082015250565b6000613bff601883612d58565b9150613c0a82613bc9565b602082019050919050565b60006020820190508181036000830152613c2e81613bf2565b9050919050565b7f4e487b7100000000000000000000000000000000000000000000000000000000600052601160045260246000fd5b6000613c6f82612e08565b9150613c7a83612e08565b9250817fffffffffffffffffffffffffffffffffffffffffffffffffffffffffffffffff0483118215151615613cb357613cb2613c35565b5b828202905092915050565b60008160011c9050919050565b6000808291508390505b6001851115613d1557808604811115613cf157613cf0613c35565b5b6001851615613d005780820291505b8081029050613d0e85613cbe565b9450613cd5565b94509492505050565b600082613d2e5760019050613dea565b81613d3c5760009050613dea565b8160018114613d525760028114613d5c57613d8b565b6001915050613dea565b60ff841115613d6e57613d6d613c35565b5b8360020a915084821115613d8557613d84613c35565b5b50613dea565b5060208310610133831016604e8410600b8410161715613dc05782820a905083811115613dbb57613dba613c35565b5b613dea565b613dcd8484846001613ccb565b92509050818404811115613de457613de3613c35565b5b81810290505b9392505050565b6000613dfc82612e08565b9150613e0783612e08565b9250613e347fffffffffffffffffffffffffffffffffffffffffffffffffffffffffffffffff8484613d1e565b905092915050565b7f4e487b7100000000000000000000000000000000000000000000000000000000600052603260045260246000fd5b6000613e7682612e08565b91507fffffffffffffffffffffffffffffffffffffffffffffffffffffffffffffffff821415613ea957613ea8613c35565b5b600182019050919050565b7f446566696e656420726f6c6520646f65736e2774206578697374730000000000600082015250565b6000613eea601b83612d58565b9150613ef582613eb4565b602082019050919050565b60006020820190508181036000830152613f1981613edd565b9050919050565b7f5265737472696374656420746f206f776e657220616e64206d696e7465727300600082015250565b6000613f56601f83612d58565b9150613f6182613f20565b602082019050919050565b60006020820190508181036000830152613f8581613f49565b9050919050565b7f4d656d626572206973206e6f7420616c6c6f77656420746f207570646174652060008201527f746865204e465400000000000000000000000000000000000000000000000000602082015250565b6000613fe8602783612d58565b9150613ff382613f8c565b604082019050919050565b6000602082019050818103600083015261401781613fdb565b9050919050565b600061402982612e08565b915061403483612e08565b9250827fffffffffffffffffffffffffffffffffffffffffffffffffffffffffffffffff0382111561406957614068613c35565b5b828201905092915050565b600061407f82612e08565b9150600082141561409357614092613c35565b5b600182039050919050565b7f537472696e67733a20686578206c656e67746820696e73756666696369656e74600082015250565b60006140d4602083612d58565b91506140df8261409e565b602082019050919050565b60006020820190508181036000830152614103816140c7565b9050919050565b7f4552433732313a206f70657261746f7220717565727920666f72206e6f6e657860008201527f697374656e7420746f6b656e0000000000000000000000000000000000000000602082015250565b6000614166602c83612d58565b91506141718261410a565b604082019050919050565b6000602082019050818103600083015261419581614159565b9050919050565b7f4552433732313a207472616e736665722066726f6d20696e636f72726563742060008201527f6f776e6572000000000000000000000000000000000000000000000000000000602082015250565b60006141f8602583612d58565b91506142038261419c565b604082019050919050565b60006020820190508181036000830152614227816141eb565b9050919050565b7f4552433732313a207472616e7366657220746f20746865207a65726f2061646460008201527f7265737300000000000000000000000000000000000000000000000000000000602082015250565b600061428a602483612d58565b91506142958261422e565b604082019050919050565b600060208201905081810360008301526142b98161427d565b9050919050565b60006142cb82612e08565b91506142d683612e08565b9250828210156142e9576142e8613c35565b5b828203905092915050565b7f4552433732313a20617070726f766520746f2063616c6c657200000000000000600082015250565b600061432a601983612d58565b9150614335826142f4565b602082019050919050565b600060208201905081810360008301526143598161431d565b9050919050565b7f4552433732313a207472616e7366657220746f206e6f6e20455243373231526560008201527f63656976657220696d706c656d656e7465720000000000000000000000000000602082015250565b60006143bc603283612d58565b91506143c782614360565b604082019050919050565b600060208201905081810360008301526143eb816143af565b9050919050565b7f45524337323155524953746f726167653a2055524920717565727920666f722060008201527f6e6f6e6578697374656e7420746f6b656e000000000000000000000000000000602082015250565b600061444e603183612d58565b9150614459826143f2565b604082019050919050565b6000602082019050818103600083015261447d81614441565b9050919050565b600081905092915050565b600061449a82612d4d565b6144a48185614484565b93506144b4818560208601612d69565b80840191505092915050565b60006144cc828561448f565b91506144d8828461448f565b91508190509392505050565b7f45524337323155524953746f726167653a2055524920736574206f66206e6f6e60008201527f6578697374656e7420746f6b656e000000000000000000000000000000000000602082015250565b6000614540602e83612d58565b915061454b826144e4565b604082019050919050565b6000602082019050818103600083015261456f81614533565b9050919050565b7f416363657373436f6e74726f6c3a206163636f756e7420000000000000000000600082015250565b60006145ac601783614484565b91506145b782614576565b601782019050919050565b7f206973206d697373696e6720726f6c6520000000000000000000000000000000600082015250565b60006145f8601183614484565b9150614603826145c2565b601182019050919050565b60006146198261459f565b9150614625828561448f565b9150614630826145eb565b915061463c828461448f565b91508190509392505050565b600081519050919050565b600082825260208201905092915050565b600061466f82614648565b6146798185614653565b9350614689818560208601612d69565b61469281612d9c565b840191505092915050565b60006080820190506146b26000830187612e9d565b6146bf6020830186612e9d565b6146cc6040830185613197565b81810360608301526146de8184614664565b905095945050505050565b6000815190506146f881612cbe565b92915050565b60006020828403121561471457614713612c88565b5b6000614722848285016146e9565b91505092915050565b7f4552433732314d657461646174613a2055524920717565727920666f72206e6f60008201527f6e6578697374656e7420746f6b656e0000000000000000000000000000000000602082015250565b6000614787602f83612d58565b91506147928261472b565b604082019050919050565b600060208201905081810360008301526147b68161477a565b9050919050565b7f4e487b7100000000000000000000000000000000000000000000000000000000600052601260045260246000fd5b60006147f782612e08565b915061480283612e08565b925082614812576148116147bd565b5b828204905092915050565b600061482882612e08565b915061483383612e08565b925082614843576148426147bd565b5b828206905092915050565b7f4552433732313a206d696e7420746f20746865207a65726f2061646472657373600082015250565b6000614884602083612d58565b915061488f8261484e565b602082019050919050565b600060208201905081810360008301526148b381614877565b9050919050565b7f4552433732313a20746f6b656e20616c7265616479206d696e74656400000000600082015250565b60006148f0601c83612d58565b91506148fb826148ba565b602082019050919050565b6000602082019050818103600083015261491f816148e3565b905091905056fea264697066735822122087083193133aa5203da327549094ed55416c62212220785270fc80eb5176e41564736f6c634300080a0033",
  "immutableReferences": {},
  "source": "// SPDX-License-Identifier: MIT\r\npragma solidity ^0.8.4;\r\n\r\nimport \"openzeppelin-solidity/contracts/token/ERC721/ERC721.sol\";\r\nimport \"openzeppelin-solidity/contracts/token/ERC721/extensions/ERC721URIStorage.sol\";\r\nimport \"openzeppelin-solidity/contracts/token/ERC721/extensions/ERC721Burnable.sol\";\r\nimport \"openzeppelin-solidity/contracts/access/AccessControl.sol\";\r\nimport \"openzeppelin-solidity/contracts/utils/Counters.sol\";\r\n\r\ncontract flipCard is ERC721, ERC721URIStorage, ERC721Burnable, AccessControl {\r\n    using Counters for Counters.Counter;\r\n\r\n    bytes32 public constant MINTER_ROLE = keccak256(\"MINTER_ROLE\"); // can mint new NFTs\r\n    bytes32 public constant HANDLER_ROLE = keccak256(\"HANDLER_ROLE\"); //can handle repair and repairments\r\n    bytes32 public constant BOOK_KEEPER_ROLE = keccak256(\"BOOK_KEEPER_ROLE\"); // can transfer the NFTs to anyone & update their issue dates\r\n    Counters.Counter private _tokenIdCounter;\r\n\r\n    //This is the brand head wallet address to make them the default admin on the blockchain\r\n    address public brandAddress;\r\n\r\n    constructor() ERC721(\"FlipCards\", \"FCRDS\") {\r\n        //Called when the blockchain starts\r\n        //This way the person initializing the blockchain have all the necessary roles\r\n        //These roles are just provided for readiblity and scope assessment, just DEFAULT_ADMIN_ROLE is equivalent to these\r\n\r\n        makeSuperAdmin(msg.sender);\r\n\r\n        //when the contract lits up we want to assign the default address to brandAddress\r\n        brandAddress = 0x6fA75265a8A8CfEB7eB798248fab22dAe8b9bccD;\r\n        makeSuperAdmin(brandAddress);\r\n        //This way the brand owner will be the Admin since the contract starts\r\n    }\r\n\r\n    /// Return 'true' if the account belongs to a minter\r\n    function isMinter(address _account) public view virtual returns (bool) {\r\n        return\r\n            hasRole(DEFAULT_ADMIN_ROLE, _account) ||\r\n            hasRole(MINTER_ROLE, _account);\r\n    }\r\n\r\n    /// Restricted to the minters of the NFT\r\n    modifier onlyMinter() {\r\n        //user who can mint a new NFT\r\n        require(isMinter(msg.sender), \"Restricted to owner and minters\");\r\n        _;\r\n    }\r\n\r\n    /// Return 'true' if the account is the admin account\r\n    function isAdmin(address _account) public view virtual returns (bool) {\r\n        return hasRole(DEFAULT_ADMIN_ROLE, _account);\r\n    }\r\n\r\n    /// Restricted to the minters of the NFT\r\n    modifier onlyAdmin() {\r\n        //user who can mint a new NFT\r\n        require(isAdmin(msg.sender), \"Restricted to only admin\");\r\n        _;\r\n    }\r\n\r\n    function isUpdateMember(address _account)\r\n        public\r\n        view\r\n        virtual\r\n        returns (bool)\r\n    {\r\n        return\r\n            hasRole(DEFAULT_ADMIN_ROLE, _account) ||\r\n            hasRole(BOOK_KEEPER_ROLE, _account);\r\n    }\r\n\r\n    modifier onlyUpdateMember() {\r\n        require(isUpdateMember(msg.sender),\"Member is not allowed to update the NFT\");\r\n        _;\r\n    }\r\n\r\n    ///updates all the present roles for the given address\r\n    function makeSuperAdmin(address _member) public virtual onlyAdmin {\r\n        addRole(_member, MINTER_ROLE);\r\n        addRole(_member, DEFAULT_ADMIN_ROLE);\r\n        addRole(_member, HANDLER_ROLE);\r\n        addRole(_member, BOOK_KEEPER_ROLE);\r\n    }\r\n\r\n    /// updates the roles for the passed address\r\n    function addRole(address _member, bytes32 _role) public virtual onlyAdmin {\r\n        /**\r\n        member -> address of user whose role we need to update\r\n        role -> string defining the role for member\r\n         */\r\n        require(\r\n            _role == MINTER_ROLE ||\r\n                _role == HANDLER_ROLE ||\r\n                _role == BOOK_KEEPER_ROLE,\r\n                \"Defined role doesn't exists\"\r\n        );\r\n        grantRole(_role, _member);\r\n    }\r\n\r\n    /// Safely mint a new NFT\r\n    function safeMint(address to, string memory uri) public onlyMinter {\r\n        /**\r\n        to -> contract address on which the NFT needs to be minted\r\n        uri -> The uri of the token generating\r\n         */\r\n        uint256 tokenId = _tokenIdCounter.current();\r\n        _tokenIdCounter.increment();\r\n        _safeMint(to, tokenId);\r\n        _setTokenURI(tokenId, uri);\r\n    }\r\n\r\n    ///utility function to convert a byte32 into a string\r\n    function bytes32ToString(bytes32 x) public pure returns (string memory) {\r\n        bytes memory bytesString = new bytes(32);\r\n        uint256 charCount = 0;\r\n        uint256 j;\r\n        for (j = 0; j < 32; j++) {\r\n            bytes1 char = bytes1(bytes32(uint256(x) * 2**(8 * j)));\r\n            if (char != 0) {\r\n                bytesString[charCount] = char;\r\n                charCount++;\r\n            }\r\n        }\r\n        bytes memory bytesStringTrimmed = new bytes(charCount);\r\n        for (j = 0; j < charCount; j++) {\r\n            bytesStringTrimmed[j] = bytesString[j];\r\n        }\r\n        return string(bytesStringTrimmed);\r\n    }\r\n\r\n    /// batch mint NFTs\r\n    function safeMintBatch(address to, bytes32[] memory _newTokenURIs)\r\n        public\r\n        onlyMinter\r\n    {\r\n        uint256 i = 0;\r\n        for (i = 0; i < _newTokenURIs.length; i++) {\r\n            //batch mint NFTs from the given array of token containing tokenURIs\r\n            safeMint(to, bytes32ToString(_newTokenURIs[i]));\r\n        }\r\n    }\r\n\r\n    function updateTokenUri(uint256 _tokenId, string memory _tokenURI)\r\n        public\r\n        onlyUpdateMember\r\n        returns (bool)\r\n    {\r\n        /**\r\n        Only user with the access to the updation request can update the URI token\r\n         */\r\n        _setTokenURI(_tokenId, _tokenURI);\r\n        return true;\r\n    }\r\n\r\n    // The following functions are overrides required by Solidity.\r\n\r\n    function _burn(uint256 tokenId)\r\n        internal\r\n        override(ERC721, ERC721URIStorage)\r\n    {\r\n        super._burn(tokenId);\r\n    }\r\n\r\n    function heartbeat() public pure returns (uint256) {\r\n        /**\r\n        Helps to check on the connecting frontend if the connectino is possible\r\n         */\r\n        return 1;\r\n    }\r\n\r\n    function tokenURI(uint256 tokenId)\r\n        public\r\n        view\r\n        override(ERC721, ERC721URIStorage)\r\n        returns (string memory)\r\n    {\r\n        return super.tokenURI(tokenId);\r\n    }\r\n\r\n    //// when token is sent on this chain it must return the magic value\r\n    function onERC721Received(\r\n        address,\r\n        address,\r\n        uint256,\r\n        bytes calldata\r\n    ) external pure returns (bytes4) {\r\n        return bytes4(keccak256(\"onERC721Received(address,address,uint256,bytes)\"));\r\n    }\r\n\r\n    function supportsInterface(bytes4 interfaceId)\r\n        public\r\n        view\r\n        override(ERC721, AccessControl)\r\n        returns (bool)\r\n    {\r\n        return super.supportsInterface(interfaceId);\r\n    }\r\n}\r\n",
  "sourcePath": "C:\\Users\\aashi\\codes\\blockchain\\contracts\\flipCard.sol",
  "compiler": {
    "name": "solc",
    "version": "0.8.10+commit.fc410830.Emscripten.clang"
  },
  "schemaVersion": "3.4.8",
  "updatedAt": "2022-07-30T11:51:25.272Z",
  "devdoc": {
    "kind": "dev",
    "methods": {
      "approve(address,uint256)": {
        "details": "See {IERC721-approve}."
      },
      "balanceOf(address)": {
        "details": "See {IERC721-balanceOf}."
      },
      "burn(uint256)": {
        "details": "Burns `tokenId`. See {ERC721-_burn}. Requirements: - The caller must own `tokenId` or be an approved operator."
      },
      "getApproved(uint256)": {
        "details": "See {IERC721-getApproved}."
      },
      "getRoleAdmin(bytes32)": {
        "details": "Returns the admin role that controls `role`. See {grantRole} and {revokeRole}. To change a role's admin, use {_setRoleAdmin}."
      },
      "grantRole(bytes32,address)": {
        "details": "Grants `role` to `account`. If `account` had not been already granted `role`, emits a {RoleGranted} event. Requirements: - the caller must have ``role``'s admin role."
      },
      "hasRole(bytes32,address)": {
        "details": "Returns `true` if `account` has been granted `role`."
      },
      "isApprovedForAll(address,address)": {
        "details": "See {IERC721-isApprovedForAll}."
      },
      "name()": {
        "details": "See {IERC721Metadata-name}."
      },
      "ownerOf(uint256)": {
        "details": "See {IERC721-ownerOf}."
      },
      "renounceRole(bytes32,address)": {
        "details": "Revokes `role` from the calling account. Roles are often managed via {grantRole} and {revokeRole}: this function's purpose is to provide a mechanism for accounts to lose their privileges if they are compromised (such as when a trusted device is misplaced). If the calling account had been revoked `role`, emits a {RoleRevoked} event. Requirements: - the caller must be `account`."
      },
      "revokeRole(bytes32,address)": {
        "details": "Revokes `role` from `account`. If `account` had been granted `role`, emits a {RoleRevoked} event. Requirements: - the caller must have ``role``'s admin role."
      },
      "safeTransferFrom(address,address,uint256)": {
        "details": "See {IERC721-safeTransferFrom}."
      },
      "safeTransferFrom(address,address,uint256,bytes)": {
        "details": "See {IERC721-safeTransferFrom}."
      },
      "setApprovalForAll(address,bool)": {
        "details": "See {IERC721-setApprovalForAll}."
      },
      "symbol()": {
        "details": "See {IERC721Metadata-symbol}."
      },
      "transferFrom(address,address,uint256)": {
        "details": "See {IERC721-transferFrom}."
      }
    },
    "version": 1
  },
  "userdoc": {
    "kind": "user",
    "methods": {
      "addRole(address,bytes32)": {
        "notice": "updates the roles for the passed address"
      },
      "bytes32ToString(bytes32)": {
        "notice": "utility function to convert a byte32 into a string"
      },
      "isAdmin(address)": {
        "notice": "Return 'true' if the account is the admin account"
      },
      "isMinter(address)": {
        "notice": "Return 'true' if the account belongs to a minter"
      },
      "makeSuperAdmin(address)": {
        "notice": "updates all the present roles for the given address"
      },
      "safeMint(address,string)": {
        "notice": "Safely mint a new NFT"
      },
      "safeMintBatch(address,bytes32[])": {
        "notice": "batch mint NFTs"
      }
    },
    "version": 1
  }
}