{
  "contractName": "flipCard",
  "abi": [
    {
      "inputs": [],
      "stateMutability": "nonpayable",
      "type": "constructor"
    },
    {
      "anonymous": false,
      "inputs": [
        {
          "indexed": true,
          "internalType": "address",
          "name": "owner",
          "type": "address"
        },
        {
          "indexed": true,
          "internalType": "address",
          "name": "approved",
          "type": "address"
        },
        {
          "indexed": true,
          "internalType": "uint256",
          "name": "tokenId",
          "type": "uint256"
        }
      ],
      "name": "Approval",
      "type": "event"
    },
    {
      "anonymous": false,
      "inputs": [
        {
          "indexed": true,
          "internalType": "address",
          "name": "owner",
          "type": "address"
        },
        {
          "indexed": true,
          "internalType": "address",
          "name": "operator",
          "type": "address"
        },
        {
          "indexed": false,
          "internalType": "bool",
          "name": "approved",
          "type": "bool"
        }
      ],
      "name": "ApprovalForAll",
      "type": "event"
    },
    {
      "anonymous": false,
      "inputs": [
        {
          "indexed": true,
          "internalType": "bytes32",
          "name": "role",
          "type": "bytes32"
        },
        {
          "indexed": true,
          "internalType": "bytes32",
          "name": "previousAdminRole",
          "type": "bytes32"
        },
        {
          "indexed": true,
          "internalType": "bytes32",
          "name": "newAdminRole",
          "type": "bytes32"
        }
      ],
      "name": "RoleAdminChanged",
      "type": "event"
    },
    {
      "anonymous": false,
      "inputs": [
        {
          "indexed": true,
          "internalType": "bytes32",
          "name": "role",
          "type": "bytes32"
        },
        {
          "indexed": true,
          "internalType": "address",
          "name": "account",
          "type": "address"
        },
        {
          "indexed": true,
          "internalType": "address",
          "name": "sender",
          "type": "address"
        }
      ],
      "name": "RoleGranted",
      "type": "event"
    },
    {
      "anonymous": false,
      "inputs": [
        {
          "indexed": true,
          "internalType": "bytes32",
          "name": "role",
          "type": "bytes32"
        },
        {
          "indexed": true,
          "internalType": "address",
          "name": "account",
          "type": "address"
        },
        {
          "indexed": true,
          "internalType": "address",
          "name": "sender",
          "type": "address"
        }
      ],
      "name": "RoleRevoked",
      "type": "event"
    },
    {
      "anonymous": false,
      "inputs": [
        {
          "indexed": true,
          "internalType": "address",
          "name": "from",
          "type": "address"
        },
        {
          "indexed": true,
          "internalType": "address",
          "name": "to",
          "type": "address"
        },
        {
          "indexed": true,
          "internalType": "uint256",
          "name": "tokenId",
          "type": "uint256"
        }
      ],
      "name": "Transfer",
      "type": "event"
    },
    {
      "inputs": [],
      "name": "BOOK_KEEPER_ROLE",
      "outputs": [
        {
          "internalType": "bytes32",
          "name": "",
          "type": "bytes32"
        }
      ],
      "stateMutability": "view",
      "type": "function"
    },
    {
      "inputs": [],
      "name": "DEFAULT_ADMIN_ROLE",
      "outputs": [
        {
          "internalType": "bytes32",
          "name": "",
          "type": "bytes32"
        }
      ],
      "stateMutability": "view",
      "type": "function"
    },
    {
      "inputs": [],
      "name": "HANDLER_ROLE",
      "outputs": [
        {
          "internalType": "bytes32",
          "name": "",
          "type": "bytes32"
        }
      ],
      "stateMutability": "view",
      "type": "function"
    },
    {
      "inputs": [],
      "name": "MINTER_ROLE",
      "outputs": [
        {
          "internalType": "bytes32",
          "name": "",
          "type": "bytes32"
        }
      ],
      "stateMutability": "view",
      "type": "function"
    },
    {
      "inputs": [
        {
          "internalType": "address",
          "name": "to",
          "type": "address"
        },
        {
          "internalType": "uint256",
          "name": "tokenId",
          "type": "uint256"
        }
      ],
      "name": "approve",
      "outputs": [],
      "stateMutability": "nonpayable",
      "type": "function"
    },
    {
      "inputs": [
        {
          "internalType": "address",
          "name": "owner",
          "type": "address"
        }
      ],
      "name": "balanceOf",
      "outputs": [
        {
          "internalType": "uint256",
          "name": "",
          "type": "uint256"
        }
      ],
      "stateMutability": "view",
      "type": "function"
    },
    {
      "inputs": [],
      "name": "brandAddress",
      "outputs": [
        {
          "internalType": "address",
          "name": "",
          "type": "address"
        }
      ],
      "stateMutability": "view",
      "type": "function"
    },
    {
      "inputs": [
        {
          "internalType": "uint256",
          "name": "tokenId",
          "type": "uint256"
        }
      ],
      "name": "burn",
      "outputs": [],
      "stateMutability": "nonpayable",
      "type": "function"
    },
    {
      "inputs": [
        {
          "internalType": "uint256",
          "name": "tokenId",
          "type": "uint256"
        }
      ],
      "name": "getApproved",
      "outputs": [
        {
          "internalType": "address",
          "name": "",
          "type": "address"
        }
      ],
      "stateMutability": "view",
      "type": "function"
    },
    {
      "inputs": [
        {
          "internalType": "bytes32",
          "name": "role",
          "type": "bytes32"
        }
      ],
      "name": "getRoleAdmin",
      "outputs": [
        {
          "internalType": "bytes32",
          "name": "",
          "type": "bytes32"
        }
      ],
      "stateMutability": "view",
      "type": "function"
    },
    {
      "inputs": [
        {
          "internalType": "bytes32",
          "name": "role",
          "type": "bytes32"
        },
        {
          "internalType": "address",
          "name": "account",
          "type": "address"
        }
      ],
      "name": "grantRole",
      "outputs": [],
      "stateMutability": "nonpayable",
      "type": "function"
    },
    {
      "inputs": [
        {
          "internalType": "bytes32",
          "name": "role",
          "type": "bytes32"
        },
        {
          "internalType": "address",
          "name": "account",
          "type": "address"
        }
      ],
      "name": "hasRole",
      "outputs": [
        {
          "internalType": "bool",
          "name": "",
          "type": "bool"
        }
      ],
      "stateMutability": "view",
      "type": "function"
    },
    {
      "inputs": [
        {
          "internalType": "address",
          "name": "owner",
          "type": "address"
        },
        {
          "internalType": "address",
          "name": "operator",
          "type": "address"
        }
      ],
      "name": "isApprovedForAll",
      "outputs": [
        {
          "internalType": "bool",
          "name": "",
          "type": "bool"
        }
      ],
      "stateMutability": "view",
      "type": "function"
    },
    {
      "inputs": [],
      "name": "name",
      "outputs": [
        {
          "internalType": "string",
          "name": "",
          "type": "string"
        }
      ],
      "stateMutability": "view",
      "type": "function"
    },
    {
      "inputs": [
        {
          "internalType": "uint256",
          "name": "tokenId",
          "type": "uint256"
        }
      ],
      "name": "ownerOf",
      "outputs": [
        {
          "internalType": "address",
          "name": "",
          "type": "address"
        }
      ],
      "stateMutability": "view",
      "type": "function"
    },
    {
      "inputs": [
        {
          "internalType": "bytes32",
          "name": "role",
          "type": "bytes32"
        },
        {
          "internalType": "address",
          "name": "account",
          "type": "address"
        }
      ],
      "name": "renounceRole",
      "outputs": [],
      "stateMutability": "nonpayable",
      "type": "function"
    },
    {
      "inputs": [
        {
          "internalType": "bytes32",
          "name": "role",
          "type": "bytes32"
        },
        {
          "internalType": "address",
          "name": "account",
          "type": "address"
        }
      ],
      "name": "revokeRole",
      "outputs": [],
      "stateMutability": "nonpayable",
      "type": "function"
    },
    {
      "inputs": [
        {
          "internalType": "address",
          "name": "from",
          "type": "address"
        },
        {
          "internalType": "address",
          "name": "to",
          "type": "address"
        },
        {
          "internalType": "uint256",
          "name": "tokenId",
          "type": "uint256"
        }
      ],
      "name": "safeTransferFrom",
      "outputs": [],
      "stateMutability": "nonpayable",
      "type": "function"
    },
    {
      "inputs": [
        {
          "internalType": "address",
          "name": "from",
          "type": "address"
        },
        {
          "internalType": "address",
          "name": "to",
          "type": "address"
        },
        {
          "internalType": "uint256",
          "name": "tokenId",
          "type": "uint256"
        },
        {
          "internalType": "bytes",
          "name": "_data",
          "type": "bytes"
        }
      ],
      "name": "safeTransferFrom",
      "outputs": [],
      "stateMutability": "nonpayable",
      "type": "function"
    },
    {
      "inputs": [
        {
          "internalType": "address",
          "name": "operator",
          "type": "address"
        },
        {
          "internalType": "bool",
          "name": "approved",
          "type": "bool"
        }
      ],
      "name": "setApprovalForAll",
      "outputs": [],
      "stateMutability": "nonpayable",
      "type": "function"
    },
    {
      "inputs": [],
      "name": "symbol",
      "outputs": [
        {
          "internalType": "string",
          "name": "",
          "type": "string"
        }
      ],
      "stateMutability": "view",
      "type": "function"
    },
    {
      "inputs": [
        {
          "internalType": "address",
          "name": "from",
          "type": "address"
        },
        {
          "internalType": "address",
          "name": "to",
          "type": "address"
        },
        {
          "internalType": "uint256",
          "name": "tokenId",
          "type": "uint256"
        }
      ],
      "name": "transferFrom",
      "outputs": [],
      "stateMutability": "nonpayable",
      "type": "function"
    },
    {
      "inputs": [
        {
          "internalType": "address",
          "name": "_account",
          "type": "address"
        }
      ],
      "name": "isMinter",
      "outputs": [
        {
          "internalType": "bool",
          "name": "",
          "type": "bool"
        }
      ],
      "stateMutability": "view",
      "type": "function"
    },
    {
      "inputs": [
        {
          "internalType": "address",
          "name": "_account",
          "type": "address"
        }
      ],
      "name": "isAdmin",
      "outputs": [
        {
          "internalType": "bool",
          "name": "",
          "type": "bool"
        }
      ],
      "stateMutability": "view",
      "type": "function"
    },
    {
      "inputs": [
        {
          "internalType": "address",
          "name": "_account",
          "type": "address"
        }
      ],
      "name": "isUpdateMember",
      "outputs": [
        {
          "internalType": "bool",
          "name": "",
          "type": "bool"
        }
      ],
      "stateMutability": "view",
      "type": "function"
    },
    {
      "inputs": [
        {
          "internalType": "address",
          "name": "_member",
          "type": "address"
        }
      ],
      "name": "makeSuperAdmin",
      "outputs": [],
      "stateMutability": "nonpayable",
      "type": "function"
    },
    {
      "inputs": [
        {
          "internalType": "address",
          "name": "_member",
          "type": "address"
        },
        {
          "internalType": "bytes32",
          "name": "_role",
          "type": "bytes32"
        }
      ],
      "name": "addRole",
      "outputs": [],
      "stateMutability": "nonpayable",
      "type": "function"
    },
    {
      "inputs": [
        {
          "internalType": "address",
          "name": "to",
          "type": "address"
        },
        {
          "internalType": "string",
          "name": "uri",
          "type": "string"
        }
      ],
      "name": "safeMint",
      "outputs": [],
      "stateMutability": "nonpayable",
      "type": "function"
    },
    {
      "inputs": [
        {
          "internalType": "bytes32",
          "name": "x",
          "type": "bytes32"
        }
      ],
      "name": "bytes32ToString",
      "outputs": [
        {
          "internalType": "string",
          "name": "",
          "type": "string"
        }
      ],
      "stateMutability": "pure",
      "type": "function"
    },
    {
      "inputs": [
        {
          "internalType": "address",
          "name": "to",
          "type": "address"
        },
        {
          "internalType": "bytes32[]",
          "name": "_newTokenURIs",
          "type": "bytes32[]"
        }
      ],
      "name": "safeMintBatch",
      "outputs": [],
      "stateMutability": "nonpayable",
      "type": "function"
    },
    {
      "inputs": [
        {
          "internalType": "uint256",
          "name": "_tokenId",
          "type": "uint256"
        },
        {
          "internalType": "string",
          "name": "_tokenURI",
          "type": "string"
        }
      ],
      "name": "updateTokenUri",
      "outputs": [
        {
          "internalType": "bool",
          "name": "",
          "type": "bool"
        }
      ],
      "stateMutability": "nonpayable",
      "type": "function"
    },
    {
      "inputs": [],
      "name": "heartbeat",
      "outputs": [
        {
          "internalType": "uint256",
          "name": "",
          "type": "uint256"
        }
      ],
      "stateMutability": "pure",
      "type": "function"
    },
    {
      "inputs": [
        {
          "internalType": "uint256",
          "name": "tokenId",
          "type": "uint256"
        }
      ],
      "name": "tokenURI",
      "outputs": [
        {
          "internalType": "string",
          "name": "",
          "type": "string"
        }
      ],
      "stateMutability": "view",
      "type": "function"
    },
    {
      "inputs": [
        {
          "internalType": "address",
          "name": "",
          "type": "address"
        },
        {
          "internalType": "address",
          "name": "",
          "type": "address"
        },
        {
          "internalType": "uint256",
          "name": "",
          "type": "uint256"
        },
        {
          "internalType": "bytes",
          "name": "",
          "type": "bytes"
        }
      ],
      "name": "onERC721Received",
      "outputs": [
        {
          "internalType": "bytes4",
          "name": "",
          "type": "bytes4"
        }
      ],
      "stateMutability": "pure",
      "type": "function"
    },
    {
      "inputs": [
        {
          "internalType": "bytes4",
          "name": "interfaceId",
          "type": "bytes4"
        }
      ],
      "name": "supportsInterface",
      "outputs": [
        {
          "internalType": "bool",
          "name": "",
          "type": "bool"
        }
      ],
      "stateMutability": "view",
      "type": "function"
    }
  ],
  "bytecode": "0x60806040523480156200001157600080fd5b506040518060400160405280600981526020017f466c6970436172647300000000000000000000000000000000000000000000008152506040518060400160405280600581526020017f46435244530000000000000000000000000000000000000000000000000000008152508160009080519060200190620000969291906200085d565b508060019080519060200190620000af9291906200085d565b505050620000c3336200015160201b60201c565b736fa75265a8a8cfeb7eb798248fab22dae8b9bccd600960006101000a81548173ffffffffffffffffffffffffffffffffffffffff021916908373ffffffffffffffffffffffffffffffffffffffff1602179055506200014b600960009054906101000a900473ffffffffffffffffffffffffffffffffffffffff166200015160201b60201c565b62000dc6565b62000162336200025260201b60201c565b620001a4576040517f08c379a00000000000000000000000000000000000000000000000000000000081526004016200019b906200096e565b60405180910390fd5b620001d6817f9f2df0fed2c77648de5860a4cc508cd0818c85b8b8a1ab4ceeef8d981c8956a66200027060201b60201c565b620001eb816000801b6200027060201b60201c565b6200021d817f8ee6ed50dc250dbccf4d86bd88d4956ab55c7de37d1fed5508924b70da11fe8b6200027060201b60201c565b6200024f817f1cf2b81dce95f0e7b91e95903f9b70bc58c33207c55b6b0bc3ba3d0522942e316200027060201b60201c565b50565b6000620002696000801b836200035c60201b60201c565b9050919050565b62000281336200025260201b60201c565b620002c3576040517f08c379a0000000000000000000000000000000000000000000000000000000008152600401620002ba906200096e565b60405180910390fd5b7f9f2df0fed2c77648de5860a4cc508cd0818c85b8b8a1ab4ceeef8d981c8956a68114806200031157507f8ee6ed50dc250dbccf4d86bd88d4956ab55c7de37d1fed5508924b70da11fe8b81145b806200033c57507f1cf2b81dce95f0e7b91e95903f9b70bc58c33207c55b6b0bc3ba3d0522942e3181145b6200034657600080fd5b620003588183620003c760201b60201c565b5050565b60006007600084815260200190815260200160002060000160008373ffffffffffffffffffffffffffffffffffffffff1673ffffffffffffffffffffffffffffffffffffffff16815260200190815260200160002060009054906101000a900460ff16905092915050565b620003d8826200040060201b60201c565b620003e9816200042060201b60201c565b620003fb83836200044460201b60201c565b505050565b600060076000838152602001908152602001600020600101549050919050565b6200044181620004356200053660201b60201c565b6200053e60201b60201c565b50565b6200045682826200035c60201b60201c565b620005325760016007600084815260200190815260200160002060000160008373ffffffffffffffffffffffffffffffffffffffff1673ffffffffffffffffffffffffffffffffffffffff16815260200190815260200160002060006101000a81548160ff021916908315150217905550620004d76200053660201b60201c565b73ffffffffffffffffffffffffffffffffffffffff168173ffffffffffffffffffffffffffffffffffffffff16837f2f8788117e7eff1d82e926ec794901d17c78024a50270940304540a733656f0d60405160405180910390a45b5050565b600033905090565b6200055082826200035c60201b60201c565b620005fe57620005838173ffffffffffffffffffffffffffffffffffffffff1660146200060260201b620014ce1760201c565b6200059e8360001c60206200060260201b620014ce1760201c565b604051602001620005b192919062000ab3565b6040516020818303038152906040526040517f08c379a0000000000000000000000000000000000000000000000000000000008152600401620005f5919062000b47565b60405180910390fd5b5050565b60606000600283600262000617919062000ba4565b62000623919062000c05565b67ffffffffffffffff8111156200063f576200063e62000c62565b5b6040519080825280601f01601f191660200182016040528015620006725781602001600182028036833780820191505090505b5090507f300000000000000000000000000000000000000000000000000000000000000081600081518110620006ad57620006ac62000c91565b5b60200101907effffffffffffffffffffffffffffffffffffffffffffffffffffffffffffff1916908160001a9053507f78000000000000000000000000000000000000000000000000000000000000008160018151811062000714576200071362000c91565b5b60200101907effffffffffffffffffffffffffffffffffffffffffffffffffffffffffffff1916908160001a9053506000600184600262000756919062000ba4565b62000762919062000c05565b90505b60018111156200080c577f3031323334353637383961626364656600000000000000000000000000000000600f861660108110620007a857620007a762000c91565b5b1a60f81b828281518110620007c257620007c162000c91565b5b60200101907effffffffffffffffffffffffffffffffffffffffffffffffffffffffffffff1916908160001a905350600485901c945080620008049062000cc0565b905062000765565b506000841462000853576040517f08c379a00000000000000000000000000000000000000000000000000000000081526004016200084a9062000d3f565b60405180910390fd5b8091505092915050565b8280546200086b9062000d90565b90600052602060002090601f0160209004810192826200088f5760008555620008db565b82601f10620008aa57805160ff1916838001178555620008db565b82800160010185558215620008db579182015b82811115620008da578251825591602001919060010190620008bd565b5b509050620008ea9190620008ee565b5090565b5b8082111562000909576000816000905550600101620008ef565b5090565b600082825260208201905092915050565b7f5265737472696374656420746f206f6e6c792061646d696e0000000000000000600082015250565b6000620009566018836200090d565b915062000963826200091e565b602082019050919050565b60006020820190508181036000830152620009898162000947565b9050919050565b600081905092915050565b7f416363657373436f6e74726f6c3a206163636f756e7420000000000000000000600082015250565b6000620009d360178362000990565b9150620009e0826200099b565b601782019050919050565b600081519050919050565b60005b8381101562000a16578082015181840152602081019050620009f9565b8381111562000a26576000848401525b50505050565b600062000a3982620009eb565b62000a45818562000990565b935062000a57818560208601620009f6565b80840191505092915050565b7f206973206d697373696e6720726f6c6520000000000000000000000000000000600082015250565b600062000a9b60118362000990565b915062000aa88262000a63565b601182019050919050565b600062000ac082620009c4565b915062000ace828562000a2c565b915062000adb8262000a8c565b915062000ae9828462000a2c565b91508190509392505050565b6000601f19601f8301169050919050565b600062000b1382620009eb565b62000b1f81856200090d565b935062000b31818560208601620009f6565b62000b3c8162000af5565b840191505092915050565b6000602082019050818103600083015262000b63818462000b06565b905092915050565b6000819050919050565b7f4e487b7100000000000000000000000000000000000000000000000000000000600052601160045260246000fd5b600062000bb18262000b6b565b915062000bbe8362000b6b565b9250817fffffffffffffffffffffffffffffffffffffffffffffffffffffffffffffffff048311821515161562000bfa5762000bf962000b75565b5b828202905092915050565b600062000c128262000b6b565b915062000c1f8362000b6b565b9250827fffffffffffffffffffffffffffffffffffffffffffffffffffffffffffffffff0382111562000c575762000c5662000b75565b5b828201905092915050565b7f4e487b7100000000000000000000000000000000000000000000000000000000600052604160045260246000fd5b7f4e487b7100000000000000000000000000000000000000000000000000000000600052603260045260246000fd5b600062000ccd8262000b6b565b9150600082141562000ce45762000ce362000b75565b5b600182039050919050565b7f537472696e67733a20686578206c656e67746820696e73756666696369656e74600082015250565b600062000d276020836200090d565b915062000d348262000cef565b602082019050919050565b6000602082019050818103600083015262000d5a8162000d18565b9050919050565b7f4e487b7100000000000000000000000000000000000000000000000000000000600052602260045260246000fd5b6000600282049050600182168062000da957607f821691505b6020821081141562000dc05762000dbf62000d61565b5b50919050565b6147cf8062000dd66000396000f3fe608060405234801561001057600080fd5b50600436106102115760003560e01c806376eed17411610125578063aa271e1a116100ad578063d31af4841161007c578063d31af4841461065c578063d53913931461068c578063d547741f146106aa578063d7677281146106c6578063e985e9c5146106e257610211565b8063aa271e1a146105c4578063b88d4fde146105f4578063c87b56dd14610610578063d204c45e1461064057610211565b806395d89b41116100f457806395d89b4114610532578063a217fddf14610550578063a22cb4651461056e578063a3b8272b1461058a578063a73f7f8a146105a857610211565b806376eed174146104985780637afa9e9c146104b457806391d14854146104d25780639201de551461050257610211565b80632f2ff15d116101a857806342966c681161017757806342966c68146103ce57806350b5e0f2146103ea5780636352211e1461041a5780636792166f1461044a57806370a082311461046857610211565b80632f2ff15d1461035c57806336568abe146103785780633defb9621461039457806342842e0e146103b257610211565b8063150b7a02116101e4578063150b7a02146102b057806323b872dd146102e0578063248a9ca3146102fc57806324d7806c1461032c57610211565b806301ffc9a71461021657806306fdde0314610246578063081812fc14610264578063095ea7b314610294575b600080fd5b610230600480360381019061022b9190612c5b565b610712565b60405161023d9190612ca3565b60405180910390f35b61024e610724565b60405161025b9190612d57565b60405180910390f35b61027e60048036038101906102799190612daf565b6107b6565b60405161028b9190612e1d565b60405180910390f35b6102ae60048036038101906102a99190612e64565b61083b565b005b6102ca60048036038101906102c59190612f09565b610953565b6040516102d79190612fa0565b60405180910390f35b6102fa60048036038101906102f59190612fbb565b61095e565b005b61031660048036038101906103119190613044565b6109be565b6040516103239190613080565b60405180910390f35b6103466004803603810190610341919061309b565b6109de565b6040516103539190612ca3565b60405180910390f35b610376600480360381019061037191906130c8565b6109f4565b005b610392600480360381019061038d91906130c8565b610a15565b005b61039c610a98565b6040516103a99190613117565b60405180910390f35b6103cc60048036038101906103c79190612fbb565b610aa1565b005b6103e860048036038101906103e39190612daf565b610ac1565b005b61040460048036038101906103ff919061309b565b610b1d565b6040516104119190612ca3565b60405180910390f35b610434600480360381019061042f9190612daf565b610b64565b6040516104419190612e1d565b60405180910390f35b610452610c16565b60405161045f9190613080565b60405180910390f35b610482600480360381019061047d919061309b565b610c3a565b60405161048f9190613117565b60405180910390f35b6104b260048036038101906104ad919061309b565b610cf2565b005b6104bc610dc8565b6040516104c99190613080565b60405180910390f35b6104ec60048036038101906104e791906130c8565b610dec565b6040516104f99190612ca3565b60405180910390f35b61051c60048036038101906105179190613044565b610e57565b6040516105299190612d57565b60405180910390f35b61053a611056565b6040516105479190612d57565b60405180910390f35b6105586110e8565b6040516105659190613080565b60405180910390f35b6105886004803603810190610583919061315e565b6110ef565b005b610592611105565b60405161059f9190612e1d565b60405180910390f35b6105c260048036038101906105bd919061319e565b61112b565b005b6105de60048036038101906105d9919061309b565b611201565b6040516105eb9190612ca3565b60405180910390f35b61060e6004803603810190610609919061330e565b611248565b005b61062a60048036038101906106259190612daf565b6112aa565b6040516106379190612d57565b60405180910390f35b61065a60048036038101906106559190613432565b6112bc565b005b6106766004803603810190610671919061348e565b611335565b6040516106839190612ca3565b60405180910390f35b61069461135d565b6040516106a19190613080565b60405180910390f35b6106c460048036038101906106bf91906130c8565b611381565b005b6106e060048036038101906106db91906135ad565b6113a2565b005b6106fc60048036038101906106f79190613609565b61143a565b6040516107099190612ca3565b60405180910390f35b600061071d8261170a565b9050919050565b60606000805461073390613678565b80601f016020809104026020016040519081016040528092919081815260200182805461075f90613678565b80156107ac5780601f10610781576101008083540402835291602001916107ac565b820191906000526020600020905b81548152906001019060200180831161078f57829003601f168201915b5050505050905090565b60006107c182611784565b610800576040517f08c379a00000000000000000000000000000000000000000000000000000000081526004016107f79061371c565b60405180910390fd5b6004600083815260200190815260200160002060009054906101000a900473ffffffffffffffffffffffffffffffffffffffff169050919050565b600061084682610b64565b90508073ffffffffffffffffffffffffffffffffffffffff168373ffffffffffffffffffffffffffffffffffffffff1614156108b7576040517f08c379a00000000000000000000000000000000000000000000000000000000081526004016108ae906137ae565b60405180910390fd5b8073ffffffffffffffffffffffffffffffffffffffff166108d66117f0565b73ffffffffffffffffffffffffffffffffffffffff1614806109055750610904816108ff6117f0565b61143a565b5b610944576040517f08c379a000000000000000000000000000000000000000000000000000000000815260040161093b90613840565b60405180910390fd5b61094e83836117f8565b505050565b600095945050505050565b61096f6109696117f0565b826118b1565b6109ae576040517f08c379a00000000000000000000000000000000000000000000000000000000081526004016109a5906138d2565b60405180910390fd5b6109b983838361198f565b505050565b600060076000838152602001908152602001600020600101549050919050565b60006109ed6000801b83610dec565b9050919050565b6109fd826109be565b610a0681611bf6565b610a108383611c0a565b505050565b610a1d6117f0565b73ffffffffffffffffffffffffffffffffffffffff168173ffffffffffffffffffffffffffffffffffffffff1614610a8a576040517f08c379a0000000000000000000000000000000000000000000000000000000008152600401610a8190613964565b60405180910390fd5b610a948282611ceb565b5050565b60006001905090565b610abc83838360405180602001604052806000815250611248565b505050565b610ad2610acc6117f0565b826118b1565b610b11576040517f08c379a0000000000000000000000000000000000000000000000000000000008152600401610b08906139f6565b60405180910390fd5b610b1a81611dcd565b50565b6000610b2c6000801b83610dec565b80610b5d5750610b5c7f1cf2b81dce95f0e7b91e95903f9b70bc58c33207c55b6b0bc3ba3d0522942e3183610dec565b5b9050919050565b6000806002600084815260200190815260200160002060009054906101000a900473ffffffffffffffffffffffffffffffffffffffff169050600073ffffffffffffffffffffffffffffffffffffffff168173ffffffffffffffffffffffffffffffffffffffff161415610c0d576040517f08c379a0000000000000000000000000000000000000000000000000000000008152600401610c0490613a88565b60405180910390fd5b80915050919050565b7f1cf2b81dce95f0e7b91e95903f9b70bc58c33207c55b6b0bc3ba3d0522942e3181565b60008073ffffffffffffffffffffffffffffffffffffffff168273ffffffffffffffffffffffffffffffffffffffff161415610cab576040517f08c379a0000000000000000000000000000000000000000000000000000000008152600401610ca290613b1a565b60405180910390fd5b600360008373ffffffffffffffffffffffffffffffffffffffff1673ffffffffffffffffffffffffffffffffffffffff168152602001908152602001600020549050919050565b610cfb336109de565b610d3a576040517f08c379a0000000000000000000000000000000000000000000000000000000008152600401610d3190613b86565b60405180910390fd5b610d64817f9f2df0fed2c77648de5860a4cc508cd0818c85b8b8a1ab4ceeef8d981c8956a661112b565b610d71816000801b61112b565b610d9b817f8ee6ed50dc250dbccf4d86bd88d4956ab55c7de37d1fed5508924b70da11fe8b61112b565b610dc5817f1cf2b81dce95f0e7b91e95903f9b70bc58c33207c55b6b0bc3ba3d0522942e3161112b565b50565b7f8ee6ed50dc250dbccf4d86bd88d4956ab55c7de37d1fed5508924b70da11fe8b81565b60006007600084815260200190815260200160002060000160008373ffffffffffffffffffffffffffffffffffffffff1673ffffffffffffffffffffffffffffffffffffffff16815260200190815260200160002060009054906101000a900460ff16905092915050565b60606000602067ffffffffffffffff811115610e7657610e756131e3565b5b6040519080825280601f01601f191660200182016040528015610ea85781602001600182028036833780820191505090505b5090506000805b6020811015610f79576000816008610ec79190613bd5565b6002610ed39190613d62565b8660001c610ee19190613bd5565b60001b9050600060f81b817effffffffffffffffffffffffffffffffffffffffffffffffffffffffffffff191614610f655780848481518110610f2757610f26613dad565b5b60200101907effffffffffffffffffffffffffffffffffffffffffffffffffffffffffffff1916908160001a9053508280610f6190613ddc565b9350505b508080610f7190613ddc565b915050610eaf565b60008267ffffffffffffffff811115610f9557610f946131e3565b5b6040519080825280601f01601f191660200182016040528015610fc75781602001600182028036833780820191505090505b509050600091505b8282101561104a57838281518110610fea57610fe9613dad565b5b602001015160f81c60f81b81838151811061100857611007613dad565b5b60200101907effffffffffffffffffffffffffffffffffffffffffffffffffffffffffffff1916908160001a905350818061104290613ddc565b925050610fcf565b80945050505050919050565b60606001805461106590613678565b80601f016020809104026020016040519081016040528092919081815260200182805461109190613678565b80156110de5780601f106110b3576101008083540402835291602001916110de565b820191906000526020600020905b8154815290600101906020018083116110c157829003601f168201915b5050505050905090565b6000801b81565b6111016110fa6117f0565b8383611dd9565b5050565b600960009054906101000a900473ffffffffffffffffffffffffffffffffffffffff1681565b611134336109de565b611173576040517f08c379a000000000000000000000000000000000000000000000000000000000815260040161116a90613b86565b60405180910390fd5b7f9f2df0fed2c77648de5860a4cc508cd0818c85b8b8a1ab4ceeef8d981c8956a68114806111c057507f8ee6ed50dc250dbccf4d86bd88d4956ab55c7de37d1fed5508924b70da11fe8b81145b806111ea57507f1cf2b81dce95f0e7b91e95903f9b70bc58c33207c55b6b0bc3ba3d0522942e3181145b6111f357600080fd5b6111fd81836109f4565b5050565b60006112106000801b83610dec565b8061124157506112407f9f2df0fed2c77648de5860a4cc508cd0818c85b8b8a1ab4ceeef8d981c8956a683610dec565b5b9050919050565b6112596112536117f0565b836118b1565b611298576040517f08c379a000000000000000000000000000000000000000000000000000000000815260040161128f906138d2565b60405180910390fd5b6112a484848484611f46565b50505050565b60606112b582611fa2565b9050919050565b6112c533611201565b611304576040517f08c379a00000000000000000000000000000000000000000000000000000000081526004016112fb90613e71565b60405180910390fd5b600061131060086120f4565b905061131c6008612102565b6113268382612118565b6113308183612136565b505050565b600061134033610b1d565b61134957600080fd5b6113538383612136565b6001905092915050565b7f9f2df0fed2c77648de5860a4cc508cd0818c85b8b8a1ab4ceeef8d981c8956a681565b61138a826109be565b61139381611bf6565b61139d8383611ceb565b505050565b6113ab33611201565b6113ea576040517f08c379a00000000000000000000000000000000000000000000000000000000081526004016113e190613e71565b60405180910390fd5b60005b8151811015611435576114228361141d8484815181106114105761140f613dad565b5b6020026020010151610e57565b6112bc565b808061142d90613ddc565b9150506113ed565b505050565b6000600560008473ffffffffffffffffffffffffffffffffffffffff1673ffffffffffffffffffffffffffffffffffffffff16815260200190815260200160002060008373ffffffffffffffffffffffffffffffffffffffff1673ffffffffffffffffffffffffffffffffffffffff16815260200190815260200160002060009054906101000a900460ff16905092915050565b6060600060028360026114e19190613bd5565b6114eb9190613e91565b67ffffffffffffffff811115611504576115036131e3565b5b6040519080825280601f01601f1916602001820160405280156115365781602001600182028036833780820191505090505b5090507f30000000000000000000000000000000000000000000000000000000000000008160008151811061156e5761156d613dad565b5b60200101907effffffffffffffffffffffffffffffffffffffffffffffffffffffffffffff1916908160001a9053507f7800000000000000000000000000000000000000000000000000000000000000816001815181106115d2576115d1613dad565b5b60200101907effffffffffffffffffffffffffffffffffffffffffffffffffffffffffffff1916908160001a905350600060018460026116129190613bd5565b61161c9190613e91565b90505b60018111156116bc577f3031323334353637383961626364656600000000000000000000000000000000600f86166010811061165e5761165d613dad565b5b1a60f81b82828151811061167557611674613dad565b5b60200101907effffffffffffffffffffffffffffffffffffffffffffffffffffffffffffff1916908160001a905350600485901c9450806116b590613ee7565b905061161f565b5060008414611700576040517f08c379a00000000000000000000000000000000000000000000000000000000081526004016116f790613f5d565b60405180910390fd5b8091505092915050565b60007f7965db0b000000000000000000000000000000000000000000000000000000007bffffffffffffffffffffffffffffffffffffffffffffffffffffffff1916827bffffffffffffffffffffffffffffffffffffffffffffffffffffffff1916148061177d575061177c826121aa565b5b9050919050565b60008073ffffffffffffffffffffffffffffffffffffffff166002600084815260200190815260200160002060009054906101000a900473ffffffffffffffffffffffffffffffffffffffff1673ffffffffffffffffffffffffffffffffffffffff1614159050919050565b600033905090565b816004600083815260200190815260200160002060006101000a81548173ffffffffffffffffffffffffffffffffffffffff021916908373ffffffffffffffffffffffffffffffffffffffff160217905550808273ffffffffffffffffffffffffffffffffffffffff1661186b83610b64565b73ffffffffffffffffffffffffffffffffffffffff167f8c5be1e5ebec7d5bd14f71427d1e84f3dd0314c0f7b2291e5b200ac8c7c3b92560405160405180910390a45050565b60006118bc82611784565b6118fb576040517f08c379a00000000000000000000000000000000000000000000000000000000081526004016118f290613fef565b60405180910390fd5b600061190683610b64565b90508073ffffffffffffffffffffffffffffffffffffffff168473ffffffffffffffffffffffffffffffffffffffff1614806119485750611947818561143a565b5b8061198657508373ffffffffffffffffffffffffffffffffffffffff1661196e846107b6565b73ffffffffffffffffffffffffffffffffffffffff16145b91505092915050565b8273ffffffffffffffffffffffffffffffffffffffff166119af82610b64565b73ffffffffffffffffffffffffffffffffffffffff1614611a05576040517f08c379a00000000000000000000000000000000000000000000000000000000081526004016119fc90614081565b60405180910390fd5b600073ffffffffffffffffffffffffffffffffffffffff168273ffffffffffffffffffffffffffffffffffffffff161415611a75576040517f08c379a0000000000000000000000000000000000000000000000000000000008152600401611a6c90614113565b60405180910390fd5b611a8083838361228c565b611a8b6000826117f8565b6001600360008573ffffffffffffffffffffffffffffffffffffffff1673ffffffffffffffffffffffffffffffffffffffff1681526020019081526020016000206000828254611adb9190614133565b925050819055506001600360008473ffffffffffffffffffffffffffffffffffffffff1673ffffffffffffffffffffffffffffffffffffffff1681526020019081526020016000206000828254611b329190613e91565b92505081905550816002600083815260200190815260200160002060006101000a81548173ffffffffffffffffffffffffffffffffffffffff021916908373ffffffffffffffffffffffffffffffffffffffff160217905550808273ffffffffffffffffffffffffffffffffffffffff168473ffffffffffffffffffffffffffffffffffffffff167fddf252ad1be2c89b69c2b068fc378daa952ba7f163c4a11628f55a4df523b3ef60405160405180910390a4611bf1838383612291565b505050565b611c0781611c026117f0565b612296565b50565b611c148282610dec565b611ce75760016007600084815260200190815260200160002060000160008373ffffffffffffffffffffffffffffffffffffffff1673ffffffffffffffffffffffffffffffffffffffff16815260200190815260200160002060006101000a81548160ff021916908315150217905550611c8c6117f0565b73ffffffffffffffffffffffffffffffffffffffff168173ffffffffffffffffffffffffffffffffffffffff16837f2f8788117e7eff1d82e926ec794901d17c78024a50270940304540a733656f0d60405160405180910390a45b5050565b611cf58282610dec565b15611dc95760006007600084815260200190815260200160002060000160008373ffffffffffffffffffffffffffffffffffffffff1673ffffffffffffffffffffffffffffffffffffffff16815260200190815260200160002060006101000a81548160ff021916908315150217905550611d6e6117f0565b73ffffffffffffffffffffffffffffffffffffffff168173ffffffffffffffffffffffffffffffffffffffff16837ff6391f5c32d9c69d2a47ea670b442974b53935d1edc7fd64eb21e047a839171b60405160405180910390a45b5050565b611dd681612333565b50565b8173ffffffffffffffffffffffffffffffffffffffff168373ffffffffffffffffffffffffffffffffffffffff161415611e48576040517f08c379a0000000000000000000000000000000000000000000000000000000008152600401611e3f906141b3565b60405180910390fd5b80600560008573ffffffffffffffffffffffffffffffffffffffff1673ffffffffffffffffffffffffffffffffffffffff16815260200190815260200160002060008473ffffffffffffffffffffffffffffffffffffffff1673ffffffffffffffffffffffffffffffffffffffff16815260200190815260200160002060006101000a81548160ff0219169083151502179055508173ffffffffffffffffffffffffffffffffffffffff168373ffffffffffffffffffffffffffffffffffffffff167f17307eab39ab6107e8899845ad3d59bd9653f200f220920489ca2b5937696c3183604051611f399190612ca3565b60405180910390a3505050565b611f5184848461198f565b611f5d84848484612386565b611f9c576040517f08c379a0000000000000000000000000000000000000000000000000000000008152600401611f9390614245565b60405180910390fd5b50505050565b6060611fad82611784565b611fec576040517f08c379a0000000000000000000000000000000000000000000000000000000008152600401611fe3906142d7565b60405180910390fd5b600060066000848152602001908152602001600020805461200c90613678565b80601f016020809104026020016040519081016040528092919081815260200182805461203890613678565b80156120855780601f1061205a57610100808354040283529160200191612085565b820191906000526020600020905b81548152906001019060200180831161206857829003601f168201915b50505050509050600061209661250e565b90506000815114156120ac5781925050506120ef565b6000825111156120e15780826040516020016120c9929190614333565b604051602081830303815290604052925050506120ef565b6120ea84612525565b925050505b919050565b600081600001549050919050565b6001816000016000828254019250508190555050565b6121328282604051806020016040528060008152506125cc565b5050565b61213f82611784565b61217e576040517f08c379a0000000000000000000000000000000000000000000000000000000008152600401612175906143c9565b60405180910390fd5b806006600084815260200190815260200160002090805190602001906121a5929190612b0c565b505050565b60007f80ac58cd000000000000000000000000000000000000000000000000000000007bffffffffffffffffffffffffffffffffffffffffffffffffffffffff1916827bffffffffffffffffffffffffffffffffffffffffffffffffffffffff1916148061227557507f5b5e139f000000000000000000000000000000000000000000000000000000007bffffffffffffffffffffffffffffffffffffffffffffffffffffffff1916827bffffffffffffffffffffffffffffffffffffffffffffffffffffffff1916145b80612285575061228482612627565b5b9050919050565b505050565b505050565b6122a08282610dec565b61232f576122c58173ffffffffffffffffffffffffffffffffffffffff1660146114ce565b6122d38360001c60206114ce565b6040516020016122e4929190614481565b6040516020818303038152906040526040517f08c379a00000000000000000000000000000000000000000000000000000000081526004016123269190612d57565b60405180910390fd5b5050565b61233c81612691565b600060066000838152602001908152602001600020805461235c90613678565b905014612383576006600082815260200190815260200160002060006123829190612b92565b5b50565b60006123a78473ffffffffffffffffffffffffffffffffffffffff166127ae565b15612501578373ffffffffffffffffffffffffffffffffffffffff1663150b7a026123d06117f0565b8786866040518563ffffffff1660e01b81526004016123f29493929190614510565b6020604051808303816000875af192505050801561242e57506040513d601f19601f8201168201806040525081019061242b9190614571565b60015b6124b1573d806000811461245e576040519150601f19603f3d011682016040523d82523d6000602084013e612463565b606091505b506000815114156124a9576040517f08c379a00000000000000000000000000000000000000000000000000000000081526004016124a090614245565b60405180910390fd5b805181602001fd5b63150b7a0260e01b7bffffffffffffffffffffffffffffffffffffffffffffffffffffffff1916817bffffffffffffffffffffffffffffffffffffffffffffffffffffffff191614915050612506565b600190505b949350505050565b606060405180602001604052806000815250905090565b606061253082611784565b61256f576040517f08c379a000000000000000000000000000000000000000000000000000000000815260040161256690614610565b60405180910390fd5b600061257961250e565b9050600081511161259957604051806020016040528060008152506125c4565b806125a3846127d1565b6040516020016125b4929190614333565b6040516020818303038152906040525b915050919050565b6125d68383612932565b6125e36000848484612386565b612622576040517f08c379a000000000000000000000000000000000000000000000000000000000815260040161261990614245565b60405180910390fd5b505050565b60007f01ffc9a7000000000000000000000000000000000000000000000000000000007bffffffffffffffffffffffffffffffffffffffffffffffffffffffff1916827bffffffffffffffffffffffffffffffffffffffffffffffffffffffff1916149050919050565b600061269c82610b64565b90506126aa8160008461228c565b6126b56000836117f8565b6001600360008373ffffffffffffffffffffffffffffffffffffffff1673ffffffffffffffffffffffffffffffffffffffff16815260200190815260200160002060008282546127059190614133565b925050819055506002600083815260200190815260200160002060006101000a81549073ffffffffffffffffffffffffffffffffffffffff021916905581600073ffffffffffffffffffffffffffffffffffffffff168273ffffffffffffffffffffffffffffffffffffffff167fddf252ad1be2c89b69c2b068fc378daa952ba7f163c4a11628f55a4df523b3ef60405160405180910390a46127aa81600084612291565b5050565b6000808273ffffffffffffffffffffffffffffffffffffffff163b119050919050565b60606000821415612819576040518060400160405280600181526020017f3000000000000000000000000000000000000000000000000000000000000000815250905061292d565b600082905060005b6000821461284b57808061283490613ddc565b915050600a82612844919061465f565b9150612821565b60008167ffffffffffffffff811115612867576128666131e3565b5b6040519080825280601f01601f1916602001820160405280156128995781602001600182028036833780820191505090505b5090505b60008514612926576001826128b29190614133565b9150600a856128c19190614690565b60306128cd9190613e91565b60f81b8183815181106128e3576128e2613dad565b5b60200101907effffffffffffffffffffffffffffffffffffffffffffffffffffffffffffff1916908160001a905350600a8561291f919061465f565b945061289d565b8093505050505b919050565b600073ffffffffffffffffffffffffffffffffffffffff168273ffffffffffffffffffffffffffffffffffffffff1614156129a2576040517f08c379a00000000000000000000000000000000000000000000000000000000081526004016129999061470d565b60405180910390fd5b6129ab81611784565b156129eb576040517f08c379a00000000000000000000000000000000000000000000000000000000081526004016129e290614779565b60405180910390fd5b6129f76000838361228c565b6001600360008473ffffffffffffffffffffffffffffffffffffffff1673ffffffffffffffffffffffffffffffffffffffff1681526020019081526020016000206000828254612a479190613e91565b92505081905550816002600083815260200190815260200160002060006101000a81548173ffffffffffffffffffffffffffffffffffffffff021916908373ffffffffffffffffffffffffffffffffffffffff160217905550808273ffffffffffffffffffffffffffffffffffffffff16600073ffffffffffffffffffffffffffffffffffffffff167fddf252ad1be2c89b69c2b068fc378daa952ba7f163c4a11628f55a4df523b3ef60405160405180910390a4612b0860008383612291565b5050565b828054612b1890613678565b90600052602060002090601f016020900481019282612b3a5760008555612b81565b82601f10612b5357805160ff1916838001178555612b81565b82800160010185558215612b81579182015b82811115612b80578251825591602001919060010190612b65565b5b509050612b8e9190612bd2565b5090565b508054612b9e90613678565b6000825580601f10612bb05750612bcf565b601f016020900490600052602060002090810190612bce9190612bd2565b5b50565b5b80821115612beb576000816000905550600101612bd3565b5090565b6000604051905090565b600080fd5b600080fd5b60007fffffffff0000000000000000000000000000000000000000000000000000000082169050919050565b612c3881612c03565b8114612c4357600080fd5b50565b600081359050612c5581612c2f565b92915050565b600060208284031215612c7157612c70612bf9565b5b6000612c7f84828501612c46565b91505092915050565b60008115159050919050565b612c9d81612c88565b82525050565b6000602082019050612cb86000830184612c94565b92915050565b600081519050919050565b600082825260208201905092915050565b60005b83811015612cf8578082015181840152602081019050612cdd565b83811115612d07576000848401525b50505050565b6000601f19601f8301169050919050565b6000612d2982612cbe565b612d338185612cc9565b9350612d43818560208601612cda565b612d4c81612d0d565b840191505092915050565b60006020820190508181036000830152612d718184612d1e565b905092915050565b6000819050919050565b612d8c81612d79565b8114612d9757600080fd5b50565b600081359050612da981612d83565b92915050565b600060208284031215612dc557612dc4612bf9565b5b6000612dd384828501612d9a565b91505092915050565b600073ffffffffffffffffffffffffffffffffffffffff82169050919050565b6000612e0782612ddc565b9050919050565b612e1781612dfc565b82525050565b6000602082019050612e326000830184612e0e565b92915050565b612e4181612dfc565b8114612e4c57600080fd5b50565b600081359050612e5e81612e38565b92915050565b60008060408385031215612e7b57612e7a612bf9565b5b6000612e8985828601612e4f565b9250506020612e9a85828601612d9a565b9150509250929050565b600080fd5b600080fd5b600080fd5b60008083601f840112612ec957612ec8612ea4565b5b8235905067ffffffffffffffff811115612ee657612ee5612ea9565b5b602083019150836001820283011115612f0257612f01612eae565b5b9250929050565b600080600080600060808688031215612f2557612f24612bf9565b5b6000612f3388828901612e4f565b9550506020612f4488828901612e4f565b9450506040612f5588828901612d9a565b935050606086013567ffffffffffffffff811115612f7657612f75612bfe565b5b612f8288828901612eb3565b92509250509295509295909350565b612f9a81612c03565b82525050565b6000602082019050612fb56000830184612f91565b92915050565b600080600060608486031215612fd457612fd3612bf9565b5b6000612fe286828701612e4f565b9350506020612ff386828701612e4f565b925050604061300486828701612d9a565b9150509250925092565b6000819050919050565b6130218161300e565b811461302c57600080fd5b50565b60008135905061303e81613018565b92915050565b60006020828403121561305a57613059612bf9565b5b60006130688482850161302f565b91505092915050565b61307a8161300e565b82525050565b60006020820190506130956000830184613071565b92915050565b6000602082840312156130b1576130b0612bf9565b5b60006130bf84828501612e4f565b91505092915050565b600080604083850312156130df576130de612bf9565b5b60006130ed8582860161302f565b92505060206130fe85828601612e4f565b9150509250929050565b61311181612d79565b82525050565b600060208201905061312c6000830184613108565b92915050565b61313b81612c88565b811461314657600080fd5b50565b60008135905061315881613132565b92915050565b6000806040838503121561317557613174612bf9565b5b600061318385828601612e4f565b925050602061319485828601613149565b9150509250929050565b600080604083850312156131b5576131b4612bf9565b5b60006131c385828601612e4f565b92505060206131d48582860161302f565b9150509250929050565b600080fd5b7f4e487b7100000000000000000000000000000000000000000000000000000000600052604160045260246000fd5b61321b82612d0d565b810181811067ffffffffffffffff8211171561323a576132396131e3565b5b80604052505050565b600061324d612bef565b90506132598282613212565b919050565b600067ffffffffffffffff821115613279576132786131e3565b5b61328282612d0d565b9050602081019050919050565b82818337600083830152505050565b60006132b16132ac8461325e565b613243565b9050828152602081018484840111156132cd576132cc6131de565b5b6132d884828561328f565b509392505050565b600082601f8301126132f5576132f4612ea4565b5b813561330584826020860161329e565b91505092915050565b6000806000806080858703121561332857613327612bf9565b5b600061333687828801612e4f565b945050602061334787828801612e4f565b935050604061335887828801612d9a565b925050606085013567ffffffffffffffff81111561337957613378612bfe565b5b613385878288016132e0565b91505092959194509250565b600067ffffffffffffffff8211156133ac576133ab6131e3565b5b6133b582612d0d565b9050602081019050919050565b60006133d56133d084613391565b613243565b9050828152602081018484840111156133f1576133f06131de565b5b6133fc84828561328f565b509392505050565b600082601f83011261341957613418612ea4565b5b81356134298482602086016133c2565b91505092915050565b6000806040838503121561344957613448612bf9565b5b600061345785828601612e4f565b925050602083013567ffffffffffffffff81111561347857613477612bfe565b5b61348485828601613404565b9150509250929050565b600080604083850312156134a5576134a4612bf9565b5b60006134b385828601612d9a565b925050602083013567ffffffffffffffff8111156134d4576134d3612bfe565b5b6134e085828601613404565b9150509250929050565b600067ffffffffffffffff821115613505576135046131e3565b5b602082029050602081019050919050565b6000613529613524846134ea565b613243565b9050808382526020820190506020840283018581111561354c5761354b612eae565b5b835b818110156135755780613561888261302f565b84526020840193505060208101905061354e565b5050509392505050565b600082601f83011261359457613593612ea4565b5b81356135a4848260208601613516565b91505092915050565b600080604083850312156135c4576135c3612bf9565b5b60006135d285828601612e4f565b925050602083013567ffffffffffffffff8111156135f3576135f2612bfe565b5b6135ff8582860161357f565b9150509250929050565b600080604083850312156136205761361f612bf9565b5b600061362e85828601612e4f565b925050602061363f85828601612e4f565b9150509250929050565b7f4e487b7100000000000000000000000000000000000000000000000000000000600052602260045260246000fd5b6000600282049050600182168061369057607f821691505b602082108114156136a4576136a3613649565b5b50919050565b7f4552433732313a20617070726f76656420717565727920666f72206e6f6e657860008201527f697374656e7420746f6b656e0000000000000000000000000000000000000000602082015250565b6000613706602c83612cc9565b9150613711826136aa565b604082019050919050565b60006020820190508181036000830152613735816136f9565b9050919050565b7f4552433732313a20617070726f76616c20746f2063757272656e74206f776e6560008201527f7200000000000000000000000000000000000000000000000000000000000000602082015250565b6000613798602183612cc9565b91506137a38261373c565b604082019050919050565b600060208201905081810360008301526137c78161378b565b9050919050565b7f4552433732313a20617070726f76652063616c6c6572206973206e6f74206f7760008201527f6e6572206e6f7220617070726f76656420666f7220616c6c0000000000000000602082015250565b600061382a603883612cc9565b9150613835826137ce565b604082019050919050565b600060208201905081810360008301526138598161381d565b9050919050565b7f4552433732313a207472616e736665722063616c6c6572206973206e6f74206f60008201527f776e6572206e6f7220617070726f766564000000000000000000000000000000602082015250565b60006138bc603183612cc9565b91506138c782613860565b604082019050919050565b600060208201905081810360008301526138eb816138af565b9050919050565b7f416363657373436f6e74726f6c3a2063616e206f6e6c792072656e6f756e636560008201527f20726f6c657320666f722073656c660000000000000000000000000000000000602082015250565b600061394e602f83612cc9565b9150613959826138f2565b604082019050919050565b6000602082019050818103600083015261397d81613941565b9050919050565b7f4552433732314275726e61626c653a2063616c6c6572206973206e6f74206f7760008201527f6e6572206e6f7220617070726f76656400000000000000000000000000000000602082015250565b60006139e0603083612cc9565b91506139eb82613984565b604082019050919050565b60006020820190508181036000830152613a0f816139d3565b9050919050565b7f4552433732313a206f776e657220717565727920666f72206e6f6e657869737460008201527f656e7420746f6b656e0000000000000000000000000000000000000000000000602082015250565b6000613a72602983612cc9565b9150613a7d82613a16565b604082019050919050565b60006020820190508181036000830152613aa181613a65565b9050919050565b7f4552433732313a2062616c616e636520717565727920666f7220746865207a6560008201527f726f206164647265737300000000000000000000000000000000000000000000602082015250565b6000613b04602a83612cc9565b9150613b0f82613aa8565b604082019050919050565b60006020820190508181036000830152613b3381613af7565b9050919050565b7f5265737472696374656420746f206f6e6c792061646d696e0000000000000000600082015250565b6000613b70601883612cc9565b9150613b7b82613b3a565b602082019050919050565b60006020820190508181036000830152613b9f81613b63565b9050919050565b7f4e487b7100000000000000000000000000000000000000000000000000000000600052601160045260246000fd5b6000613be082612d79565b9150613beb83612d79565b9250817fffffffffffffffffffffffffffffffffffffffffffffffffffffffffffffffff0483118215151615613c2457613c23613ba6565b5b828202905092915050565b60008160011c9050919050565b6000808291508390505b6001851115613c8657808604811115613c6257613c61613ba6565b5b6001851615613c715780820291505b8081029050613c7f85613c2f565b9450613c46565b94509492505050565b600082613c9f5760019050613d5b565b81613cad5760009050613d5b565b8160018114613cc35760028114613ccd57613cfc565b6001915050613d5b565b60ff841115613cdf57613cde613ba6565b5b8360020a915084821115613cf657613cf5613ba6565b5b50613d5b565b5060208310610133831016604e8410600b8410161715613d315782820a905083811115613d2c57613d2b613ba6565b5b613d5b565b613d3e8484846001613c3c565b92509050818404811115613d5557613d54613ba6565b5b81810290505b9392505050565b6000613d6d82612d79565b9150613d7883612d79565b9250613da57fffffffffffffffffffffffffffffffffffffffffffffffffffffffffffffffff8484613c8f565b905092915050565b7f4e487b7100000000000000000000000000000000000000000000000000000000600052603260045260246000fd5b6000613de782612d79565b91507fffffffffffffffffffffffffffffffffffffffffffffffffffffffffffffffff821415613e1a57613e19613ba6565b5b600182019050919050565b7f5265737472696374656420746f206f776e657220616e64206d696e7465727300600082015250565b6000613e5b601f83612cc9565b9150613e6682613e25565b602082019050919050565b60006020820190508181036000830152613e8a81613e4e565b9050919050565b6000613e9c82612d79565b9150613ea783612d79565b9250827fffffffffffffffffffffffffffffffffffffffffffffffffffffffffffffffff03821115613edc57613edb613ba6565b5b828201905092915050565b6000613ef282612d79565b91506000821415613f0657613f05613ba6565b5b600182039050919050565b7f537472696e67733a20686578206c656e67746820696e73756666696369656e74600082015250565b6000613f47602083612cc9565b9150613f5282613f11565b602082019050919050565b60006020820190508181036000830152613f7681613f3a565b9050919050565b7f4552433732313a206f70657261746f7220717565727920666f72206e6f6e657860008201527f697374656e7420746f6b656e0000000000000000000000000000000000000000602082015250565b6000613fd9602c83612cc9565b9150613fe482613f7d565b604082019050919050565b6000602082019050818103600083015261400881613fcc565b9050919050565b7f4552433732313a207472616e736665722066726f6d20696e636f72726563742060008201527f6f776e6572000000000000000000000000000000000000000000000000000000602082015250565b600061406b602583612cc9565b91506140768261400f565b604082019050919050565b6000602082019050818103600083015261409a8161405e565b9050919050565b7f4552433732313a207472616e7366657220746f20746865207a65726f2061646460008201527f7265737300000000000000000000000000000000000000000000000000000000602082015250565b60006140fd602483612cc9565b9150614108826140a1565b604082019050919050565b6000602082019050818103600083015261412c816140f0565b9050919050565b600061413e82612d79565b915061414983612d79565b92508282101561415c5761415b613ba6565b5b828203905092915050565b7f4552433732313a20617070726f766520746f2063616c6c657200000000000000600082015250565b600061419d601983612cc9565b91506141a882614167565b602082019050919050565b600060208201905081810360008301526141cc81614190565b9050919050565b7f4552433732313a207472616e7366657220746f206e6f6e20455243373231526560008201527f63656976657220696d706c656d656e7465720000000000000000000000000000602082015250565b600061422f603283612cc9565b915061423a826141d3565b604082019050919050565b6000602082019050818103600083015261425e81614222565b9050919050565b7f45524337323155524953746f726167653a2055524920717565727920666f722060008201527f6e6f6e6578697374656e7420746f6b656e000000000000000000000000000000602082015250565b60006142c1603183612cc9565b91506142cc82614265565b604082019050919050565b600060208201905081810360008301526142f0816142b4565b9050919050565b600081905092915050565b600061430d82612cbe565b61431781856142f7565b9350614327818560208601612cda565b80840191505092915050565b600061433f8285614302565b915061434b8284614302565b91508190509392505050565b7f45524337323155524953746f726167653a2055524920736574206f66206e6f6e60008201527f6578697374656e7420746f6b656e000000000000000000000000000000000000602082015250565b60006143b3602e83612cc9565b91506143be82614357565b604082019050919050565b600060208201905081810360008301526143e2816143a6565b9050919050565b7f416363657373436f6e74726f6c3a206163636f756e7420000000000000000000600082015250565b600061441f6017836142f7565b915061442a826143e9565b601782019050919050565b7f206973206d697373696e6720726f6c6520000000000000000000000000000000600082015250565b600061446b6011836142f7565b915061447682614435565b601182019050919050565b600061448c82614412565b91506144988285614302565b91506144a38261445e565b91506144af8284614302565b91508190509392505050565b600081519050919050565b600082825260208201905092915050565b60006144e2826144bb565b6144ec81856144c6565b93506144fc818560208601612cda565b61450581612d0d565b840191505092915050565b60006080820190506145256000830187612e0e565b6145326020830186612e0e565b61453f6040830185613108565b818103606083015261455181846144d7565b905095945050505050565b60008151905061456b81612c2f565b92915050565b60006020828403121561458757614586612bf9565b5b60006145958482850161455c565b91505092915050565b7f4552433732314d657461646174613a2055524920717565727920666f72206e6f60008201527f6e6578697374656e7420746f6b656e0000000000000000000000000000000000602082015250565b60006145fa602f83612cc9565b91506146058261459e565b604082019050919050565b60006020820190508181036000830152614629816145ed565b9050919050565b7f4e487b7100000000000000000000000000000000000000000000000000000000600052601260045260246000fd5b600061466a82612d79565b915061467583612d79565b92508261468557614684614630565b5b828204905092915050565b600061469b82612d79565b91506146a683612d79565b9250826146b6576146b5614630565b5b828206905092915050565b7f4552433732313a206d696e7420746f20746865207a65726f2061646472657373600082015250565b60006146f7602083612cc9565b9150614702826146c1565b602082019050919050565b60006020820190508181036000830152614726816146ea565b9050919050565b7f4552433732313a20746f6b656e20616c7265616479206d696e74656400000000600082015250565b6000614763601c83612cc9565b915061476e8261472d565b602082019050919050565b6000602082019050818103600083015261479281614756565b905091905056fea2646970667358221220c71277812d1911da5b83911c03e97ec65e43ae742e3eaade9300ca8f75e0ca2764736f6c634300080a0033",
  "immutableReferences": {},
  "source": "// SPDX-License-Identifier: MIT\r\npragma solidity ^0.8.4;\r\n\r\nimport \"openzeppelin-solidity/contracts/token/ERC721/ERC721.sol\";\r\nimport \"openzeppelin-solidity/contracts/token/ERC721/extensions/ERC721URIStorage.sol\";\r\nimport \"openzeppelin-solidity/contracts/token/ERC721/extensions/ERC721Burnable.sol\";\r\nimport \"openzeppelin-solidity/contracts/access/AccessControl.sol\";\r\nimport \"openzeppelin-solidity/contracts/utils/Counters.sol\";\r\n\r\ncontract flipCard is ERC721, ERC721URIStorage, ERC721Burnable, AccessControl {\r\n    using Counters for Counters.Counter;\r\n\r\n    bytes32 public constant MINTER_ROLE = keccak256(\"MINTER_ROLE\"); // can mint new NFTs\r\n    bytes32 public constant HANDLER_ROLE = keccak256(\"HANDLER_ROLE\"); //can handle repair and repairments\r\n    bytes32 public constant BOOK_KEEPER_ROLE = keccak256(\"BOOK_KEEPER_ROLE\"); // can transfer the NFTs to anyone & update their issue dates\r\n    Counters.Counter private _tokenIdCounter;\r\n\r\n    //This is the brand head wallet address to make them the default admin on the blockchain\r\n    address public brandAddress;\r\n\r\n    constructor() ERC721(\"FlipCards\", \"FCRDS\") {\r\n        //Called when the blockchain starts\r\n        //This way the person initializing the blockchain have all the necessary roles\r\n        //These roles are just provided for readiblity and scope assessment, just DEFAULT_ADMIN_ROLE is equivalent to these\r\n\r\n        makeSuperAdmin(msg.sender);\r\n\r\n        //when the contract lits up we want to assign the default address to brandAddress\r\n        brandAddress = 0x6fA75265a8A8CfEB7eB798248fab22dAe8b9bccD;\r\n        makeSuperAdmin(brandAddress);\r\n        //This way the brand owner will be the Admin since the contract starts\r\n    }\r\n\r\n    /// Return 'true' if the account belongs to a minter\r\n    function isMinter(address _account) public view virtual returns (bool) {\r\n        return\r\n            hasRole(DEFAULT_ADMIN_ROLE, _account) ||\r\n            hasRole(MINTER_ROLE, _account);\r\n    }\r\n\r\n    /// Restricted to the minters of the NFT\r\n    modifier onlyMinter() {\r\n        //user who can mint a new NFT\r\n        require(isMinter(msg.sender), \"Restricted to owner and minters\");\r\n        _;\r\n    }\r\n\r\n    /// Return 'true' if the account is the admin account\r\n    function isAdmin(address _account) public view virtual returns (bool) {\r\n        return hasRole(DEFAULT_ADMIN_ROLE, _account);\r\n    }\r\n\r\n    /// Restricted to the minters of the NFT\r\n    modifier onlyAdmin() {\r\n        //user who can mint a new NFT\r\n        require(isAdmin(msg.sender), \"Restricted to only admin\");\r\n        _;\r\n    }\r\n\r\n    function isUpdateMember(address _account)\r\n        public\r\n        view\r\n        virtual\r\n        returns (bool)\r\n    {\r\n        return\r\n            hasRole(DEFAULT_ADMIN_ROLE, _account) ||\r\n            hasRole(BOOK_KEEPER_ROLE, _account);\r\n    }\r\n\r\n    modifier onlyUpdateMember() {\r\n        require(isUpdateMember(msg.sender));\r\n        _;\r\n    }\r\n\r\n    ///updates all the present roles for the given address\r\n    function makeSuperAdmin(address _member) public virtual onlyAdmin {\r\n        addRole(_member, MINTER_ROLE);\r\n        addRole(_member, DEFAULT_ADMIN_ROLE);\r\n        addRole(_member, HANDLER_ROLE);\r\n        addRole(_member, BOOK_KEEPER_ROLE);\r\n    }\r\n\r\n    /// updates the roles for the passed address\r\n    function addRole(address _member, bytes32 _role) public virtual onlyAdmin {\r\n        /**\r\n        member -> address of user whose role we need to update\r\n        role -> string defining the role for member\r\n         */\r\n        require(\r\n            _role == MINTER_ROLE ||\r\n                _role == HANDLER_ROLE ||\r\n                _role == BOOK_KEEPER_ROLE\r\n        );\r\n        grantRole(_role, _member);\r\n    }\r\n\r\n    /// Safely mint a new NFT\r\n    function safeMint(address to, string memory uri) public onlyMinter {\r\n        /**\r\n        to -> contract address on which the NFT needs to be minted\r\n        uri -> The uri of the token generating\r\n         */\r\n        uint256 tokenId = _tokenIdCounter.current();\r\n        _tokenIdCounter.increment();\r\n        _safeMint(to, tokenId);\r\n        _setTokenURI(tokenId, uri);\r\n    }\r\n\r\n    ///utility function to convert a byte32 into a string\r\n    function bytes32ToString(bytes32 x) public pure returns (string memory) {\r\n        bytes memory bytesString = new bytes(32);\r\n        uint256 charCount = 0;\r\n        uint256 j;\r\n        for (j = 0; j < 32; j++) {\r\n            bytes1 char = bytes1(bytes32(uint256(x) * 2**(8 * j)));\r\n            if (char != 0) {\r\n                bytesString[charCount] = char;\r\n                charCount++;\r\n            }\r\n        }\r\n        bytes memory bytesStringTrimmed = new bytes(charCount);\r\n        for (j = 0; j < charCount; j++) {\r\n            bytesStringTrimmed[j] = bytesString[j];\r\n        }\r\n        return string(bytesStringTrimmed);\r\n    }\r\n\r\n    /// batch mint NFTs\r\n    function safeMintBatch(address to, bytes32[] memory _newTokenURIs)\r\n        public\r\n        onlyMinter\r\n    {\r\n        uint256 i = 0;\r\n        for (i = 0; i < _newTokenURIs.length; i++) {\r\n            //batch mint NFTs from the given array of token containing tokenURIs\r\n            safeMint(to, bytes32ToString(_newTokenURIs[i]));\r\n        }\r\n    }\r\n\r\n    function updateTokenUri(uint256 _tokenId, string memory _tokenURI)\r\n        public\r\n        onlyUpdateMember\r\n        returns (bool)\r\n    {\r\n        /**\r\n        Only user with the access to the updation request can update the URI token\r\n         */\r\n        _setTokenURI(_tokenId, _tokenURI);\r\n        return true;\r\n    }\r\n\r\n    // The following functions are overrides required by Solidity.\r\n\r\n    function _burn(uint256 tokenId)\r\n        internal\r\n        override(ERC721, ERC721URIStorage)\r\n    {\r\n        super._burn(tokenId);\r\n    }\r\n\r\n    function heartbeat() public pure returns (uint256) {\r\n        /**\r\n        Helps to check on the connecting frontend if the connectino is possible\r\n         */\r\n        return 1;\r\n    }\r\n\r\n    function tokenURI(uint256 tokenId)\r\n        public\r\n        view\r\n        override(ERC721, ERC721URIStorage)\r\n        returns (string memory)\r\n    {\r\n        return super.tokenURI(tokenId);\r\n    }\r\n\r\n    //// when token is sent on this chain it must return the magic value\r\n    function onERC721Received(\r\n        address,\r\n        address,\r\n        uint256,\r\n        bytes calldata\r\n    ) external pure returns (bytes4) {\r\n        bytes4(keccak256(\"onERC721Received(address,address,uint256,bytes)\"));\r\n    }\r\n\r\n    function supportsInterface(bytes4 interfaceId)\r\n        public\r\n        view\r\n        override(ERC721, AccessControl)\r\n        returns (bool)\r\n    {\r\n        return super.supportsInterface(interfaceId);\r\n    }\r\n}\r\n",
  "sourcePath": "H:\\backend-flip\\contracts\\flipCard.sol",
  "compiler": {
    "name": "solc",
    "version": "0.8.10+commit.fc410830.Emscripten.clang"
  },
  "schemaVersion": "3.4.8",
  "updatedAt": "2022-07-30T11:48:22.837Z",
  "devdoc": {
    "kind": "dev",
    "methods": {
      "approve(address,uint256)": {
        "details": "See {IERC721-approve}."
      },
      "balanceOf(address)": {
        "details": "See {IERC721-balanceOf}."
      },
      "burn(uint256)": {
        "details": "Burns `tokenId`. See {ERC721-_burn}. Requirements: - The caller must own `tokenId` or be an approved operator."
      },
      "getApproved(uint256)": {
        "details": "See {IERC721-getApproved}."
      },
      "getRoleAdmin(bytes32)": {
        "details": "Returns the admin role that controls `role`. See {grantRole} and {revokeRole}. To change a role's admin, use {_setRoleAdmin}."
      },
      "grantRole(bytes32,address)": {
        "details": "Grants `role` to `account`. If `account` had not been already granted `role`, emits a {RoleGranted} event. Requirements: - the caller must have ``role``'s admin role."
      },
      "hasRole(bytes32,address)": {
        "details": "Returns `true` if `account` has been granted `role`."
      },
      "isApprovedForAll(address,address)": {
        "details": "See {IERC721-isApprovedForAll}."
      },
      "name()": {
        "details": "See {IERC721Metadata-name}."
      },
      "ownerOf(uint256)": {
        "details": "See {IERC721-ownerOf}."
      },
      "renounceRole(bytes32,address)": {
        "details": "Revokes `role` from the calling account. Roles are often managed via {grantRole} and {revokeRole}: this function's purpose is to provide a mechanism for accounts to lose their privileges if they are compromised (such as when a trusted device is misplaced). If the calling account had been revoked `role`, emits a {RoleRevoked} event. Requirements: - the caller must be `account`."
      },
      "revokeRole(bytes32,address)": {
        "details": "Revokes `role` from `account`. If `account` had been granted `role`, emits a {RoleRevoked} event. Requirements: - the caller must have ``role``'s admin role."
      },
      "safeTransferFrom(address,address,uint256)": {
        "details": "See {IERC721-safeTransferFrom}."
      },
      "safeTransferFrom(address,address,uint256,bytes)": {
        "details": "See {IERC721-safeTransferFrom}."
      },
      "setApprovalForAll(address,bool)": {
        "details": "See {IERC721-setApprovalForAll}."
      },
      "symbol()": {
        "details": "See {IERC721Metadata-symbol}."
      },
      "transferFrom(address,address,uint256)": {
        "details": "See {IERC721-transferFrom}."
      }
    },
    "version": 1
  },
  "userdoc": {
    "kind": "user",
    "methods": {
      "addRole(address,bytes32)": {
        "notice": "updates the roles for the passed address"
      },
      "bytes32ToString(bytes32)": {
        "notice": "utility function to convert a byte32 into a string"
      },
      "isAdmin(address)": {
        "notice": "Return 'true' if the account is the admin account"
      },
      "isMinter(address)": {
        "notice": "Return 'true' if the account belongs to a minter"
      },
      "makeSuperAdmin(address)": {
        "notice": "updates all the present roles for the given address"
      },
      "safeMint(address,string)": {
        "notice": "Safely mint a new NFT"
      },
      "safeMintBatch(address,bytes32[])": {
        "notice": "batch mint NFTs"
      }
    },
    "version": 1
  }
}